{
  "contractName": "RemplissageAgric",
  "abi": [
    {
      "inputs": [
        {
          "internalType": "uint256",
          "name": "",
          "type": "uint256"
        }
      ],
      "name": "ALLS",
      "outputs": [
        {
          "internalType": "string",
          "name": "",
          "type": "string"
        }
      ],
      "stateMutability": "view",
      "type": "function",
      "constant": true
    },
    {
      "inputs": [],
      "name": "nextID",
      "outputs": [
        {
          "internalType": "uint256",
          "name": "",
          "type": "uint256"
        }
      ],
      "stateMutability": "view",
      "type": "function",
      "constant": true
    },
    {
      "inputs": [
        {
          "internalType": "uint256",
          "name": "",
          "type": "uint256"
        }
      ],
      "name": "operations2",
      "outputs": [
        {
          "internalType": "uint256",
          "name": "idOperation",
          "type": "uint256"
        },
        {
          "internalType": "uint256",
          "name": "code",
          "type": "uint256"
        },
        {
          "internalType": "string",
          "name": "dateOperation",
          "type": "string"
        },
        {
          "internalType": "string",
          "name": "typeOp",
          "type": "string"
        },
        {
          "internalType": "uint256",
          "name": "poidsLait",
          "type": "uint256"
        },
        {
          "components": [
            {
              "internalType": "uint256",
              "name": "idAgriculteur",
              "type": "uint256"
            },
            {
              "internalType": "string",
              "name": "nom",
              "type": "string"
            },
            {
              "internalType": "string",
              "name": "prenom",
              "type": "string"
            },
            {
              "internalType": "string",
              "name": "username",
              "type": "string"
            },
            {
              "internalType": "string",
              "name": "password",
              "type": "string"
            },
            {
              "internalType": "string",
              "name": "adress",
              "type": "string"
            }
          ],
          "internalType": "struct Remplissage.Agriculteur",
          "name": "agriculteur",
          "type": "tuple"
        },
        {
          "components": [
            {
              "internalType": "uint256",
              "name": "idCollecteur",
              "type": "uint256"
            },
            {
              "internalType": "string",
              "name": "nomCollecteur",
              "type": "string"
            },
            {
              "internalType": "string",
              "name": "prenomCollecteur",
              "type": "string"
            },
            {
              "internalType": "string",
              "name": "matricule",
              "type": "string"
            },
            {
              "internalType": "string",
              "name": "adresse",
              "type": "string"
            },
            {
              "internalType": "uint256",
              "name": "tel",
              "type": "uint256"
            }
          ],
          "internalType": "struct Remplissage.Collecteur",
          "name": "collecteur",
          "type": "tuple"
        }
      ],
      "stateMutability": "view",
      "type": "function",
      "constant": true
    },
    {
      "inputs": [
        {
          "components": [
            {
              "internalType": "uint256",
              "name": "idOperation",
              "type": "uint256"
            },
            {
              "internalType": "uint256",
              "name": "code",
              "type": "uint256"
            },
            {
              "internalType": "string",
              "name": "dateOperation",
              "type": "string"
            },
            {
              "internalType": "string",
              "name": "typeOp",
              "type": "string"
            },
            {
              "internalType": "uint256",
              "name": "poidsLait",
              "type": "uint256"
            },
            {
              "components": [
                {
                  "internalType": "uint256",
                  "name": "idAgriculteur",
                  "type": "uint256"
                },
                {
                  "internalType": "string",
                  "name": "nom",
                  "type": "string"
                },
                {
                  "internalType": "string",
                  "name": "prenom",
                  "type": "string"
                },
                {
                  "internalType": "string",
                  "name": "username",
                  "type": "string"
                },
                {
                  "internalType": "string",
                  "name": "password",
                  "type": "string"
                },
                {
                  "internalType": "string",
                  "name": "adress",
                  "type": "string"
                }
              ],
              "internalType": "struct Remplissage.Agriculteur",
              "name": "agriculteur",
              "type": "tuple"
            },
            {
              "components": [
                {
                  "internalType": "uint256",
                  "name": "idCollecteur",
                  "type": "uint256"
                },
                {
                  "internalType": "string",
                  "name": "nomCollecteur",
                  "type": "string"
                },
                {
                  "internalType": "string",
                  "name": "prenomCollecteur",
                  "type": "string"
                },
                {
                  "internalType": "string",
                  "name": "matricule",
                  "type": "string"
                },
                {
                  "internalType": "string",
                  "name": "adresse",
                  "type": "string"
                },
                {
                  "internalType": "uint256",
                  "name": "tel",
                  "type": "uint256"
                }
              ],
              "internalType": "struct Remplissage.Collecteur",
              "name": "collecteur",
              "type": "tuple"
            }
          ],
          "internalType": "struct Remplissage.Operation",
          "name": "op",
          "type": "tuple"
        }
      ],
      "name": "addOperation2",
      "outputs": [
        {
          "components": [
            {
              "internalType": "uint256",
              "name": "idOperation",
              "type": "uint256"
            },
            {
              "internalType": "uint256",
              "name": "code",
              "type": "uint256"
            },
            {
              "internalType": "string",
              "name": "dateOperation",
              "type": "string"
            },
            {
              "internalType": "string",
              "name": "typeOp",
              "type": "string"
            },
            {
              "internalType": "uint256",
              "name": "poidsLait",
              "type": "uint256"
            },
            {
              "components": [
                {
                  "internalType": "uint256",
                  "name": "idAgriculteur",
                  "type": "uint256"
                },
                {
                  "internalType": "string",
                  "name": "nom",
                  "type": "string"
                },
                {
                  "internalType": "string",
                  "name": "prenom",
                  "type": "string"
                },
                {
                  "internalType": "string",
                  "name": "username",
                  "type": "string"
                },
                {
                  "internalType": "string",
                  "name": "password",
                  "type": "string"
                },
                {
                  "internalType": "string",
                  "name": "adress",
                  "type": "string"
                }
              ],
              "internalType": "struct Remplissage.Agriculteur",
              "name": "agriculteur",
              "type": "tuple"
            },
            {
              "components": [
                {
                  "internalType": "uint256",
                  "name": "idCollecteur",
                  "type": "uint256"
                },
                {
                  "internalType": "string",
                  "name": "nomCollecteur",
                  "type": "string"
                },
                {
                  "internalType": "string",
                  "name": "prenomCollecteur",
                  "type": "string"
                },
                {
                  "internalType": "string",
                  "name": "matricule",
                  "type": "string"
                },
                {
                  "internalType": "string",
                  "name": "adresse",
                  "type": "string"
                },
                {
                  "internalType": "uint256",
                  "name": "tel",
                  "type": "uint256"
                }
              ],
              "internalType": "struct Remplissage.Collecteur",
              "name": "collecteur",
              "type": "tuple"
            }
          ],
          "internalType": "struct Remplissage.Operation[]",
          "name": "op0",
          "type": "tuple[]"
        }
      ],
      "stateMutability": "nonpayable",
      "type": "function"
    },
    {
      "inputs": [],
      "name": "getOperations",
      "outputs": [
        {
          "components": [
            {
              "internalType": "uint256",
              "name": "idOperation",
              "type": "uint256"
            },
            {
              "internalType": "uint256",
              "name": "code",
              "type": "uint256"
            },
            {
              "internalType": "string",
              "name": "dateOperation",
              "type": "string"
            },
            {
              "internalType": "string",
              "name": "typeOp",
              "type": "string"
            },
            {
              "internalType": "uint256",
              "name": "poidsLait",
              "type": "uint256"
            },
            {
              "components": [
                {
                  "internalType": "uint256",
                  "name": "idAgriculteur",
                  "type": "uint256"
                },
                {
                  "internalType": "string",
                  "name": "nom",
                  "type": "string"
                },
                {
                  "internalType": "string",
                  "name": "prenom",
                  "type": "string"
                },
                {
                  "internalType": "string",
                  "name": "username",
                  "type": "string"
                },
                {
                  "internalType": "string",
                  "name": "password",
                  "type": "string"
                },
                {
                  "internalType": "string",
                  "name": "adress",
                  "type": "string"
                }
              ],
              "internalType": "struct Remplissage.Agriculteur",
              "name": "agriculteur",
              "type": "tuple"
            },
            {
              "components": [
                {
                  "internalType": "uint256",
                  "name": "idCollecteur",
                  "type": "uint256"
                },
                {
                  "internalType": "string",
                  "name": "nomCollecteur",
                  "type": "string"
                },
                {
                  "internalType": "string",
                  "name": "prenomCollecteur",
                  "type": "string"
                },
                {
                  "internalType": "string",
                  "name": "matricule",
                  "type": "string"
                },
                {
                  "internalType": "string",
                  "name": "adresse",
                  "type": "string"
                },
                {
                  "internalType": "uint256",
                  "name": "tel",
                  "type": "uint256"
                }
              ],
              "internalType": "struct Remplissage.Collecteur",
              "name": "collecteur",
              "type": "tuple"
            }
          ],
          "internalType": "struct Remplissage.Operation[]",
          "name": "result",
          "type": "tuple[]"
        }
      ],
      "stateMutability": "view",
      "type": "function",
      "constant": true
    },
    {
      "inputs": [
        {
          "internalType": "uint256",
          "name": "id",
          "type": "uint256"
        }
      ],
      "name": "getOperation",
      "outputs": [
        {
          "components": [
            {
              "internalType": "uint256",
              "name": "idOperation",
              "type": "uint256"
            },
            {
              "internalType": "uint256",
              "name": "code",
              "type": "uint256"
            },
            {
              "internalType": "string",
              "name": "dateOperation",
              "type": "string"
            },
            {
              "internalType": "string",
              "name": "typeOp",
              "type": "string"
            },
            {
              "internalType": "uint256",
              "name": "poidsLait",
              "type": "uint256"
            },
            {
              "components": [
                {
                  "internalType": "uint256",
                  "name": "idAgriculteur",
                  "type": "uint256"
                },
                {
                  "internalType": "string",
                  "name": "nom",
                  "type": "string"
                },
                {
                  "internalType": "string",
                  "name": "prenom",
                  "type": "string"
                },
                {
                  "internalType": "string",
                  "name": "username",
                  "type": "string"
                },
                {
                  "internalType": "string",
                  "name": "password",
                  "type": "string"
                },
                {
                  "internalType": "string",
                  "name": "adress",
                  "type": "string"
                }
              ],
              "internalType": "struct Remplissage.Agriculteur",
              "name": "agriculteur",
              "type": "tuple"
            },
            {
              "components": [
                {
                  "internalType": "uint256",
                  "name": "idCollecteur",
                  "type": "uint256"
                },
                {
                  "internalType": "string",
                  "name": "nomCollecteur",
                  "type": "string"
                },
                {
                  "internalType": "string",
                  "name": "prenomCollecteur",
                  "type": "string"
                },
                {
                  "internalType": "string",
                  "name": "matricule",
                  "type": "string"
                },
                {
                  "internalType": "string",
                  "name": "adresse",
                  "type": "string"
                },
                {
                  "internalType": "uint256",
                  "name": "tel",
                  "type": "uint256"
                }
              ],
              "internalType": "struct Remplissage.Collecteur",
              "name": "collecteur",
              "type": "tuple"
            }
          ],
          "internalType": "struct Remplissage.Operation",
          "name": "operation",
          "type": "tuple"
        }
      ],
      "stateMutability": "view",
      "type": "function",
      "constant": true
    },
    {
      "inputs": [
        {
          "internalType": "uint256",
          "name": "code",
          "type": "uint256"
        }
      ],
      "name": "GetOperationFarmerByCode",
      "outputs": [
        {
          "components": [
            {
              "internalType": "uint256",
              "name": "idOperation",
              "type": "uint256"
            },
            {
              "internalType": "uint256",
              "name": "code",
              "type": "uint256"
            },
            {
              "internalType": "string",
              "name": "dateOperation",
              "type": "string"
            },
            {
              "internalType": "string",
              "name": "typeOp",
              "type": "string"
            },
            {
              "internalType": "uint256",
              "name": "poidsLait",
              "type": "uint256"
            },
            {
              "components": [
                {
                  "internalType": "uint256",
                  "name": "idAgriculteur",
                  "type": "uint256"
                },
                {
                  "internalType": "string",
                  "name": "nom",
                  "type": "string"
                },
                {
                  "internalType": "string",
                  "name": "prenom",
                  "type": "string"
                },
                {
                  "internalType": "string",
                  "name": "username",
                  "type": "string"
                },
                {
                  "internalType": "string",
                  "name": "password",
                  "type": "string"
                },
                {
                  "internalType": "string",
                  "name": "adress",
                  "type": "string"
                }
              ],
              "internalType": "struct Remplissage.Agriculteur",
              "name": "agriculteur",
              "type": "tuple"
            },
            {
              "components": [
                {
                  "internalType": "uint256",
                  "name": "idCollecteur",
                  "type": "uint256"
                },
                {
                  "internalType": "string",
                  "name": "nomCollecteur",
                  "type": "string"
                },
                {
                  "internalType": "string",
                  "name": "prenomCollecteur",
                  "type": "string"
                },
                {
                  "internalType": "string",
                  "name": "matricule",
                  "type": "string"
                },
                {
                  "internalType": "string",
                  "name": "adresse",
                  "type": "string"
                },
                {
                  "internalType": "uint256",
                  "name": "tel",
                  "type": "uint256"
                }
              ],
              "internalType": "struct Remplissage.Collecteur",
              "name": "collecteur",
              "type": "tuple"
            }
          ],
          "internalType": "struct Remplissage.Operation",
          "name": "operation",
          "type": "tuple"
        }
      ],
      "stateMutability": "view",
      "type": "function",
      "constant": true
    }
  ],
  "bytecode": "0x6080604052600160025534801561001557600080fd5b50613614806100256000396000f3fe608060405234801561001057600080fd5b506004361061007d5760003560e01c8063996ba7bb1161005b578063996ba7bb14610100578063dcdc029814610136578063e299671314610166578063f948e50a146101965761007d565b80631e96917d14610082578063202e3924146100a05780635383bbfd146100d0575b600080fd5b61008a6101b4565b60405161009791906128d9565b60405180910390f35b6100ba60048036038101906100b59190612934565b6101ba565b6040516100c79190612bfd565b60405180910390f35b6100ea60048036038101906100e59190612934565b6108f5565b6040516100f79190612c69565b60405180910390f35b61011a60048036038101906101159190612934565b6109a1565b60405161012d9796959493929190612dce565b60405180910390f35b610150600480360381019061014b9190612934565b611057565b60405161015d9190612bfd565b60405180910390f35b610180600480360381019061017b91906132f8565b611795565b60405161018d91906134b4565b60405180910390f35b61019e61205f565b6040516101ab91906134b4565b60405180910390f35b60025481565b6101c2612768565b60005b6002548110156108ee5782600082815481106101e4576101e36134d6565b5b90600052602060002090601102016000015414156108db57600081815481106102105761020f6134d6565b5b90600052602060002090601102016040518060e0016040529081600082015481526020016001820154815260200160028201805461024d90613534565b80601f016020809104026020016040519081016040528092919081815260200182805461027990613534565b80156102c65780601f1061029b576101008083540402835291602001916102c6565b820191906000526020600020905b8154815290600101906020018083116102a957829003601f168201915b505050505081526020016003820180546102df90613534565b80601f016020809104026020016040519081016040528092919081815260200182805461030b90613534565b80156103585780601f1061032d57610100808354040283529160200191610358565b820191906000526020600020905b81548152906001019060200180831161033b57829003601f168201915b5050505050815260200160048201548152602001600582016040518060c00160405290816000820154815260200160018201805461039590613534565b80601f01602080910402602001604051908101604052809291908181526020018280546103c190613534565b801561040e5780601f106103e35761010080835404028352916020019161040e565b820191906000526020600020905b8154815290600101906020018083116103f157829003601f168201915b5050505050815260200160028201805461042790613534565b80601f016020809104026020016040519081016040528092919081815260200182805461045390613534565b80156104a05780601f10610475576101008083540402835291602001916104a0565b820191906000526020600020905b81548152906001019060200180831161048357829003601f168201915b505050505081526020016003820180546104b990613534565b80601f01602080910402602001604051908101604052809291908181526020018280546104e590613534565b80156105325780601f1061050757610100808354040283529160200191610532565b820191906000526020600020905b81548152906001019060200180831161051557829003601f168201915b5050505050815260200160048201805461054b90613534565b80601f016020809104026020016040519081016040528092919081815260200182805461057790613534565b80156105c45780601f10610599576101008083540402835291602001916105c4565b820191906000526020600020905b8154815290600101906020018083116105a757829003601f168201915b505050505081526020016005820180546105dd90613534565b80601f016020809104026020016040519081016040528092919081815260200182805461060990613534565b80156106565780601f1061062b57610100808354040283529160200191610656565b820191906000526020600020905b81548152906001019060200180831161063957829003601f168201915b5050505050815250508152602001600b82016040518060c00160405290816000820154815260200160018201805461068d90613534565b80601f01602080910402602001604051908101604052809291908181526020018280546106b990613534565b80156107065780601f106106db57610100808354040283529160200191610706565b820191906000526020600020905b8154815290600101906020018083116106e957829003601f168201915b5050505050815260200160028201805461071f90613534565b80601f016020809104026020016040519081016040528092919081815260200182805461074b90613534565b80156107985780601f1061076d57610100808354040283529160200191610798565b820191906000526020600020905b81548152906001019060200180831161077b57829003601f168201915b505050505081526020016003820180546107b190613534565b80601f01602080910402602001604051908101604052809291908181526020018280546107dd90613534565b801561082a5780601f106107ff5761010080835404028352916020019161082a565b820191906000526020600020905b81548152906001019060200180831161080d57829003601f168201915b5050505050815260200160048201805461084390613534565b80601f016020809104026020016040519081016040528092919081815260200182805461086f90613534565b80156108bc5780601f10610891576101008083540402835291602001916108bc565b820191906000526020600020905b81548152906001019060200180831161089f57829003601f168201915b50505050508152602001600582015481525050815250509150506108f0565b80806108e690613595565b9150506101c5565b505b919050565b6001818154811061090557600080fd5b90600052602060002001600091509050805461092090613534565b80601f016020809104026020016040519081016040528092919081815260200182805461094c90613534565b80156109995780601f1061096e57610100808354040283529160200191610999565b820191906000526020600020905b81548152906001019060200180831161097c57829003601f168201915b505050505081565b600081815481106109b157600080fd5b90600052602060002090601102016000915090508060000154908060010154908060020180546109e090613534565b80601f0160208091040260200160405190810160405280929190818152602001828054610a0c90613534565b8015610a595780601f10610a2e57610100808354040283529160200191610a59565b820191906000526020600020905b815481529060010190602001808311610a3c57829003601f168201915b505050505090806003018054610a6e90613534565b80601f0160208091040260200160405190810160405280929190818152602001828054610a9a90613534565b8015610ae75780601f10610abc57610100808354040283529160200191610ae7565b820191906000526020600020905b815481529060010190602001808311610aca57829003601f168201915b505050505090806004015490806005016040518060c001604052908160008201548152602001600182018054610b1c90613534565b80601f0160208091040260200160405190810160405280929190818152602001828054610b4890613534565b8015610b955780601f10610b6a57610100808354040283529160200191610b95565b820191906000526020600020905b815481529060010190602001808311610b7857829003601f168201915b50505050508152602001600282018054610bae90613534565b80601f0160208091040260200160405190810160405280929190818152602001828054610bda90613534565b8015610c275780601f10610bfc57610100808354040283529160200191610c27565b820191906000526020600020905b815481529060010190602001808311610c0a57829003601f168201915b50505050508152602001600382018054610c4090613534565b80601f0160208091040260200160405190810160405280929190818152602001828054610c6c90613534565b8015610cb95780601f10610c8e57610100808354040283529160200191610cb9565b820191906000526020600020905b815481529060010190602001808311610c9c57829003601f168201915b50505050508152602001600482018054610cd290613534565b80601f0160208091040260200160405190810160405280929190818152602001828054610cfe90613534565b8015610d4b5780601f10610d2057610100808354040283529160200191610d4b565b820191906000526020600020905b815481529060010190602001808311610d2e57829003601f168201915b50505050508152602001600582018054610d6490613534565b80601f0160208091040260200160405190810160405280929190818152602001828054610d9090613534565b8015610ddd5780601f10610db257610100808354040283529160200191610ddd565b820191906000526020600020905b815481529060010190602001808311610dc057829003601f168201915b5050505050815250509080600b016040518060c001604052908160008201548152602001600182018054610e1090613534565b80601f0160208091040260200160405190810160405280929190818152602001828054610e3c90613534565b8015610e895780601f10610e5e57610100808354040283529160200191610e89565b820191906000526020600020905b815481529060010190602001808311610e6c57829003601f168201915b50505050508152602001600282018054610ea290613534565b80601f0160208091040260200160405190810160405280929190818152602001828054610ece90613534565b8015610f1b5780601f10610ef057610100808354040283529160200191610f1b565b820191906000526020600020905b815481529060010190602001808311610efe57829003601f168201915b50505050508152602001600382018054610f3490613534565b80601f0160208091040260200160405190810160405280929190818152602001828054610f6090613534565b8015610fad5780601f10610f8257610100808354040283529160200191610fad565b820191906000526020600020905b815481529060010190602001808311610f9057829003601f168201915b50505050508152602001600482018054610fc690613534565b80601f0160208091040260200160405190810160405280929190818152602001828054610ff290613534565b801561103f5780601f106110145761010080835404028352916020019161103f565b820191906000526020600020905b81548152906001019060200180831161102257829003601f168201915b50505050508152602001600582015481525050905087565b61105f612768565b60005b60008054905081101561178e578260008281548110611084576110836134d6565b5b906000526020600020906011020160010154141561177b57600081815481106110b0576110af6134d6565b5b90600052602060002090601102016040518060e001604052908160008201548152602001600182015481526020016002820180546110ed90613534565b80601f016020809104026020016040519081016040528092919081815260200182805461111990613534565b80156111665780601f1061113b57610100808354040283529160200191611166565b820191906000526020600020905b81548152906001019060200180831161114957829003601f168201915b5050505050815260200160038201805461117f90613534565b80601f01602080910402602001604051908101604052809291908181526020018280546111ab90613534565b80156111f85780601f106111cd576101008083540402835291602001916111f8565b820191906000526020600020905b8154815290600101906020018083116111db57829003601f168201915b5050505050815260200160048201548152602001600582016040518060c00160405290816000820154815260200160018201805461123590613534565b80601f016020809104026020016040519081016040528092919081815260200182805461126190613534565b80156112ae5780601f10611283576101008083540402835291602001916112ae565b820191906000526020600020905b81548152906001019060200180831161129157829003601f168201915b505050505081526020016002820180546112c790613534565b80601f01602080910402602001604051908101604052809291908181526020018280546112f390613534565b80156113405780601f1061131557610100808354040283529160200191611340565b820191906000526020600020905b81548152906001019060200180831161132357829003601f168201915b5050505050815260200160038201805461135990613534565b80601f016020809104026020016040519081016040528092919081815260200182805461138590613534565b80156113d25780601f106113a7576101008083540402835291602001916113d2565b820191906000526020600020905b8154815290600101906020018083116113b557829003601f168201915b505050505081526020016004820180546113eb90613534565b80601f016020809104026020016040519081016040528092919081815260200182805461141790613534565b80156114645780601f1061143957610100808354040283529160200191611464565b820191906000526020600020905b81548152906001019060200180831161144757829003601f168201915b5050505050815260200160058201805461147d90613534565b80601f01602080910402602001604051908101604052809291908181526020018280546114a990613534565b80156114f65780601f106114cb576101008083540402835291602001916114f6565b820191906000526020600020905b8154815290600101906020018083116114d957829003601f168201915b5050505050815250508152602001600b82016040518060c00160405290816000820154815260200160018201805461152d90613534565b80601f016020809104026020016040519081016040528092919081815260200182805461155990613534565b80156115a65780601f1061157b576101008083540402835291602001916115a6565b820191906000526020600020905b81548152906001019060200180831161158957829003601f168201915b505050505081526020016002820180546115bf90613534565b80601f01602080910402602001604051908101604052809291908181526020018280546115eb90613534565b80156116385780601f1061160d57610100808354040283529160200191611638565b820191906000526020600020905b81548152906001019060200180831161161b57829003601f168201915b5050505050815260200160038201805461165190613534565b80601f016020809104026020016040519081016040528092919081815260200182805461167d90613534565b80156116ca5780601f1061169f576101008083540402835291602001916116ca565b820191906000526020600020905b8154815290600101906020018083116116ad57829003601f168201915b505050505081526020016004820180546116e390613534565b80601f016020809104026020016040519081016040528092919081815260200182805461170f90613534565b801561175c5780601f106117315761010080835404028352916020019161175c565b820191906000526020600020905b81548152906001019060200180831161173f57829003601f168201915b5050505050815260200160058201548152505081525050915050611790565b808061178690613595565b915050611062565b505b919050565b60606000829080600181540180825580915050600190039060005260206000209060110201600090919091909150600082015181600001556020820151816001015560408201518160020190805190602001906117f39291906127b1565b5060608201518160030190805190602001906118109291906127b1565b506080820151816004015560a08201518160050160008201518160000155602082015181600101908051906020019061184a9291906127b1565b5060408201518160020190805190602001906118679291906127b1565b5060608201518160030190805190602001906118849291906127b1565b5060808201518160040190805190602001906118a19291906127b1565b5060a08201518160050190805190602001906118be9291906127b1565b50505060c082015181600b016000820151816000015560208201518160010190805190602001906118f09291906127b1565b50604082015181600201908051906020019061190d9291906127b1565b50606082015181600301908051906020019061192a9291906127b1565b5060808201518160040190805190602001906119479291906127b1565b5060a08201518160050155505050506000805480602002602001604051908101604052809291908181526020016000905b8282101561205457838290600052602060002090601102016040518060e001604052908160008201548152602001600182015481526020016002820180546119bf90613534565b80601f01602080910402602001604051908101604052809291908181526020018280546119eb90613534565b8015611a385780601f10611a0d57610100808354040283529160200191611a38565b820191906000526020600020905b815481529060010190602001808311611a1b57829003601f168201915b50505050508152602001600382018054611a5190613534565b80601f0160208091040260200160405190810160405280929190818152602001828054611a7d90613534565b8015611aca5780601f10611a9f57610100808354040283529160200191611aca565b820191906000526020600020905b815481529060010190602001808311611aad57829003601f168201915b5050505050815260200160048201548152602001600582016040518060c001604052908160008201548152602001600182018054611b0790613534565b80601f0160208091040260200160405190810160405280929190818152602001828054611b3390613534565b8015611b805780601f10611b5557610100808354040283529160200191611b80565b820191906000526020600020905b815481529060010190602001808311611b6357829003601f168201915b50505050508152602001600282018054611b9990613534565b80601f0160208091040260200160405190810160405280929190818152602001828054611bc590613534565b8015611c125780601f10611be757610100808354040283529160200191611c12565b820191906000526020600020905b815481529060010190602001808311611bf557829003601f168201915b50505050508152602001600382018054611c2b90613534565b80601f0160208091040260200160405190810160405280929190818152602001828054611c5790613534565b8015611ca45780601f10611c7957610100808354040283529160200191611ca4565b820191906000526020600020905b815481529060010190602001808311611c8757829003601f168201915b50505050508152602001600482018054611cbd90613534565b80601f0160208091040260200160405190810160405280929190818152602001828054611ce990613534565b8015611d365780601f10611d0b57610100808354040283529160200191611d36565b820191906000526020600020905b815481529060010190602001808311611d1957829003601f168201915b50505050508152602001600582018054611d4f90613534565b80601f0160208091040260200160405190810160405280929190818152602001828054611d7b90613534565b8015611dc85780601f10611d9d57610100808354040283529160200191611dc8565b820191906000526020600020905b815481529060010190602001808311611dab57829003601f168201915b5050505050815250508152602001600b82016040518060c001604052908160008201548152602001600182018054611dff90613534565b80601f0160208091040260200160405190810160405280929190818152602001828054611e2b90613534565b8015611e785780601f10611e4d57610100808354040283529160200191611e78565b820191906000526020600020905b815481529060010190602001808311611e5b57829003601f168201915b50505050508152602001600282018054611e9190613534565b80601f0160208091040260200160405190810160405280929190818152602001828054611ebd90613534565b8015611f0a5780601f10611edf57610100808354040283529160200191611f0a565b820191906000526020600020905b815481529060010190602001808311611eed57829003601f168201915b50505050508152602001600382018054611f2390613534565b80601f0160208091040260200160405190810160405280929190818152602001828054611f4f90613534565b8015611f9c5780601f10611f7157610100808354040283529160200191611f9c565b820191906000526020600020905b815481529060010190602001808311611f7f57829003601f168201915b50505050508152602001600482018054611fb590613534565b80601f0160208091040260200160405190810160405280929190818152602001828054611fe190613534565b801561202e5780601f106120035761010080835404028352916020019161202e565b820191906000526020600020905b81548152906001019060200180831161201157829003601f168201915b505050505081526020016005820154815250508152505081526020019060010190611978565b505050509050919050565b60606000805480602002602001604051908101604052809291908181526020016000905b8282101561275f57838290600052602060002090601102016040518060e001604052908160008201548152602001600182015481526020016002820180546120ca90613534565b80601f01602080910402602001604051908101604052809291908181526020018280546120f690613534565b80156121435780601f1061211857610100808354040283529160200191612143565b820191906000526020600020905b81548152906001019060200180831161212657829003601f168201915b5050505050815260200160038201805461215c90613534565b80601f016020809104026020016040519081016040528092919081815260200182805461218890613534565b80156121d55780601f106121aa576101008083540402835291602001916121d5565b820191906000526020600020905b8154815290600101906020018083116121b857829003601f168201915b5050505050815260200160048201548152602001600582016040518060c00160405290816000820154815260200160018201805461221290613534565b80601f016020809104026020016040519081016040528092919081815260200182805461223e90613534565b801561228b5780601f106122605761010080835404028352916020019161228b565b820191906000526020600020905b81548152906001019060200180831161226e57829003601f168201915b505050505081526020016002820180546122a490613534565b80601f01602080910402602001604051908101604052809291908181526020018280546122d090613534565b801561231d5780601f106122f25761010080835404028352916020019161231d565b820191906000526020600020905b81548152906001019060200180831161230057829003601f168201915b5050505050815260200160038201805461233690613534565b80601f016020809104026020016040519081016040528092919081815260200182805461236290613534565b80156123af5780601f10612384576101008083540402835291602001916123af565b820191906000526020600020905b81548152906001019060200180831161239257829003601f168201915b505050505081526020016004820180546123c890613534565b80601f01602080910402602001604051908101604052809291908181526020018280546123f490613534565b80156124415780601f1061241657610100808354040283529160200191612441565b820191906000526020600020905b81548152906001019060200180831161242457829003601f168201915b5050505050815260200160058201805461245a90613534565b80601f016020809104026020016040519081016040528092919081815260200182805461248690613534565b80156124d35780601f106124a8576101008083540402835291602001916124d3565b820191906000526020600020905b8154815290600101906020018083116124b657829003601f168201915b5050505050815250508152602001600b82016040518060c00160405290816000820154815260200160018201805461250a90613534565b80601f016020809104026020016040519081016040528092919081815260200182805461253690613534565b80156125835780601f1061255857610100808354040283529160200191612583565b820191906000526020600020905b81548152906001019060200180831161256657829003601f168201915b5050505050815260200160028201805461259c90613534565b80601f01602080910402602001604051908101604052809291908181526020018280546125c890613534565b80156126155780601f106125ea57610100808354040283529160200191612615565b820191906000526020600020905b8154815290600101906020018083116125f857829003601f168201915b5050505050815260200160038201805461262e90613534565b80601f016020809104026020016040519081016040528092919081815260200182805461265a90613534565b80156126a75780601f1061267c576101008083540402835291602001916126a7565b820191906000526020600020905b81548152906001019060200180831161268a57829003601f168201915b505050505081526020016004820180546126c090613534565b80601f01602080910402602001604051908101604052809291908181526020018280546126ec90613534565b80156127395780601f1061270e57610100808354040283529160200191612739565b820191906000526020600020905b81548152906001019060200180831161271c57829003601f168201915b505050505081526020016005820154815250508152505081526020019060010190612083565b50505050905090565b6040518060e00160405280600081526020016000815260200160608152602001606081526020016000815260200161279e612837565b81526020016127ab61286d565b81525090565b8280546127bd90613534565b90600052602060002090601f0160209004810192826127df5760008555612826565b82601f106127f857805160ff1916838001178555612826565b82800160010185558215612826579182015b8281111561282557825182559160200191906001019061280a565b5b50905061283391906128a3565b5090565b6040518060c001604052806000815260200160608152602001606081526020016060815260200160608152602001606081525090565b6040518060c001604052806000815260200160608152602001606081526020016060815260200160608152602001600081525090565b5b808211156128bc5760008160009055506001016128a4565b5090565b6000819050919050565b6128d3816128c0565b82525050565b60006020820190506128ee60008301846128ca565b92915050565b6000604051905090565b600080fd5b600080fd5b612911816128c0565b811461291c57600080fd5b50565b60008135905061292e81612908565b92915050565b60006020828403121561294a576129496128fe565b5b60006129588482850161291f565b91505092915050565b61296a816128c0565b82525050565b600081519050919050565b600082825260208201905092915050565b60005b838110156129aa57808201518184015260208101905061298f565b838111156129b9576000848401525b50505050565b6000601f19601f8301169050919050565b60006129db82612970565b6129e5818561297b565b93506129f581856020860161298c565b6129fe816129bf565b840191505092915050565b600060c083016000830151612a216000860182612961565b5060208301518482036020860152612a3982826129d0565b91505060408301518482036040860152612a5382826129d0565b91505060608301518482036060860152612a6d82826129d0565b91505060808301518482036080860152612a8782826129d0565b91505060a083015184820360a0860152612aa182826129d0565b9150508091505092915050565b600060c083016000830151612ac66000860182612961565b5060208301518482036020860152612ade82826129d0565b91505060408301518482036040860152612af882826129d0565b91505060608301518482036060860152612b1282826129d0565b91505060808301518482036080860152612b2c82826129d0565b91505060a0830151612b4160a0860182612961565b508091505092915050565b600060e083016000830151612b646000860182612961565b506020830151612b776020860182612961565b5060408301518482036040860152612b8f82826129d0565b91505060608301518482036060860152612ba982826129d0565b9150506080830151612bbe6080860182612961565b5060a083015184820360a0860152612bd68282612a09565b91505060c083015184820360c0860152612bf08282612aae565b9150508091505092915050565b60006020820190508181036000830152612c178184612b4c565b905092915050565b600082825260208201905092915050565b6000612c3b82612970565b612c458185612c1f565b9350612c5581856020860161298c565b612c5e816129bf565b840191505092915050565b60006020820190508181036000830152612c838184612c30565b905092915050565b600060c083016000830151612ca36000860182612961565b5060208301518482036020860152612cbb82826129d0565b91505060408301518482036040860152612cd582826129d0565b91505060608301518482036060860152612cef82826129d0565b91505060808301518482036080860152612d0982826129d0565b91505060a083015184820360a0860152612d2382826129d0565b9150508091505092915050565b600060c083016000830151612d486000860182612961565b5060208301518482036020860152612d6082826129d0565b91505060408301518482036040860152612d7a82826129d0565b91505060608301518482036060860152612d9482826129d0565b91505060808301518482036080860152612dae82826129d0565b91505060a0830151612dc360a0860182612961565b508091505092915050565b600060e082019050612de3600083018a6128ca565b612df060208301896128ca565b8181036040830152612e028188612c30565b90508181036060830152612e168187612c30565b9050612e2560808301866128ca565b81810360a0830152612e378185612c8b565b905081810360c0830152612e4b8184612d30565b905098975050505050505050565b600080fd5b7f4e487b7100000000000000000000000000000000000000000000000000000000600052604160045260246000fd5b612e96826129bf565b810181811067ffffffffffffffff82111715612eb557612eb4612e5e565b5b80604052505050565b6000612ec86128f4565b9050612ed48282612e8d565b919050565b600080fd5b600080fd5b600080fd5b600067ffffffffffffffff821115612f0357612f02612e5e565b5b612f0c826129bf565b9050602081019050919050565b82818337600083830152505050565b6000612f3b612f3684612ee8565b612ebe565b905082815260208101848484011115612f5757612f56612ee3565b5b612f62848285612f19565b509392505050565b600082601f830112612f7f57612f7e612ede565b5b8135612f8f848260208601612f28565b91505092915050565b600060c08284031215612fae57612fad612e59565b5b612fb860c0612ebe565b90506000612fc88482850161291f565b600083015250602082013567ffffffffffffffff811115612fec57612feb612ed9565b5b612ff884828501612f6a565b602083015250604082013567ffffffffffffffff81111561301c5761301b612ed9565b5b61302884828501612f6a565b604083015250606082013567ffffffffffffffff81111561304c5761304b612ed9565b5b61305884828501612f6a565b606083015250608082013567ffffffffffffffff81111561307c5761307b612ed9565b5b61308884828501612f6a565b60808301525060a082013567ffffffffffffffff8111156130ac576130ab612ed9565b5b6130b884828501612f6a565b60a08301525092915050565b600060c082840312156130da576130d9612e59565b5b6130e460c0612ebe565b905060006130f48482850161291f565b600083015250602082013567ffffffffffffffff81111561311857613117612ed9565b5b61312484828501612f6a565b602083015250604082013567ffffffffffffffff81111561314857613147612ed9565b5b61315484828501612f6a565b604083015250606082013567ffffffffffffffff81111561317857613177612ed9565b5b61318484828501612f6a565b606083015250608082013567ffffffffffffffff8111156131a8576131a7612ed9565b5b6131b484828501612f6a565b60808301525060a06131c88482850161291f565b60a08301525092915050565b600060e082840312156131ea576131e9612e59565b5b6131f460e0612ebe565b905060006132048482850161291f565b60008301525060206132188482850161291f565b602083015250604082013567ffffffffffffffff81111561323c5761323b612ed9565b5b61324884828501612f6a565b604083015250606082013567ffffffffffffffff81111561326c5761326b612ed9565b5b61327884828501612f6a565b606083015250608061328c8482850161291f565b60808301525060a082013567ffffffffffffffff8111156132b0576132af612ed9565b5b6132bc84828501612f98565b60a08301525060c082013567ffffffffffffffff8111156132e0576132df612ed9565b5b6132ec848285016130c4565b60c08301525092915050565b60006020828403121561330e5761330d6128fe565b5b600082013567ffffffffffffffff81111561332c5761332b612903565b5b613338848285016131d4565b91505092915050565b600081519050919050565b600082825260208201905092915050565b6000819050602082019050919050565b600060e0830160008301516133856000860182612961565b5060208301516133986020860182612961565b50604083015184820360408601526133b082826129d0565b915050606083015184820360608601526133ca82826129d0565b91505060808301516133df6080860182612961565b5060a083015184820360a08601526133f78282612a09565b91505060c083015184820360c08601526134118282612aae565b9150508091505092915050565b600061342a838361336d565b905092915050565b6000602082019050919050565b600061344a82613341565b613454818561334c565b9350836020820285016134668561335d565b8060005b858110156134a25784840389528151613483858261341e565b945061348e83613432565b925060208a0199505060018101905061346a565b50829750879550505050505092915050565b600060208201905081810360008301526134ce818461343f565b905092915050565b7f4e487b7100000000000000000000000000000000000000000000000000000000600052603260045260246000fd5b7f4e487b7100000000000000000000000000000000000000000000000000000000600052602260045260246000fd5b6000600282049050600182168061354c57607f821691505b602082108114156135605761355f613505565b5b50919050565b7f4e487b7100000000000000000000000000000000000000000000000000000000600052601160045260246000fd5b60006135a0826128c0565b91507fffffffffffffffffffffffffffffffffffffffffffffffffffffffffffffffff8214156135d3576135d2613566565b5b60018201905091905056fea2646970667358221220922e541bc7005ca02ed67ba28f38d5a2cbaddc5a02921a980691d0c99c3f49f664736f6c634300080b0033",
  "immutableReferences": {},
  "source": "// SPDX-License-Identifier: MIT\r\npragma solidity >=0.4.22 <0.9.0;\r\nimport \"./Remplissage.sol\";\r\n\r\ncontract RemplissageAgric is Remplissage {\r\n    Operation[] public operations2;\r\n\r\n    string[] public ALLS;\r\n    uint256 public nextID = 1;\r\n\r\n    //create 2\r\n    function addOperation2(Operation memory op)\r\n        public\r\n        returns (Operation[] memory op0   )\r\n    {\r\n        operations2.push(op);\r\n        return (operations2);\r\n    }\r\n\r\n    //get all operations\r\n\r\n    function getOperations() public view returns (Operation[] memory result) {\r\n        return operations2;\r\n    }\r\n\r\n    //get one operation\r\n\r\n    function getOperation(uint256 id)\r\n        public\r\n        view\r\n        returns (Operation memory operation)\r\n    {\r\n        for (uint256 i = 0; i < nextID; i++) {\r\n            if (operations2[i].idOperation == id) {\r\n                return operations2[i];\r\n            }\r\n        }\r\n    }\r\n\r\n    function GetOperationFarmerByCode(uint256 code)\r\n        public\r\n        view\r\n        returns (Operation memory operation)\r\n    {\r\n        for (uint256 i = 0; i < operations2.length; i++) {\r\n            if (operations2[i].code == code) {\r\n                return operations2[i];\r\n            }\r\n        }\r\n    }\r\n}\r\n",
  "sourcePath": "C:\\Users\\ASUS\\Desktop\\pfe\\PFE_Project2022-Collecteur-\\PFE-FrontEnd\\contracts\\RemplissageAgric.sol",
  "compiler": {
    "name": "solc",
    "version": "0.8.11+commit.d7f03943.Emscripten.clang"
  },
  "schemaVersion": "3.4.5",
  "updatedAt": "2022-05-31T22:50:43.834Z",
  "networkType": "ethereum",
  "devdoc": {
    "kind": "dev",
    "methods": {},
    "version": 1
  },
  "userdoc": {
    "kind": "user",
    "methods": {},
    "version": 1
  }
}