{
  "contractName": "RemplissageCol",
  "abi": [
    {
      "inputs": [
        {
          "internalType": "uint256",
          "name": "",
          "type": "uint256"
        }
      ],
      "name": "operationTank2",
      "outputs": [
        {
          "internalType": "uint256",
          "name": "idOpTank",
          "type": "uint256"
        },
        {
          "internalType": "uint256",
          "name": "qteInsereTank",
          "type": "uint256"
        },
        {
          "internalType": "string",
          "name": "date",
          "type": "string"
        },
        {
          "components": [
            {
              "internalType": "uint256",
              "name": "idOperation",
              "type": "uint256"
            },
            {
              "internalType": "uint256",
              "name": "poidsLait",
              "type": "uint256"
            },
            {
              "internalType": "string",
              "name": "dateOperation",
              "type": "string"
            },
            {
              "internalType": "string",
              "name": "typeOp",
              "type": "string"
            },
            {
              "internalType": "uint256",
              "name": "code",
              "type": "uint256"
            },
            {
              "components": [
                {
                  "internalType": "uint256",
                  "name": "idAgriculteur",
                  "type": "uint256"
                },
                {
                  "internalType": "string",
                  "name": "nom",
                  "type": "string"
                },
                {
                  "internalType": "string",
                  "name": "prenom",
                  "type": "string"
                },
                {
                  "internalType": "string",
                  "name": "email",
                  "type": "string"
                },
                {
                  "internalType": "string",
                  "name": "adress",
                  "type": "string"
                },
                {
                  "internalType": "uint256",
                  "name": "tel",
                  "type": "uint256"
                }
              ],
              "internalType": "struct Remplissage.Agriculteur0",
              "name": "agriculteur",
              "type": "tuple"
            },
            {
              "components": [
                {
                  "internalType": "uint256",
                  "name": "idChef",
                  "type": "uint256"
                },
                {
                  "internalType": "string",
                  "name": "nom",
                  "type": "string"
                },
                {
                  "internalType": "string",
                  "name": "prenom",
                  "type": "string"
                },
                {
                  "internalType": "string",
                  "name": "email",
                  "type": "string"
                },
                {
                  "internalType": "string",
                  "name": "adress",
                  "type": "string"
                },
                {
                  "internalType": "uint256",
                  "name": "tel",
                  "type": "uint256"
                },
                {
                  "internalType": "uint256",
                  "name": "cin",
                  "type": "uint256"
                },
                {
                  "internalType": "string",
                  "name": "username",
                  "type": "string"
                },
                {
                  "internalType": "string",
                  "name": "password",
                  "type": "string"
                }
              ],
              "internalType": "struct Remplissage.Chef",
              "name": "chef",
              "type": "tuple"
            }
          ],
          "internalType": "struct Remplissage.Operation0",
          "name": "operation",
          "type": "tuple"
        },
        {
          "components": [
            {
              "internalType": "uint256",
              "name": "idTank",
              "type": "uint256"
            },
            {
              "internalType": "string",
              "name": "matricule",
              "type": "string"
            },
            {
              "internalType": "uint256",
              "name": "poidVide",
              "type": "uint256"
            },
            {
              "internalType": "uint256",
              "name": "poidActuel",
              "type": "uint256"
            },
            {
              "internalType": "string",
              "name": "etat",
              "type": "string"
            }
          ],
          "internalType": "struct Remplissage.Tank",
          "name": "tank",
          "type": "tuple"
        }
      ],
      "stateMutability": "view",
      "type": "function",
      "constant": true
    },
    {
      "inputs": [
        {
          "components": [
            {
              "internalType": "uint256",
              "name": "idOpTank",
              "type": "uint256"
            },
            {
              "internalType": "uint256",
              "name": "qteInsereTank",
              "type": "uint256"
            },
            {
              "internalType": "string",
              "name": "date",
              "type": "string"
            },
            {
              "components": [
                {
                  "internalType": "uint256",
                  "name": "idOperation",
                  "type": "uint256"
                },
                {
                  "internalType": "uint256",
                  "name": "poidsLait",
                  "type": "uint256"
                },
                {
                  "internalType": "string",
                  "name": "dateOperation",
                  "type": "string"
                },
                {
                  "internalType": "string",
                  "name": "typeOp",
                  "type": "string"
                },
                {
                  "internalType": "uint256",
                  "name": "code",
                  "type": "uint256"
                },
                {
                  "components": [
                    {
                      "internalType": "uint256",
                      "name": "idAgriculteur",
                      "type": "uint256"
                    },
                    {
                      "internalType": "string",
                      "name": "nom",
                      "type": "string"
                    },
                    {
                      "internalType": "string",
                      "name": "prenom",
                      "type": "string"
                    },
                    {
                      "internalType": "string",
                      "name": "email",
                      "type": "string"
                    },
                    {
                      "internalType": "string",
                      "name": "adress",
                      "type": "string"
                    },
                    {
                      "internalType": "uint256",
                      "name": "tel",
                      "type": "uint256"
                    }
                  ],
                  "internalType": "struct Remplissage.Agriculteur0",
                  "name": "agriculteur",
                  "type": "tuple"
                },
                {
                  "components": [
                    {
                      "internalType": "uint256",
                      "name": "idChef",
                      "type": "uint256"
                    },
                    {
                      "internalType": "string",
                      "name": "nom",
                      "type": "string"
                    },
                    {
                      "internalType": "string",
                      "name": "prenom",
                      "type": "string"
                    },
                    {
                      "internalType": "string",
                      "name": "email",
                      "type": "string"
                    },
                    {
                      "internalType": "string",
                      "name": "adress",
                      "type": "string"
                    },
                    {
                      "internalType": "uint256",
                      "name": "tel",
                      "type": "uint256"
                    },
                    {
                      "internalType": "uint256",
                      "name": "cin",
                      "type": "uint256"
                    },
                    {
                      "internalType": "string",
                      "name": "username",
                      "type": "string"
                    },
                    {
                      "internalType": "string",
                      "name": "password",
                      "type": "string"
                    }
                  ],
                  "internalType": "struct Remplissage.Chef",
                  "name": "chef",
                  "type": "tuple"
                }
              ],
              "internalType": "struct Remplissage.Operation0",
              "name": "operation",
              "type": "tuple"
            },
            {
              "components": [
                {
                  "internalType": "uint256",
                  "name": "idTank",
                  "type": "uint256"
                },
                {
                  "internalType": "string",
                  "name": "matricule",
                  "type": "string"
                },
                {
                  "internalType": "uint256",
                  "name": "poidVide",
                  "type": "uint256"
                },
                {
                  "internalType": "uint256",
                  "name": "poidActuel",
                  "type": "uint256"
                },
                {
                  "internalType": "string",
                  "name": "etat",
                  "type": "string"
                }
              ],
              "internalType": "struct Remplissage.Tank",
              "name": "tank",
              "type": "tuple"
            }
          ],
          "internalType": "struct Remplissage.OperationTank[]",
          "name": "operationTank",
          "type": "tuple[]"
        },
        {
          "internalType": "uint256",
          "name": "count",
          "type": "uint256"
        }
      ],
      "name": "addOperationTank",
      "outputs": [
        {
          "components": [
            {
              "internalType": "uint256",
              "name": "idOpTank",
              "type": "uint256"
            },
            {
              "internalType": "uint256",
              "name": "qteInsereTank",
              "type": "uint256"
            },
            {
              "internalType": "string",
              "name": "date",
              "type": "string"
            },
            {
              "components": [
                {
                  "internalType": "uint256",
                  "name": "idOperation",
                  "type": "uint256"
                },
                {
                  "internalType": "uint256",
                  "name": "poidsLait",
                  "type": "uint256"
                },
                {
                  "internalType": "string",
                  "name": "dateOperation",
                  "type": "string"
                },
                {
                  "internalType": "string",
                  "name": "typeOp",
                  "type": "string"
                },
                {
                  "internalType": "uint256",
                  "name": "code",
                  "type": "uint256"
                },
                {
                  "components": [
                    {
                      "internalType": "uint256",
                      "name": "idAgriculteur",
                      "type": "uint256"
                    },
                    {
                      "internalType": "string",
                      "name": "nom",
                      "type": "string"
                    },
                    {
                      "internalType": "string",
                      "name": "prenom",
                      "type": "string"
                    },
                    {
                      "internalType": "string",
                      "name": "email",
                      "type": "string"
                    },
                    {
                      "internalType": "string",
                      "name": "adress",
                      "type": "string"
                    },
                    {
                      "internalType": "uint256",
                      "name": "tel",
                      "type": "uint256"
                    }
                  ],
                  "internalType": "struct Remplissage.Agriculteur0",
                  "name": "agriculteur",
                  "type": "tuple"
                },
                {
                  "components": [
                    {
                      "internalType": "uint256",
                      "name": "idChef",
                      "type": "uint256"
                    },
                    {
                      "internalType": "string",
                      "name": "nom",
                      "type": "string"
                    },
                    {
                      "internalType": "string",
                      "name": "prenom",
                      "type": "string"
                    },
                    {
                      "internalType": "string",
                      "name": "email",
                      "type": "string"
                    },
                    {
                      "internalType": "string",
                      "name": "adress",
                      "type": "string"
                    },
                    {
                      "internalType": "uint256",
                      "name": "tel",
                      "type": "uint256"
                    },
                    {
                      "internalType": "uint256",
                      "name": "cin",
                      "type": "uint256"
                    },
                    {
                      "internalType": "string",
                      "name": "username",
                      "type": "string"
                    },
                    {
                      "internalType": "string",
                      "name": "password",
                      "type": "string"
                    }
                  ],
                  "internalType": "struct Remplissage.Chef",
                  "name": "chef",
                  "type": "tuple"
                }
              ],
              "internalType": "struct Remplissage.Operation0",
              "name": "operation",
              "type": "tuple"
            },
            {
              "components": [
                {
                  "internalType": "uint256",
                  "name": "idTank",
                  "type": "uint256"
                },
                {
                  "internalType": "string",
                  "name": "matricule",
                  "type": "string"
                },
                {
                  "internalType": "uint256",
                  "name": "poidVide",
                  "type": "uint256"
                },
                {
                  "internalType": "uint256",
                  "name": "poidActuel",
                  "type": "uint256"
                },
                {
                  "internalType": "string",
                  "name": "etat",
                  "type": "string"
                }
              ],
              "internalType": "struct Remplissage.Tank",
              "name": "tank",
              "type": "tuple"
            }
          ],
          "internalType": "struct Remplissage.OperationTank[]",
          "name": "tt0",
          "type": "tuple[]"
        }
      ],
      "stateMutability": "nonpayable",
      "type": "function"
    },
    {
      "inputs": [],
      "name": "getOperationTanks",
      "outputs": [
        {
          "components": [
            {
              "internalType": "uint256",
              "name": "idOpTank",
              "type": "uint256"
            },
            {
              "internalType": "uint256",
              "name": "qteInsereTank",
              "type": "uint256"
            },
            {
              "internalType": "string",
              "name": "date",
              "type": "string"
            },
            {
              "components": [
                {
                  "internalType": "uint256",
                  "name": "idOperation",
                  "type": "uint256"
                },
                {
                  "internalType": "uint256",
                  "name": "poidsLait",
                  "type": "uint256"
                },
                {
                  "internalType": "string",
                  "name": "dateOperation",
                  "type": "string"
                },
                {
                  "internalType": "string",
                  "name": "typeOp",
                  "type": "string"
                },
                {
                  "internalType": "uint256",
                  "name": "code",
                  "type": "uint256"
                },
                {
                  "components": [
                    {
                      "internalType": "uint256",
                      "name": "idAgriculteur",
                      "type": "uint256"
                    },
                    {
                      "internalType": "string",
                      "name": "nom",
                      "type": "string"
                    },
                    {
                      "internalType": "string",
                      "name": "prenom",
                      "type": "string"
                    },
                    {
                      "internalType": "string",
                      "name": "email",
                      "type": "string"
                    },
                    {
                      "internalType": "string",
                      "name": "adress",
                      "type": "string"
                    },
                    {
                      "internalType": "uint256",
                      "name": "tel",
                      "type": "uint256"
                    }
                  ],
                  "internalType": "struct Remplissage.Agriculteur0",
                  "name": "agriculteur",
                  "type": "tuple"
                },
                {
                  "components": [
                    {
                      "internalType": "uint256",
                      "name": "idChef",
                      "type": "uint256"
                    },
                    {
                      "internalType": "string",
                      "name": "nom",
                      "type": "string"
                    },
                    {
                      "internalType": "string",
                      "name": "prenom",
                      "type": "string"
                    },
                    {
                      "internalType": "string",
                      "name": "email",
                      "type": "string"
                    },
                    {
                      "internalType": "string",
                      "name": "adress",
                      "type": "string"
                    },
                    {
                      "internalType": "uint256",
                      "name": "tel",
                      "type": "uint256"
                    },
                    {
                      "internalType": "uint256",
                      "name": "cin",
                      "type": "uint256"
                    },
                    {
                      "internalType": "string",
                      "name": "username",
                      "type": "string"
                    },
                    {
                      "internalType": "string",
                      "name": "password",
                      "type": "string"
                    }
                  ],
                  "internalType": "struct Remplissage.Chef",
                  "name": "chef",
                  "type": "tuple"
                }
              ],
              "internalType": "struct Remplissage.Operation0",
              "name": "operation",
              "type": "tuple"
            },
            {
              "components": [
                {
                  "internalType": "uint256",
                  "name": "idTank",
                  "type": "uint256"
                },
                {
                  "internalType": "string",
                  "name": "matricule",
                  "type": "string"
                },
                {
                  "internalType": "uint256",
                  "name": "poidVide",
                  "type": "uint256"
                },
                {
                  "internalType": "uint256",
                  "name": "poidActuel",
                  "type": "uint256"
                },
                {
                  "internalType": "string",
                  "name": "etat",
                  "type": "string"
                }
              ],
              "internalType": "struct Remplissage.Tank",
              "name": "tank",
              "type": "tuple"
            }
          ],
          "internalType": "struct Remplissage.OperationTank[]",
          "name": "result",
          "type": "tuple[]"
        }
      ],
      "stateMutability": "view",
      "type": "function",
      "constant": true
    }
  ],
  "bytecode": "0x608060405234801561001057600080fd5b50613175806100206000396000f3fe608060405234801561001057600080fd5b50600436106100415760003560e01c80632fca55291461004657806392932c0a1461007a578063c9c28e0f146100aa575b600080fd5b610060600480360381019061005b9190612176565b6100c8565b604051610071959493929190612558565b60405180910390f35b610094600480360381019061008f9190612d45565b610a3d565b6040516100a19190613015565b60405180910390f35b6100b26116c9565b6040516100bf9190613015565b60405180910390f35b600081815481106100d857600080fd5b90600052602060002090601c020160009150905080600001549080600101549080600201805461010790613066565b80601f016020809104026020016040519081016040528092919081815260200182805461013390613066565b80156101805780601f1061015557610100808354040283529160200191610180565b820191906000526020600020905b81548152906001019060200180831161016357829003601f168201915b505050505090806003016040518060e001604052908160008201548152602001600182015481526020016002820180546101b990613066565b80601f01602080910402602001604051908101604052809291908181526020018280546101e590613066565b80156102325780601f1061020757610100808354040283529160200191610232565b820191906000526020600020905b81548152906001019060200180831161021557829003601f168201915b5050505050815260200160038201805461024b90613066565b80601f016020809104026020016040519081016040528092919081815260200182805461027790613066565b80156102c45780601f10610299576101008083540402835291602001916102c4565b820191906000526020600020905b8154815290600101906020018083116102a757829003601f168201915b5050505050815260200160048201548152602001600582016040518060c00160405290816000820154815260200160018201805461030190613066565b80601f016020809104026020016040519081016040528092919081815260200182805461032d90613066565b801561037a5780601f1061034f5761010080835404028352916020019161037a565b820191906000526020600020905b81548152906001019060200180831161035d57829003601f168201915b5050505050815260200160028201805461039390613066565b80601f01602080910402602001604051908101604052809291908181526020018280546103bf90613066565b801561040c5780601f106103e15761010080835404028352916020019161040c565b820191906000526020600020905b8154815290600101906020018083116103ef57829003601f168201915b5050505050815260200160038201805461042590613066565b80601f016020809104026020016040519081016040528092919081815260200182805461045190613066565b801561049e5780601f106104735761010080835404028352916020019161049e565b820191906000526020600020905b81548152906001019060200180831161048157829003601f168201915b505050505081526020016004820180546104b790613066565b80601f01602080910402602001604051908101604052809291908181526020018280546104e390613066565b80156105305780601f1061050557610100808354040283529160200191610530565b820191906000526020600020905b81548152906001019060200180831161051357829003601f168201915b505050505081526020016005820154815250508152602001600b8201604051806101200160405290816000820154815260200160018201805461057290613066565b80601f016020809104026020016040519081016040528092919081815260200182805461059e90613066565b80156105eb5780601f106105c0576101008083540402835291602001916105eb565b820191906000526020600020905b8154815290600101906020018083116105ce57829003601f168201915b5050505050815260200160028201805461060490613066565b80601f016020809104026020016040519081016040528092919081815260200182805461063090613066565b801561067d5780601f106106525761010080835404028352916020019161067d565b820191906000526020600020905b81548152906001019060200180831161066057829003601f168201915b5050505050815260200160038201805461069690613066565b80601f01602080910402602001604051908101604052809291908181526020018280546106c290613066565b801561070f5780601f106106e45761010080835404028352916020019161070f565b820191906000526020600020905b8154815290600101906020018083116106f257829003601f168201915b5050505050815260200160048201805461072890613066565b80601f016020809104026020016040519081016040528092919081815260200182805461075490613066565b80156107a15780601f10610776576101008083540402835291602001916107a1565b820191906000526020600020905b81548152906001019060200180831161078457829003601f168201915b5050505050815260200160058201548152602001600682015481526020016007820180546107ce90613066565b80601f01602080910402602001604051908101604052809291908181526020018280546107fa90613066565b80156108475780601f1061081c57610100808354040283529160200191610847565b820191906000526020600020905b81548152906001019060200180831161082a57829003601f168201915b5050505050815260200160088201805461086090613066565b80601f016020809104026020016040519081016040528092919081815260200182805461088c90613066565b80156108d95780601f106108ae576101008083540402835291602001916108d9565b820191906000526020600020905b8154815290600101906020018083116108bc57829003601f168201915b5050505050815250508152505090806017016040518060a00160405290816000820154815260200160018201805461091090613066565b80601f016020809104026020016040519081016040528092919081815260200182805461093c90613066565b80156109895780601f1061095e57610100808354040283529160200191610989565b820191906000526020600020905b81548152906001019060200180831161096c57829003601f168201915b5050505050815260200160028201548152602001600382015481526020016004820180546109b690613066565b80601f01602080910402602001604051908101604052809291908181526020018280546109e290613066565b8015610a2f5780601f10610a0457610100808354040283529160200191610a2f565b820191906000526020600020905b815481529060010190602001808311610a1257829003601f168201915b505050505081525050905085565b606060005b82811015610d07576000848281518110610a5f57610a5e613098565b5b602002602001015190806001815401808255809150506001900390600052602060002090601c020160009091909190915060008201518160000155602082015181600101556040820151816002019080519060200190610ac0929190612089565b5060608201518160030160008201518160000155602082015181600101556040820151816002019080519060200190610afa929190612089565b506060820151816003019080519060200190610b17929190612089565b506080820151816004015560a082015181600501600082015181600001556020820151816001019080519060200190610b51929190612089565b506040820151816002019080519060200190610b6e929190612089565b506060820151816003019080519060200190610b8b929190612089565b506080820151816004019080519060200190610ba8929190612089565b5060a08201518160050155505060c082015181600b01600082015181600001556020820151816001019080519060200190610be4929190612089565b506040820151816002019080519060200190610c01929190612089565b506060820151816003019080519060200190610c1e929190612089565b506080820151816004019080519060200190610c3b929190612089565b5060a0820151816005015560c0820151816006015560e0820151816007019080519060200190610c6c929190612089565b50610100820151816008019080519060200190610c8a929190612089565b5050505050608082015181601701600082015181600001556020820151816001019080519060200190610cbe929190612089565b5060408201518160020155606082015181600301556080820151816004019080519060200190610cef929190612089565b50505050508080610cff906130f6565b915050610a42565b506000805480602002602001604051908101604052809291908181526020016000905b828210156116bd57838290600052602060002090601c02016040518060a00160405290816000820154815260200160018201548152602001600282018054610d7190613066565b80601f0160208091040260200160405190810160405280929190818152602001828054610d9d90613066565b8015610dea5780601f10610dbf57610100808354040283529160200191610dea565b820191906000526020600020905b815481529060010190602001808311610dcd57829003601f168201915b50505050508152602001600382016040518060e00160405290816000820154815260200160018201548152602001600282018054610e2790613066565b80601f0160208091040260200160405190810160405280929190818152602001828054610e5390613066565b8015610ea05780601f10610e7557610100808354040283529160200191610ea0565b820191906000526020600020905b815481529060010190602001808311610e8357829003601f168201915b50505050508152602001600382018054610eb990613066565b80601f0160208091040260200160405190810160405280929190818152602001828054610ee590613066565b8015610f325780601f10610f0757610100808354040283529160200191610f32565b820191906000526020600020905b815481529060010190602001808311610f1557829003601f168201915b5050505050815260200160048201548152602001600582016040518060c001604052908160008201548152602001600182018054610f6f90613066565b80601f0160208091040260200160405190810160405280929190818152602001828054610f9b90613066565b8015610fe85780601f10610fbd57610100808354040283529160200191610fe8565b820191906000526020600020905b815481529060010190602001808311610fcb57829003601f168201915b5050505050815260200160028201805461100190613066565b80601f016020809104026020016040519081016040528092919081815260200182805461102d90613066565b801561107a5780601f1061104f5761010080835404028352916020019161107a565b820191906000526020600020905b81548152906001019060200180831161105d57829003601f168201915b5050505050815260200160038201805461109390613066565b80601f01602080910402602001604051908101604052809291908181526020018280546110bf90613066565b801561110c5780601f106110e15761010080835404028352916020019161110c565b820191906000526020600020905b8154815290600101906020018083116110ef57829003601f168201915b5050505050815260200160048201805461112590613066565b80601f016020809104026020016040519081016040528092919081815260200182805461115190613066565b801561119e5780601f106111735761010080835404028352916020019161119e565b820191906000526020600020905b81548152906001019060200180831161118157829003601f168201915b505050505081526020016005820154815250508152602001600b820160405180610120016040529081600082015481526020016001820180546111e090613066565b80601f016020809104026020016040519081016040528092919081815260200182805461120c90613066565b80156112595780601f1061122e57610100808354040283529160200191611259565b820191906000526020600020905b81548152906001019060200180831161123c57829003601f168201915b5050505050815260200160028201805461127290613066565b80601f016020809104026020016040519081016040528092919081815260200182805461129e90613066565b80156112eb5780601f106112c0576101008083540402835291602001916112eb565b820191906000526020600020905b8154815290600101906020018083116112ce57829003601f168201915b5050505050815260200160038201805461130490613066565b80601f016020809104026020016040519081016040528092919081815260200182805461133090613066565b801561137d5780601f106113525761010080835404028352916020019161137d565b820191906000526020600020905b81548152906001019060200180831161136057829003601f168201915b5050505050815260200160048201805461139690613066565b80601f01602080910402602001604051908101604052809291908181526020018280546113c290613066565b801561140f5780601f106113e45761010080835404028352916020019161140f565b820191906000526020600020905b8154815290600101906020018083116113f257829003601f168201915b50505050508152602001600582015481526020016006820154815260200160078201805461143c90613066565b80601f016020809104026020016040519081016040528092919081815260200182805461146890613066565b80156114b55780601f1061148a576101008083540402835291602001916114b5565b820191906000526020600020905b81548152906001019060200180831161149857829003601f168201915b505050505081526020016008820180546114ce90613066565b80601f01602080910402602001604051908101604052809291908181526020018280546114fa90613066565b80156115475780601f1061151c57610100808354040283529160200191611547565b820191906000526020600020905b81548152906001019060200180831161152a57829003601f168201915b505050505081525050815250508152602001601782016040518060a00160405290816000820154815260200160018201805461158290613066565b80601f01602080910402602001604051908101604052809291908181526020018280546115ae90613066565b80156115fb5780601f106115d0576101008083540402835291602001916115fb565b820191906000526020600020905b8154815290600101906020018083116115de57829003601f168201915b50505050508152602001600282015481526020016003820154815260200160048201805461162890613066565b80601f016020809104026020016040519081016040528092919081815260200182805461165490613066565b80156116a15780601f10611676576101008083540402835291602001916116a1565b820191906000526020600020905b81548152906001019060200180831161168457829003601f168201915b5050505050815250508152505081526020019060010190610d2a565b50505050905092915050565b60606000805480602002602001604051908101604052809291908181526020016000905b8282101561208057838290600052602060002090601c02016040518060a0016040529081600082015481526020016001820154815260200160028201805461173490613066565b80601f016020809104026020016040519081016040528092919081815260200182805461176090613066565b80156117ad5780601f10611782576101008083540402835291602001916117ad565b820191906000526020600020905b81548152906001019060200180831161179057829003601f168201915b50505050508152602001600382016040518060e001604052908160008201548152602001600182015481526020016002820180546117ea90613066565b80601f016020809104026020016040519081016040528092919081815260200182805461181690613066565b80156118635780601f1061183857610100808354040283529160200191611863565b820191906000526020600020905b81548152906001019060200180831161184657829003601f168201915b5050505050815260200160038201805461187c90613066565b80601f01602080910402602001604051908101604052809291908181526020018280546118a890613066565b80156118f55780601f106118ca576101008083540402835291602001916118f5565b820191906000526020600020905b8154815290600101906020018083116118d857829003601f168201915b5050505050815260200160048201548152602001600582016040518060c00160405290816000820154815260200160018201805461193290613066565b80601f016020809104026020016040519081016040528092919081815260200182805461195e90613066565b80156119ab5780601f10611980576101008083540402835291602001916119ab565b820191906000526020600020905b81548152906001019060200180831161198e57829003601f168201915b505050505081526020016002820180546119c490613066565b80601f01602080910402602001604051908101604052809291908181526020018280546119f090613066565b8015611a3d5780601f10611a1257610100808354040283529160200191611a3d565b820191906000526020600020905b815481529060010190602001808311611a2057829003601f168201915b50505050508152602001600382018054611a5690613066565b80601f0160208091040260200160405190810160405280929190818152602001828054611a8290613066565b8015611acf5780601f10611aa457610100808354040283529160200191611acf565b820191906000526020600020905b815481529060010190602001808311611ab257829003601f168201915b50505050508152602001600482018054611ae890613066565b80601f0160208091040260200160405190810160405280929190818152602001828054611b1490613066565b8015611b615780601f10611b3657610100808354040283529160200191611b61565b820191906000526020600020905b815481529060010190602001808311611b4457829003601f168201915b505050505081526020016005820154815250508152602001600b82016040518061012001604052908160008201548152602001600182018054611ba390613066565b80601f0160208091040260200160405190810160405280929190818152602001828054611bcf90613066565b8015611c1c5780601f10611bf157610100808354040283529160200191611c1c565b820191906000526020600020905b815481529060010190602001808311611bff57829003601f168201915b50505050508152602001600282018054611c3590613066565b80601f0160208091040260200160405190810160405280929190818152602001828054611c6190613066565b8015611cae5780601f10611c8357610100808354040283529160200191611cae565b820191906000526020600020905b815481529060010190602001808311611c9157829003601f168201915b50505050508152602001600382018054611cc790613066565b80601f0160208091040260200160405190810160405280929190818152602001828054611cf390613066565b8015611d405780601f10611d1557610100808354040283529160200191611d40565b820191906000526020600020905b815481529060010190602001808311611d2357829003601f168201915b50505050508152602001600482018054611d5990613066565b80601f0160208091040260200160405190810160405280929190818152602001828054611d8590613066565b8015611dd25780601f10611da757610100808354040283529160200191611dd2565b820191906000526020600020905b815481529060010190602001808311611db557829003601f168201915b505050505081526020016005820154815260200160068201548152602001600782018054611dff90613066565b80601f0160208091040260200160405190810160405280929190818152602001828054611e2b90613066565b8015611e785780601f10611e4d57610100808354040283529160200191611e78565b820191906000526020600020905b815481529060010190602001808311611e5b57829003601f168201915b50505050508152602001600882018054611e9190613066565b80601f0160208091040260200160405190810160405280929190818152602001828054611ebd90613066565b8015611f0a5780601f10611edf57610100808354040283529160200191611f0a565b820191906000526020600020905b815481529060010190602001808311611eed57829003601f168201915b505050505081525050815250508152602001601782016040518060a001604052908160008201548152602001600182018054611f4590613066565b80601f0160208091040260200160405190810160405280929190818152602001828054611f7190613066565b8015611fbe5780601f10611f9357610100808354040283529160200191611fbe565b820191906000526020600020905b815481529060010190602001808311611fa157829003601f168201915b505050505081526020016002820154815260200160038201548152602001600482018054611feb90613066565b80601f016020809104026020016040519081016040528092919081815260200182805461201790613066565b80156120645780601f1061203957610100808354040283529160200191612064565b820191906000526020600020905b81548152906001019060200180831161204757829003601f168201915b50505050508152505081525050815260200190600101906116ed565b50505050905090565b82805461209590613066565b90600052602060002090601f0160209004810192826120b757600085556120fe565b82601f106120d057805160ff19168380011785556120fe565b828001600101855582156120fe579182015b828111156120fd5782518255916020019190600101906120e2565b5b50905061210b919061210f565b5090565b5b80821115612128576000816000905550600101612110565b5090565b6000604051905090565b600080fd5b600080fd5b6000819050919050565b61215381612140565b811461215e57600080fd5b50565b6000813590506121708161214a565b92915050565b60006020828403121561218c5761218b612136565b5b600061219a84828501612161565b91505092915050565b6121ac81612140565b82525050565b600081519050919050565b600082825260208201905092915050565b60005b838110156121ec5780820151818401526020810190506121d1565b838111156121fb576000848401525b50505050565b6000601f19601f8301169050919050565b600061221d826121b2565b61222781856121bd565b93506122378185602086016121ce565b61224081612201565b840191505092915050565b61225481612140565b82525050565b600082825260208201905092915050565b6000612276826121b2565b612280818561225a565b93506122908185602086016121ce565b61229981612201565b840191505092915050565b600060c0830160008301516122bc600086018261224b565b50602083015184820360208601526122d4828261226b565b915050604083015184820360408601526122ee828261226b565b91505060608301518482036060860152612308828261226b565b91505060808301518482036080860152612322828261226b565b91505060a083015161233760a086018261224b565b508091505092915050565b60006101208301600083015161235b600086018261224b565b5060208301518482036020860152612373828261226b565b9150506040830151848203604086015261238d828261226b565b915050606083015184820360608601526123a7828261226b565b915050608083015184820360808601526123c1828261226b565b91505060a08301516123d660a086018261224b565b5060c08301516123e960c086018261224b565b5060e083015184820360e0860152612401828261226b565b91505061010083015184820361010086015261241d828261226b565b9150508091505092915050565b600060e083016000830151612442600086018261224b565b506020830151612455602086018261224b565b506040830151848203604086015261246d828261226b565b91505060608301518482036060860152612487828261226b565b915050608083015161249c608086018261224b565b5060a083015184820360a08601526124b482826122a4565b91505060c083015184820360c08601526124ce8282612342565b9150508091505092915050565b600060a0830160008301516124f3600086018261224b565b506020830151848203602086015261250b828261226b565b9150506040830151612520604086018261224b565b506060830151612533606086018261224b565b506080830151848203608086015261254b828261226b565b9150508091505092915050565b600060a08201905061256d60008301886121a3565b61257a60208301876121a3565b818103604083015261258c8186612212565b905081810360608301526125a0818561242a565b905081810360808301526125b481846124db565b90509695505050505050565b600080fd5b7f4e487b7100000000000000000000000000000000000000000000000000000000600052604160045260246000fd5b6125fd82612201565b810181811067ffffffffffffffff8211171561261c5761261b6125c5565b5b80604052505050565b600061262f61212c565b905061263b82826125f4565b919050565b600067ffffffffffffffff82111561265b5761265a6125c5565b5b602082029050602081019050919050565b600080fd5b600080fd5b600080fd5b600080fd5b600067ffffffffffffffff82111561269b5761269a6125c5565b5b6126a482612201565b9050602081019050919050565b82818337600083830152505050565b60006126d36126ce84612680565b612625565b9050828152602081018484840111156126ef576126ee61267b565b5b6126fa8482856126b1565b509392505050565b600082601f830112612717576127166125c0565b5b81356127278482602086016126c0565b91505092915050565b600060c0828403121561274657612745612671565b5b61275060c0612625565b9050600061276084828501612161565b600083015250602082013567ffffffffffffffff81111561278457612783612676565b5b61279084828501612702565b602083015250604082013567ffffffffffffffff8111156127b4576127b3612676565b5b6127c084828501612702565b604083015250606082013567ffffffffffffffff8111156127e4576127e3612676565b5b6127f084828501612702565b606083015250608082013567ffffffffffffffff81111561281457612813612676565b5b61282084828501612702565b60808301525060a061283484828501612161565b60a08301525092915050565b6000610120828403121561285757612856612671565b5b612862610120612625565b9050600061287284828501612161565b600083015250602082013567ffffffffffffffff81111561289657612895612676565b5b6128a284828501612702565b602083015250604082013567ffffffffffffffff8111156128c6576128c5612676565b5b6128d284828501612702565b604083015250606082013567ffffffffffffffff8111156128f6576128f5612676565b5b61290284828501612702565b606083015250608082013567ffffffffffffffff81111561292657612925612676565b5b61293284828501612702565b60808301525060a061294684828501612161565b60a08301525060c061295a84828501612161565b60c08301525060e082013567ffffffffffffffff81111561297e5761297d612676565b5b61298a84828501612702565b60e08301525061010082013567ffffffffffffffff8111156129af576129ae612676565b5b6129bb84828501612702565b6101008301525092915050565b600060e082840312156129de576129dd612671565b5b6129e860e0612625565b905060006129f884828501612161565b6000830152506020612a0c84828501612161565b602083015250604082013567ffffffffffffffff811115612a3057612a2f612676565b5b612a3c84828501612702565b604083015250606082013567ffffffffffffffff811115612a6057612a5f612676565b5b612a6c84828501612702565b6060830152506080612a8084828501612161565b60808301525060a082013567ffffffffffffffff811115612aa457612aa3612676565b5b612ab084828501612730565b60a08301525060c082013567ffffffffffffffff811115612ad457612ad3612676565b5b612ae084828501612840565b60c08301525092915050565b600060a08284031215612b0257612b01612671565b5b612b0c60a0612625565b90506000612b1c84828501612161565b600083015250602082013567ffffffffffffffff811115612b4057612b3f612676565b5b612b4c84828501612702565b6020830152506040612b6084828501612161565b6040830152506060612b7484828501612161565b606083015250608082013567ffffffffffffffff811115612b9857612b97612676565b5b612ba484828501612702565b60808301525092915050565b600060a08284031215612bc657612bc5612671565b5b612bd060a0612625565b90506000612be084828501612161565b6000830152506020612bf484828501612161565b602083015250604082013567ffffffffffffffff811115612c1857612c17612676565b5b612c2484828501612702565b604083015250606082013567ffffffffffffffff811115612c4857612c47612676565b5b612c54848285016129c8565b606083015250608082013567ffffffffffffffff811115612c7857612c77612676565b5b612c8484828501612aec565b60808301525092915050565b6000612ca3612c9e84612640565b612625565b90508083825260208201905060208402830185811115612cc657612cc561266c565b5b835b81811015612d0d57803567ffffffffffffffff811115612ceb57612cea6125c0565b5b808601612cf88982612bb0565b85526020850194505050602081019050612cc8565b5050509392505050565b600082601f830112612d2c57612d2b6125c0565b5b8135612d3c848260208601612c90565b91505092915050565b60008060408385031215612d5c57612d5b612136565b5b600083013567ffffffffffffffff811115612d7a57612d7961213b565b5b612d8685828601612d17565b9250506020612d9785828601612161565b9150509250929050565b600081519050919050565b600082825260208201905092915050565b6000819050602082019050919050565b600060e083016000830151612de5600086018261224b565b506020830151612df8602086018261224b565b5060408301518482036040860152612e10828261226b565b91505060608301518482036060860152612e2a828261226b565b9150506080830151612e3f608086018261224b565b5060a083015184820360a0860152612e5782826122a4565b91505060c083015184820360c0860152612e718282612342565b9150508091505092915050565b600060a083016000830151612e96600086018261224b565b5060208301518482036020860152612eae828261226b565b9150506040830151612ec3604086018261224b565b506060830151612ed6606086018261224b565b5060808301518482036080860152612eee828261226b565b9150508091505092915050565b600060a083016000830151612f13600086018261224b565b506020830151612f26602086018261224b565b5060408301518482036040860152612f3e828261226b565b91505060608301518482036060860152612f588282612dcd565b91505060808301518482036080860152612f728282612e7e565b9150508091505092915050565b6000612f8b8383612efb565b905092915050565b6000602082019050919050565b6000612fab82612da1565b612fb58185612dac565b935083602082028501612fc785612dbd565b8060005b858110156130035784840389528151612fe48582612f7f565b9450612fef83612f93565b925060208a01995050600181019050612fcb565b50829750879550505050505092915050565b6000602082019050818103600083015261302f8184612fa0565b905092915050565b7f4e487b7100000000000000000000000000000000000000000000000000000000600052602260045260246000fd5b6000600282049050600182168061307e57607f821691505b6020821081141561309257613091613037565b5b50919050565b7f4e487b7100000000000000000000000000000000000000000000000000000000600052603260045260246000fd5b7f4e487b7100000000000000000000000000000000000000000000000000000000600052601160045260246000fd5b600061310182612140565b91507fffffffffffffffffffffffffffffffffffffffffffffffffffffffffffffffff821415613134576131336130c7565b5b60018201905091905056fea2646970667358221220fbae49d8f330c90a8dd89f23976a96b86fa5fe3172875aa59c9574c34692396c64736f6c634300080b0033",
  "immutableReferences": {},
  "source": "// SPDX-License-Identifier: MIT\r\npragma solidity >=0.4.22 <0.9.0;\r\nimport \"./Remplissage.sol\";\r\ncontract RemplissageCol is Remplissage{\r\n//*********************************************************************************/\r\n//second app \r\n//******************************************************************************/\r\n\r\nOperationTank[] public operationTank2;\r\n  function addOperationTank(OperationTank[] memory operationTank,uint count) \r\n   public returns (OperationTank[] memory tt0) {\r\n\r\n   for (uint256 i = 0; i < count ; i++) {\r\n   operationTank2.push(operationTank[i]);\r\n}\r\n    return (operationTank2);\r\n  }\r\n\r\n    //get all operations \r\n  \r\n  function getOperationTanks() public view returns (OperationTank[] memory result ) {\r\n    return operationTank2;\r\n  }\r\n}\r\n",
  "sourcePath": "C:\\Users\\ASUS\\Desktop\\pfe\\PFE_Project2022(usine)\\PFE-FrontEnd\\contracts\\RemplissageCol.sol",
  "compiler": {
    "name": "solc",
    "version": "0.8.11+commit.d7f03943.Emscripten.clang"
  },
  "schemaVersion": "3.4.5",
  "updatedAt": "2022-04-22T02:13:54.594Z",
  "networkType": "ethereum",
  "devdoc": {
    "kind": "dev",
    "methods": {},
    "version": 1
  },
  "userdoc": {
    "kind": "user",
    "methods": {},
    "version": 1
  }
}