{
  "contractName": "RemplissageUsine",
  "abi": [
    {
      "inputs": [
        {
          "internalType": "uint256",
          "name": "",
          "type": "uint256"
        }
      ],
      "name": "operationTank2",
      "outputs": [
        {
          "internalType": "uint256",
          "name": "idOpTank",
          "type": "uint256"
        },
        {
          "internalType": "uint256",
          "name": "qteInsereTank",
          "type": "uint256"
        },
        {
          "internalType": "string",
          "name": "date",
          "type": "string"
        },
        {
          "components": [
            {
              "internalType": "uint256",
              "name": "idOperation",
              "type": "uint256"
            },
            {
              "internalType": "uint256",
              "name": "poidsLait",
              "type": "uint256"
            },
            {
              "internalType": "string",
              "name": "dateOperation",
              "type": "string"
            },
            {
              "internalType": "string",
              "name": "typeOp",
              "type": "string"
            },
            {
              "internalType": "uint256",
              "name": "code",
              "type": "uint256"
            },
            {
              "components": [
                {
                  "internalType": "uint256",
                  "name": "idCentre",
                  "type": "uint256"
                },
                {
                  "internalType": "string",
                  "name": "nomCentre",
                  "type": "string"
                },
                {
                  "internalType": "string",
                  "name": "adresse",
                  "type": "string"
                },
                {
                  "internalType": "string",
                  "name": "ville",
                  "type": "string"
                }
              ],
              "internalType": "struct Remplissage.Centre",
              "name": "centreCollecte",
              "type": "tuple"
            }
          ],
          "internalType": "struct Remplissage.Operation03",
          "name": "operation",
          "type": "tuple"
        },
        {
          "components": [
            {
              "internalType": "uint256",
              "name": "idTank",
              "type": "uint256"
            },
            {
              "internalType": "string",
              "name": "matricule",
              "type": "string"
            },
            {
              "internalType": "uint256",
              "name": "poidVide",
              "type": "uint256"
            },
            {
              "internalType": "uint256",
              "name": "poidActuel",
              "type": "uint256"
            },
            {
              "internalType": "string",
              "name": "etat",
              "type": "string"
            }
          ],
          "internalType": "struct Remplissage.Tank",
          "name": "tank",
          "type": "tuple"
        }
      ],
      "stateMutability": "view",
      "type": "function",
      "constant": true
    },
    {
      "inputs": [
        {
          "components": [
            {
              "internalType": "uint256",
              "name": "idOpTank",
              "type": "uint256"
            },
            {
              "internalType": "uint256",
              "name": "qteInsereTank",
              "type": "uint256"
            },
            {
              "internalType": "string",
              "name": "date",
              "type": "string"
            },
            {
              "components": [
                {
                  "internalType": "uint256",
                  "name": "idOperation",
                  "type": "uint256"
                },
                {
                  "internalType": "uint256",
                  "name": "poidsLait",
                  "type": "uint256"
                },
                {
                  "internalType": "string",
                  "name": "dateOperation",
                  "type": "string"
                },
                {
                  "internalType": "string",
                  "name": "typeOp",
                  "type": "string"
                },
                {
                  "internalType": "uint256",
                  "name": "code",
                  "type": "uint256"
                },
                {
                  "components": [
                    {
                      "internalType": "uint256",
                      "name": "idCentre",
                      "type": "uint256"
                    },
                    {
                      "internalType": "string",
                      "name": "nomCentre",
                      "type": "string"
                    },
                    {
                      "internalType": "string",
                      "name": "adresse",
                      "type": "string"
                    },
                    {
                      "internalType": "string",
                      "name": "ville",
                      "type": "string"
                    }
                  ],
                  "internalType": "struct Remplissage.Centre",
                  "name": "centreCollecte",
                  "type": "tuple"
                }
              ],
              "internalType": "struct Remplissage.Operation03",
              "name": "operation",
              "type": "tuple"
            },
            {
              "components": [
                {
                  "internalType": "uint256",
                  "name": "idTank",
                  "type": "uint256"
                },
                {
                  "internalType": "string",
                  "name": "matricule",
                  "type": "string"
                },
                {
                  "internalType": "uint256",
                  "name": "poidVide",
                  "type": "uint256"
                },
                {
                  "internalType": "uint256",
                  "name": "poidActuel",
                  "type": "uint256"
                },
                {
                  "internalType": "string",
                  "name": "etat",
                  "type": "string"
                }
              ],
              "internalType": "struct Remplissage.Tank",
              "name": "tank",
              "type": "tuple"
            }
          ],
          "internalType": "struct Remplissage.OperationTank03[]",
          "name": "operationTank",
          "type": "tuple[]"
        },
        {
          "internalType": "uint256",
          "name": "count",
          "type": "uint256"
        }
      ],
      "name": "addOperationTankUsine",
      "outputs": [
        {
          "components": [
            {
              "internalType": "uint256",
              "name": "idOpTank",
              "type": "uint256"
            },
            {
              "internalType": "uint256",
              "name": "qteInsereTank",
              "type": "uint256"
            },
            {
              "internalType": "string",
              "name": "date",
              "type": "string"
            },
            {
              "components": [
                {
                  "internalType": "uint256",
                  "name": "idOperation",
                  "type": "uint256"
                },
                {
                  "internalType": "uint256",
                  "name": "poidsLait",
                  "type": "uint256"
                },
                {
                  "internalType": "string",
                  "name": "dateOperation",
                  "type": "string"
                },
                {
                  "internalType": "string",
                  "name": "typeOp",
                  "type": "string"
                },
                {
                  "internalType": "uint256",
                  "name": "code",
                  "type": "uint256"
                },
                {
                  "components": [
                    {
                      "internalType": "uint256",
                      "name": "idCentre",
                      "type": "uint256"
                    },
                    {
                      "internalType": "string",
                      "name": "nomCentre",
                      "type": "string"
                    },
                    {
                      "internalType": "string",
                      "name": "adresse",
                      "type": "string"
                    },
                    {
                      "internalType": "string",
                      "name": "ville",
                      "type": "string"
                    }
                  ],
                  "internalType": "struct Remplissage.Centre",
                  "name": "centreCollecte",
                  "type": "tuple"
                }
              ],
              "internalType": "struct Remplissage.Operation03",
              "name": "operation",
              "type": "tuple"
            },
            {
              "components": [
                {
                  "internalType": "uint256",
                  "name": "idTank",
                  "type": "uint256"
                },
                {
                  "internalType": "string",
                  "name": "matricule",
                  "type": "string"
                },
                {
                  "internalType": "uint256",
                  "name": "poidVide",
                  "type": "uint256"
                },
                {
                  "internalType": "uint256",
                  "name": "poidActuel",
                  "type": "uint256"
                },
                {
                  "internalType": "string",
                  "name": "etat",
                  "type": "string"
                }
              ],
              "internalType": "struct Remplissage.Tank",
              "name": "tank",
              "type": "tuple"
            }
          ],
          "internalType": "struct Remplissage.OperationTank03[]",
          "name": "tt0",
          "type": "tuple[]"
        }
      ],
      "stateMutability": "nonpayable",
      "type": "function"
    },
    {
      "inputs": [],
      "name": "getOperationTanksUsine",
      "outputs": [
        {
          "components": [
            {
              "internalType": "uint256",
              "name": "idOpTank",
              "type": "uint256"
            },
            {
              "internalType": "uint256",
              "name": "qteInsereTank",
              "type": "uint256"
            },
            {
              "internalType": "string",
              "name": "date",
              "type": "string"
            },
            {
              "components": [
                {
                  "internalType": "uint256",
                  "name": "idOperation",
                  "type": "uint256"
                },
                {
                  "internalType": "uint256",
                  "name": "poidsLait",
                  "type": "uint256"
                },
                {
                  "internalType": "string",
                  "name": "dateOperation",
                  "type": "string"
                },
                {
                  "internalType": "string",
                  "name": "typeOp",
                  "type": "string"
                },
                {
                  "internalType": "uint256",
                  "name": "code",
                  "type": "uint256"
                },
                {
                  "components": [
                    {
                      "internalType": "uint256",
                      "name": "idCentre",
                      "type": "uint256"
                    },
                    {
                      "internalType": "string",
                      "name": "nomCentre",
                      "type": "string"
                    },
                    {
                      "internalType": "string",
                      "name": "adresse",
                      "type": "string"
                    },
                    {
                      "internalType": "string",
                      "name": "ville",
                      "type": "string"
                    }
                  ],
                  "internalType": "struct Remplissage.Centre",
                  "name": "centreCollecte",
                  "type": "tuple"
                }
              ],
              "internalType": "struct Remplissage.Operation03",
              "name": "operation",
              "type": "tuple"
            },
            {
              "components": [
                {
                  "internalType": "uint256",
                  "name": "idTank",
                  "type": "uint256"
                },
                {
                  "internalType": "string",
                  "name": "matricule",
                  "type": "string"
                },
                {
                  "internalType": "uint256",
                  "name": "poidVide",
                  "type": "uint256"
                },
                {
                  "internalType": "uint256",
                  "name": "poidActuel",
                  "type": "uint256"
                },
                {
                  "internalType": "string",
                  "name": "etat",
                  "type": "string"
                }
              ],
              "internalType": "struct Remplissage.Tank",
              "name": "tank",
              "type": "tuple"
            }
          ],
          "internalType": "struct Remplissage.OperationTank03[]",
          "name": "result",
          "type": "tuple[]"
        }
      ],
      "stateMutability": "view",
      "type": "function",
      "constant": true
    }
  ],
  "bytecode": "0x608060405234801561001057600080fd5b50612080806100206000396000f3fe608060405234801561001057600080fd5b50600436106100415760003560e01c80632fca552914610046578063944362501461007a578063c279123a146100aa575b600080fd5b610060600480360381019061005b91906113c6565b6100c8565b604051610071959493929190611679565b60405180910390f35b610094600480360381019061008f9190611c6a565b610602565b6040516100a19190611f20565b60405180910390f35b6100b2610d54565b6040516100bf9190611f20565b60405180910390f35b600081815481106100d857600080fd5b906000526020600020906011020160009150905080600001549080600101549080600201805461010790611f71565b80601f016020809104026020016040519081016040528092919081815260200182805461013390611f71565b80156101805780601f1061015557610100808354040283529160200191610180565b820191906000526020600020905b81548152906001019060200180831161016357829003601f168201915b505050505090806003016040518060c001604052908160008201548152602001600182015481526020016002820180546101b990611f71565b80601f01602080910402602001604051908101604052809291908181526020018280546101e590611f71565b80156102325780601f1061020757610100808354040283529160200191610232565b820191906000526020600020905b81548152906001019060200180831161021557829003601f168201915b5050505050815260200160038201805461024b90611f71565b80601f016020809104026020016040519081016040528092919081815260200182805461027790611f71565b80156102c45780601f10610299576101008083540402835291602001916102c4565b820191906000526020600020905b8154815290600101906020018083116102a757829003601f168201915b5050505050815260200160048201548152602001600582016040518060800160405290816000820154815260200160018201805461030190611f71565b80601f016020809104026020016040519081016040528092919081815260200182805461032d90611f71565b801561037a5780601f1061034f5761010080835404028352916020019161037a565b820191906000526020600020905b81548152906001019060200180831161035d57829003601f168201915b5050505050815260200160028201805461039390611f71565b80601f01602080910402602001604051908101604052809291908181526020018280546103bf90611f71565b801561040c5780601f106103e15761010080835404028352916020019161040c565b820191906000526020600020905b8154815290600101906020018083116103ef57829003601f168201915b5050505050815260200160038201805461042590611f71565b80601f016020809104026020016040519081016040528092919081815260200182805461045190611f71565b801561049e5780601f106104735761010080835404028352916020019161049e565b820191906000526020600020905b81548152906001019060200180831161048157829003601f168201915b505050505081525050815250509080600c016040518060a0016040529081600082015481526020016001820180546104d590611f71565b80601f016020809104026020016040519081016040528092919081815260200182805461050190611f71565b801561054e5780601f106105235761010080835404028352916020019161054e565b820191906000526020600020905b81548152906001019060200180831161053157829003601f168201915b50505050508152602001600282015481526020016003820154815260200160048201805461057b90611f71565b80601f01602080910402602001604051908101604052809291908181526020018280546105a790611f71565b80156105f45780601f106105c9576101008083540402835291602001916105f4565b820191906000526020600020905b8154815290600101906020018083116105d757829003601f168201915b505050505081525050905085565b606060005b828110156107cd57600084828151811061062457610623611fa3565b5b60200260200101519080600181540180825580915050600190039060005260206000209060110201600090919091909150600082015181600001556020820151816001015560408201518160020190805190602001906106859291906112d9565b50606082015181600301600082015181600001556020820151816001015560408201518160020190805190602001906106bf9291906112d9565b5060608201518160030190805190602001906106dc9291906112d9565b506080820151816004015560a0820151816005016000820151816000015560208201518160010190805190602001906107169291906112d9565b5060408201518160020190805190602001906107339291906112d9565b5060608201518160030190805190602001906107509291906112d9565b5050505050608082015181600c016000820151816000015560208201518160010190805190602001906107849291906112d9565b50604082015181600201556060820151816003015560808201518160040190805190602001906107b59291906112d9565b505050505080806107c590612001565b915050610607565b506000805480602002602001604051908101604052809291908181526020016000905b82821015610d4857838290600052602060002090601102016040518060a0016040529081600082015481526020016001820154815260200160028201805461083790611f71565b80601f016020809104026020016040519081016040528092919081815260200182805461086390611f71565b80156108b05780601f10610885576101008083540402835291602001916108b0565b820191906000526020600020905b81548152906001019060200180831161089357829003601f168201915b50505050508152602001600382016040518060c001604052908160008201548152602001600182015481526020016002820180546108ed90611f71565b80601f016020809104026020016040519081016040528092919081815260200182805461091990611f71565b80156109665780601f1061093b57610100808354040283529160200191610966565b820191906000526020600020905b81548152906001019060200180831161094957829003601f168201915b5050505050815260200160038201805461097f90611f71565b80601f01602080910402602001604051908101604052809291908181526020018280546109ab90611f71565b80156109f85780601f106109cd576101008083540402835291602001916109f8565b820191906000526020600020905b8154815290600101906020018083116109db57829003601f168201915b50505050508152602001600482015481526020016005820160405180608001604052908160008201548152602001600182018054610a3590611f71565b80601f0160208091040260200160405190810160405280929190818152602001828054610a6190611f71565b8015610aae5780601f10610a8357610100808354040283529160200191610aae565b820191906000526020600020905b815481529060010190602001808311610a9157829003601f168201915b50505050508152602001600282018054610ac790611f71565b80601f0160208091040260200160405190810160405280929190818152602001828054610af390611f71565b8015610b405780601f10610b1557610100808354040283529160200191610b40565b820191906000526020600020905b815481529060010190602001808311610b2357829003601f168201915b50505050508152602001600382018054610b5990611f71565b80601f0160208091040260200160405190810160405280929190818152602001828054610b8590611f71565b8015610bd25780601f10610ba757610100808354040283529160200191610bd2565b820191906000526020600020905b815481529060010190602001808311610bb557829003601f168201915b505050505081525050815250508152602001600c82016040518060a001604052908160008201548152602001600182018054610c0d90611f71565b80601f0160208091040260200160405190810160405280929190818152602001828054610c3990611f71565b8015610c865780601f10610c5b57610100808354040283529160200191610c86565b820191906000526020600020905b815481529060010190602001808311610c6957829003601f168201915b505050505081526020016002820154815260200160038201548152602001600482018054610cb390611f71565b80601f0160208091040260200160405190810160405280929190818152602001828054610cdf90611f71565b8015610d2c5780601f10610d0157610100808354040283529160200191610d2c565b820191906000526020600020905b815481529060010190602001808311610d0f57829003601f168201915b50505050508152505081525050815260200190600101906107f0565b50505050905092915050565b60606000805480602002602001604051908101604052809291908181526020016000905b828210156112d057838290600052602060002090601102016040518060a00160405290816000820154815260200160018201548152602001600282018054610dbf90611f71565b80601f0160208091040260200160405190810160405280929190818152602001828054610deb90611f71565b8015610e385780601f10610e0d57610100808354040283529160200191610e38565b820191906000526020600020905b815481529060010190602001808311610e1b57829003601f168201915b50505050508152602001600382016040518060c00160405290816000820154815260200160018201548152602001600282018054610e7590611f71565b80601f0160208091040260200160405190810160405280929190818152602001828054610ea190611f71565b8015610eee5780601f10610ec357610100808354040283529160200191610eee565b820191906000526020600020905b815481529060010190602001808311610ed157829003601f168201915b50505050508152602001600382018054610f0790611f71565b80601f0160208091040260200160405190810160405280929190818152602001828054610f3390611f71565b8015610f805780601f10610f5557610100808354040283529160200191610f80565b820191906000526020600020905b815481529060010190602001808311610f6357829003601f168201915b50505050508152602001600482015481526020016005820160405180608001604052908160008201548152602001600182018054610fbd90611f71565b80601f0160208091040260200160405190810160405280929190818152602001828054610fe990611f71565b80156110365780601f1061100b57610100808354040283529160200191611036565b820191906000526020600020905b81548152906001019060200180831161101957829003601f168201915b5050505050815260200160028201805461104f90611f71565b80601f016020809104026020016040519081016040528092919081815260200182805461107b90611f71565b80156110c85780601f1061109d576101008083540402835291602001916110c8565b820191906000526020600020905b8154815290600101906020018083116110ab57829003601f168201915b505050505081526020016003820180546110e190611f71565b80601f016020809104026020016040519081016040528092919081815260200182805461110d90611f71565b801561115a5780601f1061112f5761010080835404028352916020019161115a565b820191906000526020600020905b81548152906001019060200180831161113d57829003601f168201915b505050505081525050815250508152602001600c82016040518060a00160405290816000820154815260200160018201805461119590611f71565b80601f01602080910402602001604051908101604052809291908181526020018280546111c190611f71565b801561120e5780601f106111e35761010080835404028352916020019161120e565b820191906000526020600020905b8154815290600101906020018083116111f157829003601f168201915b50505050508152602001600282015481526020016003820154815260200160048201805461123b90611f71565b80601f016020809104026020016040519081016040528092919081815260200182805461126790611f71565b80156112b45780601f10611289576101008083540402835291602001916112b4565b820191906000526020600020905b81548152906001019060200180831161129757829003601f168201915b5050505050815250508152505081526020019060010190610d78565b50505050905090565b8280546112e590611f71565b90600052602060002090601f016020900481019282611307576000855561134e565b82601f1061132057805160ff191683800117855561134e565b8280016001018555821561134e579182015b8281111561134d578251825591602001919060010190611332565b5b50905061135b919061135f565b5090565b5b80821115611378576000816000905550600101611360565b5090565b6000604051905090565b600080fd5b600080fd5b6000819050919050565b6113a381611390565b81146113ae57600080fd5b50565b6000813590506113c08161139a565b92915050565b6000602082840312156113dc576113db611386565b5b60006113ea848285016113b1565b91505092915050565b6113fc81611390565b82525050565b600081519050919050565b600082825260208201905092915050565b60005b8381101561143c578082015181840152602081019050611421565b8381111561144b576000848401525b50505050565b6000601f19601f8301169050919050565b600061146d82611402565b611477818561140d565b935061148781856020860161141e565b61149081611451565b840191505092915050565b6114a481611390565b82525050565b600082825260208201905092915050565b60006114c682611402565b6114d081856114aa565b93506114e081856020860161141e565b6114e981611451565b840191505092915050565b600060808301600083015161150c600086018261149b565b506020830151848203602086015261152482826114bb565b9150506040830151848203604086015261153e82826114bb565b9150506060830151848203606086015261155882826114bb565b9150508091505092915050565b600060c08301600083015161157d600086018261149b565b506020830151611590602086018261149b565b50604083015184820360408601526115a882826114bb565b915050606083015184820360608601526115c282826114bb565b91505060808301516115d7608086018261149b565b5060a083015184820360a08601526115ef82826114f4565b9150508091505092915050565b600060a083016000830151611614600086018261149b565b506020830151848203602086015261162c82826114bb565b9150506040830151611641604086018261149b565b506060830151611654606086018261149b565b506080830151848203608086015261166c82826114bb565b9150508091505092915050565b600060a08201905061168e60008301886113f3565b61169b60208301876113f3565b81810360408301526116ad8186611462565b905081810360608301526116c18185611565565b905081810360808301526116d581846115fc565b90509695505050505050565b600080fd5b7f4e487b7100000000000000000000000000000000000000000000000000000000600052604160045260246000fd5b61171e82611451565b810181811067ffffffffffffffff8211171561173d5761173c6116e6565b5b80604052505050565b600061175061137c565b905061175c8282611715565b919050565b600067ffffffffffffffff82111561177c5761177b6116e6565b5b602082029050602081019050919050565b600080fd5b600080fd5b600080fd5b600080fd5b600067ffffffffffffffff8211156117bc576117bb6116e6565b5b6117c582611451565b9050602081019050919050565b82818337600083830152505050565b60006117f46117ef846117a1565b611746565b9050828152602081018484840111156118105761180f61179c565b5b61181b8482856117d2565b509392505050565b600082601f830112611838576118376116e1565b5b81356118488482602086016117e1565b91505092915050565b60006080828403121561186757611866611792565b5b6118716080611746565b90506000611881848285016113b1565b600083015250602082013567ffffffffffffffff8111156118a5576118a4611797565b5b6118b184828501611823565b602083015250604082013567ffffffffffffffff8111156118d5576118d4611797565b5b6118e184828501611823565b604083015250606082013567ffffffffffffffff81111561190557611904611797565b5b61191184828501611823565b60608301525092915050565b600060c0828403121561193357611932611792565b5b61193d60c0611746565b9050600061194d848285016113b1565b6000830152506020611961848285016113b1565b602083015250604082013567ffffffffffffffff81111561198557611984611797565b5b61199184828501611823565b604083015250606082013567ffffffffffffffff8111156119b5576119b4611797565b5b6119c184828501611823565b60608301525060806119d5848285016113b1565b60808301525060a082013567ffffffffffffffff8111156119f9576119f8611797565b5b611a0584828501611851565b60a08301525092915050565b600060a08284031215611a2757611a26611792565b5b611a3160a0611746565b90506000611a41848285016113b1565b600083015250602082013567ffffffffffffffff811115611a6557611a64611797565b5b611a7184828501611823565b6020830152506040611a85848285016113b1565b6040830152506060611a99848285016113b1565b606083015250608082013567ffffffffffffffff811115611abd57611abc611797565b5b611ac984828501611823565b60808301525092915050565b600060a08284031215611aeb57611aea611792565b5b611af560a0611746565b90506000611b05848285016113b1565b6000830152506020611b19848285016113b1565b602083015250604082013567ffffffffffffffff811115611b3d57611b3c611797565b5b611b4984828501611823565b604083015250606082013567ffffffffffffffff811115611b6d57611b6c611797565b5b611b798482850161191d565b606083015250608082013567ffffffffffffffff811115611b9d57611b9c611797565b5b611ba984828501611a11565b60808301525092915050565b6000611bc8611bc384611761565b611746565b90508083825260208201905060208402830185811115611beb57611bea61178d565b5b835b81811015611c3257803567ffffffffffffffff811115611c1057611c0f6116e1565b5b808601611c1d8982611ad5565b85526020850194505050602081019050611bed565b5050509392505050565b600082601f830112611c5157611c506116e1565b5b8135611c61848260208601611bb5565b91505092915050565b60008060408385031215611c8157611c80611386565b5b600083013567ffffffffffffffff811115611c9f57611c9e61138b565b5b611cab85828601611c3c565b9250506020611cbc858286016113b1565b9150509250929050565b600081519050919050565b600082825260208201905092915050565b6000819050602082019050919050565b600060c083016000830151611d0a600086018261149b565b506020830151611d1d602086018261149b565b5060408301518482036040860152611d3582826114bb565b91505060608301518482036060860152611d4f82826114bb565b9150506080830151611d64608086018261149b565b5060a083015184820360a0860152611d7c82826114f4565b9150508091505092915050565b600060a083016000830151611da1600086018261149b565b5060208301518482036020860152611db982826114bb565b9150506040830151611dce604086018261149b565b506060830151611de1606086018261149b565b5060808301518482036080860152611df982826114bb565b9150508091505092915050565b600060a083016000830151611e1e600086018261149b565b506020830151611e31602086018261149b565b5060408301518482036040860152611e4982826114bb565b91505060608301518482036060860152611e638282611cf2565b91505060808301518482036080860152611e7d8282611d89565b9150508091505092915050565b6000611e968383611e06565b905092915050565b6000602082019050919050565b6000611eb682611cc6565b611ec08185611cd1565b935083602082028501611ed285611ce2565b8060005b85811015611f0e5784840389528151611eef8582611e8a565b9450611efa83611e9e565b925060208a01995050600181019050611ed6565b50829750879550505050505092915050565b60006020820190508181036000830152611f3a8184611eab565b905092915050565b7f4e487b7100000000000000000000000000000000000000000000000000000000600052602260045260246000fd5b60006002820490506001821680611f8957607f821691505b60208210811415611f9d57611f9c611f42565b5b50919050565b7f4e487b7100000000000000000000000000000000000000000000000000000000600052603260045260246000fd5b7f4e487b7100000000000000000000000000000000000000000000000000000000600052601160045260246000fd5b600061200c82611390565b91507fffffffffffffffffffffffffffffffffffffffffffffffffffffffffffffffff82141561203f5761203e611fd2565b5b60018201905091905056fea2646970667358221220bab79def43cf3932ff3494dd4e52791ebcbf03f646132c9ac73ba7588a92b39a64736f6c634300080b0033",
  "immutableReferences": {},
  "source": "// SPDX-License-Identifier: MIT\r\npragma solidity >=0.4.22 <0.9.0;\r\nimport \"./Remplissage.sol\";\r\ncontract RemplissageUsine is Remplissage{\r\n//*********************************************************************************/\r\n//second app \r\n//******************************************************************************/\r\n\r\nOperationTank03[] public operationTank2;\r\n  function addOperationTankUsine(OperationTank03[] memory operationTank,uint count) \r\n   public returns (OperationTank03[] memory tt0) {\r\n\r\n   for (uint256 i = 0; i < count ; i++) {\r\n   operationTank2.push(operationTank[i]);\r\n}\r\n    return (operationTank2);\r\n  }\r\n\r\n    //get all operations \r\n  \r\n  function getOperationTanksUsine() public view returns (OperationTank03[] memory result ) {\r\n    return operationTank2;\r\n  }\r\n}\r\n",
  "sourcePath": "C:\\Users\\ASUS\\Desktop\\pfe\\PFE_Project2022(usine)\\PFE-FrontEnd\\contracts\\RemplissageUsine.sol",
  "compiler": {
    "name": "solc",
    "version": "0.8.11+commit.d7f03943.Emscripten.clang"
  },
  "schemaVersion": "3.4.5",
  "updatedAt": "2022-04-22T02:13:56.632Z",
  "networkType": "ethereum",
  "devdoc": {
    "kind": "dev",
    "methods": {},
    "version": 1
  },
  "userdoc": {
    "kind": "user",
    "methods": {},
    "version": 1
  }
}