{
  "contractName": "RetraitCol",
  "abi": [
    {
      "inputs": [
        {
          "internalType": "uint256",
          "name": "",
          "type": "uint256"
        }
      ],
      "name": "nbreOP",
      "outputs": [
        {
          "internalType": "uint256",
          "name": "",
          "type": "uint256"
        }
      ],
      "stateMutability": "view",
      "type": "function",
      "constant": true
    },
    {
      "inputs": [
        {
          "internalType": "uint256",
          "name": "",
          "type": "uint256"
        }
      ],
      "name": "operationTankR",
      "outputs": [
        {
          "internalType": "uint256",
          "name": "idOpTank",
          "type": "uint256"
        },
        {
          "internalType": "int256",
          "name": "qteInsereTank",
          "type": "int256"
        },
        {
          "internalType": "string",
          "name": "date",
          "type": "string"
        },
        {
          "components": [
            {
              "internalType": "uint256",
              "name": "idOperation",
              "type": "uint256"
            },
            {
              "internalType": "uint256",
              "name": "poidsLait",
              "type": "uint256"
            },
            {
              "internalType": "string",
              "name": "dateOperation",
              "type": "string"
            },
            {
              "internalType": "string",
              "name": "typeOp",
              "type": "string"
            },
            {
              "internalType": "uint256",
              "name": "code",
              "type": "uint256"
            },
            {
              "internalType": "uint256[]",
              "name": "codeRemplissage",
              "type": "uint256[]"
            },
            {
              "components": [
                {
                  "internalType": "uint256",
                  "name": "idChef",
                  "type": "uint256"
                },
                {
                  "internalType": "string",
                  "name": "nom",
                  "type": "string"
                },
                {
                  "internalType": "string",
                  "name": "prenom",
                  "type": "string"
                },
                {
                  "internalType": "string",
                  "name": "email",
                  "type": "string"
                },
                {
                  "internalType": "string",
                  "name": "adress",
                  "type": "string"
                },
                {
                  "internalType": "uint256",
                  "name": "tel",
                  "type": "uint256"
                },
                {
                  "internalType": "uint256",
                  "name": "cin",
                  "type": "uint256"
                },
                {
                  "internalType": "string",
                  "name": "username",
                  "type": "string"
                },
                {
                  "internalType": "string",
                  "name": "password",
                  "type": "string"
                }
              ],
              "internalType": "struct Remplissage.Chef",
              "name": "chef",
              "type": "tuple"
            },
            {
              "components": [
                {
                  "internalType": "uint256",
                  "name": "idUsine",
                  "type": "uint256"
                },
                {
                  "internalType": "string",
                  "name": "nomUsine",
                  "type": "string"
                },
                {
                  "internalType": "string",
                  "name": "adresse",
                  "type": "string"
                }
              ],
              "internalType": "struct Remplissage.Usine",
              "name": "usine",
              "type": "tuple"
            }
          ],
          "internalType": "struct Remplissage.Operation01",
          "name": "operation",
          "type": "tuple"
        },
        {
          "components": [
            {
              "internalType": "uint256",
              "name": "idTank",
              "type": "uint256"
            },
            {
              "internalType": "string",
              "name": "matricule",
              "type": "string"
            },
            {
              "internalType": "uint256",
              "name": "poidVide",
              "type": "uint256"
            },
            {
              "internalType": "uint256",
              "name": "poidActuel",
              "type": "uint256"
            },
            {
              "internalType": "string",
              "name": "etat",
              "type": "string"
            },
            {
              "internalType": "uint256[]",
              "name": "codeTank",
              "type": "uint256[]"
            }
          ],
          "internalType": "struct Remplissage.Tank",
          "name": "tank",
          "type": "tuple"
        }
      ],
      "stateMutability": "view",
      "type": "function",
      "constant": true
    },
    {
      "inputs": [
        {
          "internalType": "uint256",
          "name": "",
          "type": "uint256"
        }
      ],
      "name": "operationagrs",
      "outputs": [
        {
          "internalType": "uint256",
          "name": "idOperation",
          "type": "uint256"
        },
        {
          "internalType": "uint256",
          "name": "code",
          "type": "uint256"
        },
        {
          "internalType": "string",
          "name": "dateOperation",
          "type": "string"
        },
        {
          "internalType": "string",
          "name": "typeOp",
          "type": "string"
        },
        {
          "internalType": "uint256",
          "name": "poidsLait",
          "type": "uint256"
        },
        {
          "components": [
            {
              "internalType": "uint256",
              "name": "idAgriculteur",
              "type": "uint256"
            },
            {
              "internalType": "string",
              "name": "nom",
              "type": "string"
            },
            {
              "internalType": "string",
              "name": "prenom",
              "type": "string"
            },
            {
              "internalType": "string",
              "name": "username",
              "type": "string"
            },
            {
              "internalType": "string",
              "name": "password",
              "type": "string"
            },
            {
              "internalType": "string",
              "name": "adress",
              "type": "string"
            }
          ],
          "internalType": "struct Remplissage.Agriculteur",
          "name": "agriculteur",
          "type": "tuple"
        },
        {
          "components": [
            {
              "internalType": "uint256",
              "name": "idCollecteur",
              "type": "uint256"
            },
            {
              "internalType": "string",
              "name": "nomCollecteur",
              "type": "string"
            },
            {
              "internalType": "string",
              "name": "prenomCollecteur",
              "type": "string"
            },
            {
              "internalType": "string",
              "name": "matricule",
              "type": "string"
            },
            {
              "internalType": "string",
              "name": "adresse",
              "type": "string"
            },
            {
              "internalType": "uint256",
              "name": "tel",
              "type": "uint256"
            }
          ],
          "internalType": "struct Remplissage.Collecteur",
          "name": "collecteur",
          "type": "tuple"
        }
      ],
      "stateMutability": "view",
      "type": "function",
      "constant": true
    },
    {
      "inputs": [
        {
          "components": [
            {
              "internalType": "uint256",
              "name": "idOpTank",
              "type": "uint256"
            },
            {
              "internalType": "int256",
              "name": "qteInsereTank",
              "type": "int256"
            },
            {
              "internalType": "string",
              "name": "date",
              "type": "string"
            },
            {
              "components": [
                {
                  "internalType": "uint256",
                  "name": "idOperation",
                  "type": "uint256"
                },
                {
                  "internalType": "uint256",
                  "name": "poidsLait",
                  "type": "uint256"
                },
                {
                  "internalType": "string",
                  "name": "dateOperation",
                  "type": "string"
                },
                {
                  "internalType": "string",
                  "name": "typeOp",
                  "type": "string"
                },
                {
                  "internalType": "uint256",
                  "name": "code",
                  "type": "uint256"
                },
                {
                  "internalType": "uint256[]",
                  "name": "codeRemplissage",
                  "type": "uint256[]"
                },
                {
                  "components": [
                    {
                      "internalType": "uint256",
                      "name": "idChef",
                      "type": "uint256"
                    },
                    {
                      "internalType": "string",
                      "name": "nom",
                      "type": "string"
                    },
                    {
                      "internalType": "string",
                      "name": "prenom",
                      "type": "string"
                    },
                    {
                      "internalType": "string",
                      "name": "email",
                      "type": "string"
                    },
                    {
                      "internalType": "string",
                      "name": "adress",
                      "type": "string"
                    },
                    {
                      "internalType": "uint256",
                      "name": "tel",
                      "type": "uint256"
                    },
                    {
                      "internalType": "uint256",
                      "name": "cin",
                      "type": "uint256"
                    },
                    {
                      "internalType": "string",
                      "name": "username",
                      "type": "string"
                    },
                    {
                      "internalType": "string",
                      "name": "password",
                      "type": "string"
                    }
                  ],
                  "internalType": "struct Remplissage.Chef",
                  "name": "chef",
                  "type": "tuple"
                },
                {
                  "components": [
                    {
                      "internalType": "uint256",
                      "name": "idUsine",
                      "type": "uint256"
                    },
                    {
                      "internalType": "string",
                      "name": "nomUsine",
                      "type": "string"
                    },
                    {
                      "internalType": "string",
                      "name": "adresse",
                      "type": "string"
                    }
                  ],
                  "internalType": "struct Remplissage.Usine",
                  "name": "usine",
                  "type": "tuple"
                }
              ],
              "internalType": "struct Remplissage.Operation01",
              "name": "operation",
              "type": "tuple"
            },
            {
              "components": [
                {
                  "internalType": "uint256",
                  "name": "idTank",
                  "type": "uint256"
                },
                {
                  "internalType": "string",
                  "name": "matricule",
                  "type": "string"
                },
                {
                  "internalType": "uint256",
                  "name": "poidVide",
                  "type": "uint256"
                },
                {
                  "internalType": "uint256",
                  "name": "poidActuel",
                  "type": "uint256"
                },
                {
                  "internalType": "string",
                  "name": "etat",
                  "type": "string"
                },
                {
                  "internalType": "uint256[]",
                  "name": "codeTank",
                  "type": "uint256[]"
                }
              ],
              "internalType": "struct Remplissage.Tank",
              "name": "tank",
              "type": "tuple"
            }
          ],
          "internalType": "struct Remplissage.OperationTank0[]",
          "name": "operationTank",
          "type": "tuple[]"
        },
        {
          "internalType": "uint256",
          "name": "count",
          "type": "uint256"
        }
      ],
      "name": "RetraitOperationTank",
      "outputs": [
        {
          "components": [
            {
              "internalType": "uint256",
              "name": "idOpTank",
              "type": "uint256"
            },
            {
              "internalType": "int256",
              "name": "qteInsereTank",
              "type": "int256"
            },
            {
              "internalType": "string",
              "name": "date",
              "type": "string"
            },
            {
              "components": [
                {
                  "internalType": "uint256",
                  "name": "idOperation",
                  "type": "uint256"
                },
                {
                  "internalType": "uint256",
                  "name": "poidsLait",
                  "type": "uint256"
                },
                {
                  "internalType": "string",
                  "name": "dateOperation",
                  "type": "string"
                },
                {
                  "internalType": "string",
                  "name": "typeOp",
                  "type": "string"
                },
                {
                  "internalType": "uint256",
                  "name": "code",
                  "type": "uint256"
                },
                {
                  "internalType": "uint256[]",
                  "name": "codeRemplissage",
                  "type": "uint256[]"
                },
                {
                  "components": [
                    {
                      "internalType": "uint256",
                      "name": "idChef",
                      "type": "uint256"
                    },
                    {
                      "internalType": "string",
                      "name": "nom",
                      "type": "string"
                    },
                    {
                      "internalType": "string",
                      "name": "prenom",
                      "type": "string"
                    },
                    {
                      "internalType": "string",
                      "name": "email",
                      "type": "string"
                    },
                    {
                      "internalType": "string",
                      "name": "adress",
                      "type": "string"
                    },
                    {
                      "internalType": "uint256",
                      "name": "tel",
                      "type": "uint256"
                    },
                    {
                      "internalType": "uint256",
                      "name": "cin",
                      "type": "uint256"
                    },
                    {
                      "internalType": "string",
                      "name": "username",
                      "type": "string"
                    },
                    {
                      "internalType": "string",
                      "name": "password",
                      "type": "string"
                    }
                  ],
                  "internalType": "struct Remplissage.Chef",
                  "name": "chef",
                  "type": "tuple"
                },
                {
                  "components": [
                    {
                      "internalType": "uint256",
                      "name": "idUsine",
                      "type": "uint256"
                    },
                    {
                      "internalType": "string",
                      "name": "nomUsine",
                      "type": "string"
                    },
                    {
                      "internalType": "string",
                      "name": "adresse",
                      "type": "string"
                    }
                  ],
                  "internalType": "struct Remplissage.Usine",
                  "name": "usine",
                  "type": "tuple"
                }
              ],
              "internalType": "struct Remplissage.Operation01",
              "name": "operation",
              "type": "tuple"
            },
            {
              "components": [
                {
                  "internalType": "uint256",
                  "name": "idTank",
                  "type": "uint256"
                },
                {
                  "internalType": "string",
                  "name": "matricule",
                  "type": "string"
                },
                {
                  "internalType": "uint256",
                  "name": "poidVide",
                  "type": "uint256"
                },
                {
                  "internalType": "uint256",
                  "name": "poidActuel",
                  "type": "uint256"
                },
                {
                  "internalType": "string",
                  "name": "etat",
                  "type": "string"
                },
                {
                  "internalType": "uint256[]",
                  "name": "codeTank",
                  "type": "uint256[]"
                }
              ],
              "internalType": "struct Remplissage.Tank",
              "name": "tank",
              "type": "tuple"
            }
          ],
          "internalType": "struct Remplissage.OperationTank0[]",
          "name": "tt0",
          "type": "tuple[]"
        }
      ],
      "stateMutability": "nonpayable",
      "type": "function"
    },
    {
      "inputs": [],
      "name": "getOperationNumbers",
      "outputs": [
        {
          "internalType": "uint256[]",
          "name": "result",
          "type": "uint256[]"
        }
      ],
      "stateMutability": "view",
      "type": "function",
      "constant": true
    },
    {
      "inputs": [],
      "name": "getOperationTanks",
      "outputs": [
        {
          "components": [
            {
              "internalType": "uint256",
              "name": "idOpTank",
              "type": "uint256"
            },
            {
              "internalType": "int256",
              "name": "qteInsereTank",
              "type": "int256"
            },
            {
              "internalType": "string",
              "name": "date",
              "type": "string"
            },
            {
              "components": [
                {
                  "internalType": "uint256",
                  "name": "idOperation",
                  "type": "uint256"
                },
                {
                  "internalType": "uint256",
                  "name": "poidsLait",
                  "type": "uint256"
                },
                {
                  "internalType": "string",
                  "name": "dateOperation",
                  "type": "string"
                },
                {
                  "internalType": "string",
                  "name": "typeOp",
                  "type": "string"
                },
                {
                  "internalType": "uint256",
                  "name": "code",
                  "type": "uint256"
                },
                {
                  "internalType": "uint256[]",
                  "name": "codeRemplissage",
                  "type": "uint256[]"
                },
                {
                  "components": [
                    {
                      "internalType": "uint256",
                      "name": "idChef",
                      "type": "uint256"
                    },
                    {
                      "internalType": "string",
                      "name": "nom",
                      "type": "string"
                    },
                    {
                      "internalType": "string",
                      "name": "prenom",
                      "type": "string"
                    },
                    {
                      "internalType": "string",
                      "name": "email",
                      "type": "string"
                    },
                    {
                      "internalType": "string",
                      "name": "adress",
                      "type": "string"
                    },
                    {
                      "internalType": "uint256",
                      "name": "tel",
                      "type": "uint256"
                    },
                    {
                      "internalType": "uint256",
                      "name": "cin",
                      "type": "uint256"
                    },
                    {
                      "internalType": "string",
                      "name": "username",
                      "type": "string"
                    },
                    {
                      "internalType": "string",
                      "name": "password",
                      "type": "string"
                    }
                  ],
                  "internalType": "struct Remplissage.Chef",
                  "name": "chef",
                  "type": "tuple"
                },
                {
                  "components": [
                    {
                      "internalType": "uint256",
                      "name": "idUsine",
                      "type": "uint256"
                    },
                    {
                      "internalType": "string",
                      "name": "nomUsine",
                      "type": "string"
                    },
                    {
                      "internalType": "string",
                      "name": "adresse",
                      "type": "string"
                    }
                  ],
                  "internalType": "struct Remplissage.Usine",
                  "name": "usine",
                  "type": "tuple"
                }
              ],
              "internalType": "struct Remplissage.Operation01",
              "name": "operation",
              "type": "tuple"
            },
            {
              "components": [
                {
                  "internalType": "uint256",
                  "name": "idTank",
                  "type": "uint256"
                },
                {
                  "internalType": "string",
                  "name": "matricule",
                  "type": "string"
                },
                {
                  "internalType": "uint256",
                  "name": "poidVide",
                  "type": "uint256"
                },
                {
                  "internalType": "uint256",
                  "name": "poidActuel",
                  "type": "uint256"
                },
                {
                  "internalType": "string",
                  "name": "etat",
                  "type": "string"
                },
                {
                  "internalType": "uint256[]",
                  "name": "codeTank",
                  "type": "uint256[]"
                }
              ],
              "internalType": "struct Remplissage.Tank",
              "name": "tank",
              "type": "tuple"
            }
          ],
          "internalType": "struct Remplissage.OperationTank0[]",
          "name": "result",
          "type": "tuple[]"
        }
      ],
      "stateMutability": "view",
      "type": "function",
      "constant": true
    },
    {
      "inputs": [
        {
          "internalType": "uint256",
          "name": "code",
          "type": "uint256"
        },
        {
          "components": [
            {
              "internalType": "uint256",
              "name": "idOperation",
              "type": "uint256"
            },
            {
              "internalType": "uint256",
              "name": "code",
              "type": "uint256"
            },
            {
              "internalType": "string",
              "name": "dateOperation",
              "type": "string"
            },
            {
              "internalType": "string",
              "name": "typeOp",
              "type": "string"
            },
            {
              "internalType": "uint256",
              "name": "poidsLait",
              "type": "uint256"
            },
            {
              "components": [
                {
                  "internalType": "uint256",
                  "name": "idAgriculteur",
                  "type": "uint256"
                },
                {
                  "internalType": "string",
                  "name": "nom",
                  "type": "string"
                },
                {
                  "internalType": "string",
                  "name": "prenom",
                  "type": "string"
                },
                {
                  "internalType": "string",
                  "name": "username",
                  "type": "string"
                },
                {
                  "internalType": "string",
                  "name": "password",
                  "type": "string"
                },
                {
                  "internalType": "string",
                  "name": "adress",
                  "type": "string"
                }
              ],
              "internalType": "struct Remplissage.Agriculteur",
              "name": "agriculteur",
              "type": "tuple"
            },
            {
              "components": [
                {
                  "internalType": "uint256",
                  "name": "idCollecteur",
                  "type": "uint256"
                },
                {
                  "internalType": "string",
                  "name": "nomCollecteur",
                  "type": "string"
                },
                {
                  "internalType": "string",
                  "name": "prenomCollecteur",
                  "type": "string"
                },
                {
                  "internalType": "string",
                  "name": "matricule",
                  "type": "string"
                },
                {
                  "internalType": "string",
                  "name": "adresse",
                  "type": "string"
                },
                {
                  "internalType": "uint256",
                  "name": "tel",
                  "type": "uint256"
                }
              ],
              "internalType": "struct Remplissage.Collecteur",
              "name": "collecteur",
              "type": "tuple"
            }
          ],
          "internalType": "struct Remplissage.Operation[]",
          "name": "operation2",
          "type": "tuple[]"
        }
      ],
      "name": "getOperationbycode",
      "outputs": [
        {
          "components": [
            {
              "internalType": "uint256",
              "name": "idOperation",
              "type": "uint256"
            },
            {
              "internalType": "uint256",
              "name": "code",
              "type": "uint256"
            },
            {
              "internalType": "string",
              "name": "dateOperation",
              "type": "string"
            },
            {
              "internalType": "string",
              "name": "typeOp",
              "type": "string"
            },
            {
              "internalType": "uint256",
              "name": "poidsLait",
              "type": "uint256"
            },
            {
              "components": [
                {
                  "internalType": "uint256",
                  "name": "idAgriculteur",
                  "type": "uint256"
                },
                {
                  "internalType": "string",
                  "name": "nom",
                  "type": "string"
                },
                {
                  "internalType": "string",
                  "name": "prenom",
                  "type": "string"
                },
                {
                  "internalType": "string",
                  "name": "username",
                  "type": "string"
                },
                {
                  "internalType": "string",
                  "name": "password",
                  "type": "string"
                },
                {
                  "internalType": "string",
                  "name": "adress",
                  "type": "string"
                }
              ],
              "internalType": "struct Remplissage.Agriculteur",
              "name": "agriculteur",
              "type": "tuple"
            },
            {
              "components": [
                {
                  "internalType": "uint256",
                  "name": "idCollecteur",
                  "type": "uint256"
                },
                {
                  "internalType": "string",
                  "name": "nomCollecteur",
                  "type": "string"
                },
                {
                  "internalType": "string",
                  "name": "prenomCollecteur",
                  "type": "string"
                },
                {
                  "internalType": "string",
                  "name": "matricule",
                  "type": "string"
                },
                {
                  "internalType": "string",
                  "name": "adresse",
                  "type": "string"
                },
                {
                  "internalType": "uint256",
                  "name": "tel",
                  "type": "uint256"
                }
              ],
              "internalType": "struct Remplissage.Collecteur",
              "name": "collecteur",
              "type": "tuple"
            }
          ],
          "internalType": "struct Remplissage.Operation[]",
          "name": "operationtwo",
          "type": "tuple[]"
        }
      ],
      "stateMutability": "nonpayable",
      "type": "function"
    },
    {
      "inputs": [
        {
          "internalType": "uint256",
          "name": "code",
          "type": "uint256"
        }
      ],
      "name": "getOperationFromAgrsbycode",
      "outputs": [
        {
          "components": [
            {
              "internalType": "uint256",
              "name": "idOpTank",
              "type": "uint256"
            },
            {
              "internalType": "int256",
              "name": "qteInsereTank",
              "type": "int256"
            },
            {
              "internalType": "string",
              "name": "date",
              "type": "string"
            },
            {
              "components": [
                {
                  "internalType": "uint256",
                  "name": "idOperation",
                  "type": "uint256"
                },
                {
                  "internalType": "uint256",
                  "name": "poidsLait",
                  "type": "uint256"
                },
                {
                  "internalType": "string",
                  "name": "dateOperation",
                  "type": "string"
                },
                {
                  "internalType": "string",
                  "name": "typeOp",
                  "type": "string"
                },
                {
                  "internalType": "uint256",
                  "name": "code",
                  "type": "uint256"
                },
                {
                  "internalType": "uint256[]",
                  "name": "codeRemplissage",
                  "type": "uint256[]"
                },
                {
                  "components": [
                    {
                      "internalType": "uint256",
                      "name": "idChef",
                      "type": "uint256"
                    },
                    {
                      "internalType": "string",
                      "name": "nom",
                      "type": "string"
                    },
                    {
                      "internalType": "string",
                      "name": "prenom",
                      "type": "string"
                    },
                    {
                      "internalType": "string",
                      "name": "email",
                      "type": "string"
                    },
                    {
                      "internalType": "string",
                      "name": "adress",
                      "type": "string"
                    },
                    {
                      "internalType": "uint256",
                      "name": "tel",
                      "type": "uint256"
                    },
                    {
                      "internalType": "uint256",
                      "name": "cin",
                      "type": "uint256"
                    },
                    {
                      "internalType": "string",
                      "name": "username",
                      "type": "string"
                    },
                    {
                      "internalType": "string",
                      "name": "password",
                      "type": "string"
                    }
                  ],
                  "internalType": "struct Remplissage.Chef",
                  "name": "chef",
                  "type": "tuple"
                },
                {
                  "components": [
                    {
                      "internalType": "uint256",
                      "name": "idUsine",
                      "type": "uint256"
                    },
                    {
                      "internalType": "string",
                      "name": "nomUsine",
                      "type": "string"
                    },
                    {
                      "internalType": "string",
                      "name": "adresse",
                      "type": "string"
                    }
                  ],
                  "internalType": "struct Remplissage.Usine",
                  "name": "usine",
                  "type": "tuple"
                }
              ],
              "internalType": "struct Remplissage.Operation01",
              "name": "operation",
              "type": "tuple"
            },
            {
              "components": [
                {
                  "internalType": "uint256",
                  "name": "idTank",
                  "type": "uint256"
                },
                {
                  "internalType": "string",
                  "name": "matricule",
                  "type": "string"
                },
                {
                  "internalType": "uint256",
                  "name": "poidVide",
                  "type": "uint256"
                },
                {
                  "internalType": "uint256",
                  "name": "poidActuel",
                  "type": "uint256"
                },
                {
                  "internalType": "string",
                  "name": "etat",
                  "type": "string"
                },
                {
                  "internalType": "uint256[]",
                  "name": "codeTank",
                  "type": "uint256[]"
                }
              ],
              "internalType": "struct Remplissage.Tank",
              "name": "tank",
              "type": "tuple"
            }
          ],
          "internalType": "struct Remplissage.OperationTank0",
          "name": "operation",
          "type": "tuple"
        }
      ],
      "stateMutability": "view",
      "type": "function",
      "constant": true
    }
  ],
  "bytecode": "0x608060405234801561001057600080fd5b506159ed80620000216000396000f3fe608060405234801561001057600080fd5b50600436106100885760003560e01c80638724a4301161005b5780638724a4301461013b578063a96fe5f014610171578063c9c28e0f146101a5578063e3044317146101c357610088565b8063166388291461008d5780631c84d02d146100bd5780633092a44d146100ed5780633b5a24be1461011d575b600080fd5b6100a760048036038101906100a29190613d82565b6101f3565b6040516100b49190614245565b60405180910390f35b6100d760048036038101906100d291906147ec565b610b6e565b6040516100e49190614afe565b60405180910390f35b61010760048036038101906101029190613d82565b61157d565b6040516101149190614b2f565b60405180910390f35b6101256115a1565b6040516101329190614bb9565b60405180910390f35b61015560048036038101906101509190613d82565b6115f9565b6040516101689796959493929190614d68565b60405180910390f35b61018b60048036038101906101869190613d82565b611caf565b60405161019c959493929190614f65565b60405180910390f35b6101ad6125a7565b6040516101ba9190615113565b60405180910390f35b6101dd60048036038101906101d89190615853565b612eea565b6040516101ea9190615113565b60405180910390f35b6101fb613b19565b60005b600180549050811015610b675782600182815481106102205761021f6158af565b5b90600052602060002090601b0201600301600401541415610b54576001818154811061024f5761024e6158af565b5b90600052602060002090601b02016040518060a0016040529081600082015481526020016001820154815260200160028201805461028c9061590d565b80601f01602080910402602001604051908101604052809291908181526020018280546102b89061590d565b80156103055780601f106102da57610100808354040283529160200191610305565b820191906000526020600020905b8154815290600101906020018083116102e857829003601f168201915b50505050508152602001600382016040518061010001604052908160008201548152602001600182015481526020016002820180546103439061590d565b80601f016020809104026020016040519081016040528092919081815260200182805461036f9061590d565b80156103bc5780601f10610391576101008083540402835291602001916103bc565b820191906000526020600020905b81548152906001019060200180831161039f57829003601f168201915b505050505081526020016003820180546103d59061590d565b80601f01602080910402602001604051908101604052809291908181526020018280546104019061590d565b801561044e5780601f106104235761010080835404028352916020019161044e565b820191906000526020600020905b81548152906001019060200180831161043157829003601f168201915b5050505050815260200160048201548152602001600582018054806020026020016040519081016040528092919081815260200182805480156104b057602002820191906000526020600020905b81548152602001906001019080831161049c575b505050505081526020016006820160405180610120016040529081600082015481526020016001820180546104e49061590d565b80601f01602080910402602001604051908101604052809291908181526020018280546105109061590d565b801561055d5780601f106105325761010080835404028352916020019161055d565b820191906000526020600020905b81548152906001019060200180831161054057829003601f168201915b505050505081526020016002820180546105769061590d565b80601f01602080910402602001604051908101604052809291908181526020018280546105a29061590d565b80156105ef5780601f106105c4576101008083540402835291602001916105ef565b820191906000526020600020905b8154815290600101906020018083116105d257829003601f168201915b505050505081526020016003820180546106089061590d565b80601f01602080910402602001604051908101604052809291908181526020018280546106349061590d565b80156106815780601f1061065657610100808354040283529160200191610681565b820191906000526020600020905b81548152906001019060200180831161066457829003601f168201915b5050505050815260200160048201805461069a9061590d565b80601f01602080910402602001604051908101604052809291908181526020018280546106c69061590d565b80156107135780601f106106e857610100808354040283529160200191610713565b820191906000526020600020905b8154815290600101906020018083116106f657829003601f168201915b5050505050815260200160058201548152602001600682015481526020016007820180546107409061590d565b80601f016020809104026020016040519081016040528092919081815260200182805461076c9061590d565b80156107b95780601f1061078e576101008083540402835291602001916107b9565b820191906000526020600020905b81548152906001019060200180831161079c57829003601f168201915b505050505081526020016008820180546107d29061590d565b80601f01602080910402602001604051908101604052809291908181526020018280546107fe9061590d565b801561084b5780601f106108205761010080835404028352916020019161084b565b820191906000526020600020905b81548152906001019060200180831161082e57829003601f168201915b5050505050815250508152602001600f8201604051806060016040529081600082015481526020016001820180546108829061590d565b80601f01602080910402602001604051908101604052809291908181526020018280546108ae9061590d565b80156108fb5780601f106108d0576101008083540402835291602001916108fb565b820191906000526020600020905b8154815290600101906020018083116108de57829003601f168201915b505050505081526020016002820180546109149061590d565b80601f01602080910402602001604051908101604052809291908181526020018280546109409061590d565b801561098d5780601f106109625761010080835404028352916020019161098d565b820191906000526020600020905b81548152906001019060200180831161097057829003601f168201915b505050505081525050815250508152602001601582016040518060c0016040529081600082015481526020016001820180546109c89061590d565b80601f01602080910402602001604051908101604052809291908181526020018280546109f49061590d565b8015610a415780601f10610a1657610100808354040283529160200191610a41565b820191906000526020600020905b815481529060010190602001808311610a2457829003601f168201915b505050505081526020016002820154815260200160038201548152602001600482018054610a6e9061590d565b80601f0160208091040260200160405190810160405280929190818152602001828054610a9a9061590d565b8015610ae75780601f10610abc57610100808354040283529160200191610ae7565b820191906000526020600020905b815481529060010190602001808311610aca57829003601f168201915b5050505050815260200160058201805480602002602001604051908101604052809291908181526020018280548015610b3f57602002820191906000526020600020905b815481526020019060010190808311610b2b575b50505050508152505081525050915050610b69565b8080610b5f9061596e565b9150506101fe565b505b919050565b606060005b600180549050811015610e72578360018281548110610b9557610b946158af565b5b90600052602060002090601b0201600301600401541415610e5f5760005b60018281548110610bc757610bc66158af565b5b90600052602060002090601b020160150160050180549050811015610e5d5760005b8451811015610e495760018381548110610c0657610c056158af565b5b90600052602060002090601b02016015016005018281548110610c2c57610c2b6158af565b5b9060005260206000200154858281518110610c4a57610c496158af565b5b6020026020010151602001511415610e36576000858281518110610c7157610c706158af565b5b6020026020010151908060018154018082558091505060019003906000526020600020906011020160009091909190915060008201518160000155602082015181600101556040820151816002019080519060200190610cd2929190613b54565b506060820151816003019080519060200190610cef929190613b54565b506080820151816004015560a082015181600501600082015181600001556020820151816001019080519060200190610d29929190613b54565b506040820151816002019080519060200190610d46929190613b54565b506060820151816003019080519060200190610d63929190613b54565b506080820151816004019080519060200190610d80929190613b54565b5060a0820151816005019080519060200190610d9d929190613b54565b50505060c082015181600b01600082015181600001556020820151816001019080519060200190610dcf929190613b54565b506040820151816002019080519060200190610dec929190613b54565b506060820151816003019080519060200190610e09929190613b54565b506080820151816004019080519060200190610e26929190613b54565b5060a08201518160050155505050505b8080610e419061596e565b915050610be9565b508080610e559061596e565b915050610bb3565b505b8080610e6a9061596e565b915050610b73565b506000805480602002602001604051908101604052809291908181526020016000905b8282101561157157838290600052602060002090601102016040518060e00160405290816000820154815260200160018201548152602001600282018054610edc9061590d565b80601f0160208091040260200160405190810160405280929190818152602001828054610f089061590d565b8015610f555780601f10610f2a57610100808354040283529160200191610f55565b820191906000526020600020905b815481529060010190602001808311610f3857829003601f168201915b50505050508152602001600382018054610f6e9061590d565b80601f0160208091040260200160405190810160405280929190818152602001828054610f9a9061590d565b8015610fe75780601f10610fbc57610100808354040283529160200191610fe7565b820191906000526020600020905b815481529060010190602001808311610fca57829003601f168201915b5050505050815260200160048201548152602001600582016040518060c0016040529081600082015481526020016001820180546110249061590d565b80601f01602080910402602001604051908101604052809291908181526020018280546110509061590d565b801561109d5780601f106110725761010080835404028352916020019161109d565b820191906000526020600020905b81548152906001019060200180831161108057829003601f168201915b505050505081526020016002820180546110b69061590d565b80601f01602080910402602001604051908101604052809291908181526020018280546110e29061590d565b801561112f5780601f106111045761010080835404028352916020019161112f565b820191906000526020600020905b81548152906001019060200180831161111257829003601f168201915b505050505081526020016003820180546111489061590d565b80601f01602080910402602001604051908101604052809291908181526020018280546111749061590d565b80156111c15780601f10611196576101008083540402835291602001916111c1565b820191906000526020600020905b8154815290600101906020018083116111a457829003601f168201915b505050505081526020016004820180546111da9061590d565b80601f01602080910402602001604051908101604052809291908181526020018280546112069061590d565b80156112535780601f1061122857610100808354040283529160200191611253565b820191906000526020600020905b81548152906001019060200180831161123657829003601f168201915b5050505050815260200160058201805461126c9061590d565b80601f01602080910402602001604051908101604052809291908181526020018280546112989061590d565b80156112e55780601f106112ba576101008083540402835291602001916112e5565b820191906000526020600020905b8154815290600101906020018083116112c857829003601f168201915b5050505050815250508152602001600b82016040518060c00160405290816000820154815260200160018201805461131c9061590d565b80601f01602080910402602001604051908101604052809291908181526020018280546113489061590d565b80156113955780601f1061136a57610100808354040283529160200191611395565b820191906000526020600020905b81548152906001019060200180831161137857829003601f168201915b505050505081526020016002820180546113ae9061590d565b80601f01602080910402602001604051908101604052809291908181526020018280546113da9061590d565b80156114275780601f106113fc57610100808354040283529160200191611427565b820191906000526020600020905b81548152906001019060200180831161140a57829003601f168201915b505050505081526020016003820180546114409061590d565b80601f016020809104026020016040519081016040528092919081815260200182805461146c9061590d565b80156114b95780601f1061148e576101008083540402835291602001916114b9565b820191906000526020600020905b81548152906001019060200180831161149c57829003601f168201915b505050505081526020016004820180546114d29061590d565b80601f01602080910402602001604051908101604052809291908181526020018280546114fe9061590d565b801561154b5780601f106115205761010080835404028352916020019161154b565b820191906000526020600020905b81548152906001019060200180831161152e57829003601f168201915b505050505081526020016005820154815250508152505081526020019060010190610e95565b50505050905092915050565b6002818154811061158d57600080fd5b906000526020600020016000915090505481565b606060028054806020026020016040519081016040528092919081815260200182805480156115ef57602002820191906000526020600020905b8154815260200190600101908083116115db575b5050505050905090565b6000818154811061160957600080fd5b90600052602060002090601102016000915090508060000154908060010154908060020180546116389061590d565b80601f01602080910402602001604051908101604052809291908181526020018280546116649061590d565b80156116b15780601f10611686576101008083540402835291602001916116b1565b820191906000526020600020905b81548152906001019060200180831161169457829003601f168201915b5050505050908060030180546116c69061590d565b80601f01602080910402602001604051908101604052809291908181526020018280546116f29061590d565b801561173f5780601f106117145761010080835404028352916020019161173f565b820191906000526020600020905b81548152906001019060200180831161172257829003601f168201915b505050505090806004015490806005016040518060c0016040529081600082015481526020016001820180546117749061590d565b80601f01602080910402602001604051908101604052809291908181526020018280546117a09061590d565b80156117ed5780601f106117c2576101008083540402835291602001916117ed565b820191906000526020600020905b8154815290600101906020018083116117d057829003601f168201915b505050505081526020016002820180546118069061590d565b80601f01602080910402602001604051908101604052809291908181526020018280546118329061590d565b801561187f5780601f106118545761010080835404028352916020019161187f565b820191906000526020600020905b81548152906001019060200180831161186257829003601f168201915b505050505081526020016003820180546118989061590d565b80601f01602080910402602001604051908101604052809291908181526020018280546118c49061590d565b80156119115780601f106118e657610100808354040283529160200191611911565b820191906000526020600020905b8154815290600101906020018083116118f457829003601f168201915b5050505050815260200160048201805461192a9061590d565b80601f01602080910402602001604051908101604052809291908181526020018280546119569061590d565b80156119a35780601f10611978576101008083540402835291602001916119a3565b820191906000526020600020905b81548152906001019060200180831161198657829003601f168201915b505050505081526020016005820180546119bc9061590d565b80601f01602080910402602001604051908101604052809291908181526020018280546119e89061590d565b8015611a355780601f10611a0a57610100808354040283529160200191611a35565b820191906000526020600020905b815481529060010190602001808311611a1857829003601f168201915b5050505050815250509080600b016040518060c001604052908160008201548152602001600182018054611a689061590d565b80601f0160208091040260200160405190810160405280929190818152602001828054611a949061590d565b8015611ae15780601f10611ab657610100808354040283529160200191611ae1565b820191906000526020600020905b815481529060010190602001808311611ac457829003601f168201915b50505050508152602001600282018054611afa9061590d565b80601f0160208091040260200160405190810160405280929190818152602001828054611b269061590d565b8015611b735780601f10611b4857610100808354040283529160200191611b73565b820191906000526020600020905b815481529060010190602001808311611b5657829003601f168201915b50505050508152602001600382018054611b8c9061590d565b80601f0160208091040260200160405190810160405280929190818152602001828054611bb89061590d565b8015611c055780601f10611bda57610100808354040283529160200191611c05565b820191906000526020600020905b815481529060010190602001808311611be857829003601f168201915b50505050508152602001600482018054611c1e9061590d565b80601f0160208091040260200160405190810160405280929190818152602001828054611c4a9061590d565b8015611c975780601f10611c6c57610100808354040283529160200191611c97565b820191906000526020600020905b815481529060010190602001808311611c7a57829003601f168201915b50505050508152602001600582015481525050905087565b60018181548110611cbf57600080fd5b90600052602060002090601b0201600091509050806000015490806001015490806002018054611cee9061590d565b80601f0160208091040260200160405190810160405280929190818152602001828054611d1a9061590d565b8015611d675780601f10611d3c57610100808354040283529160200191611d67565b820191906000526020600020905b815481529060010190602001808311611d4a57829003601f168201915b50505050509080600301604051806101000160405290816000820154815260200160018201548152602001600282018054611da19061590d565b80601f0160208091040260200160405190810160405280929190818152602001828054611dcd9061590d565b8015611e1a5780601f10611def57610100808354040283529160200191611e1a565b820191906000526020600020905b815481529060010190602001808311611dfd57829003601f168201915b50505050508152602001600382018054611e339061590d565b80601f0160208091040260200160405190810160405280929190818152602001828054611e5f9061590d565b8015611eac5780601f10611e8157610100808354040283529160200191611eac565b820191906000526020600020905b815481529060010190602001808311611e8f57829003601f168201915b505050505081526020016004820154815260200160058201805480602002602001604051908101604052809291908181526020018280548015611f0e57602002820191906000526020600020905b815481526020019060010190808311611efa575b50505050508152602001600682016040518061012001604052908160008201548152602001600182018054611f429061590d565b80601f0160208091040260200160405190810160405280929190818152602001828054611f6e9061590d565b8015611fbb5780601f10611f9057610100808354040283529160200191611fbb565b820191906000526020600020905b815481529060010190602001808311611f9e57829003601f168201915b50505050508152602001600282018054611fd49061590d565b80601f01602080910402602001604051908101604052809291908181526020018280546120009061590d565b801561204d5780601f106120225761010080835404028352916020019161204d565b820191906000526020600020905b81548152906001019060200180831161203057829003601f168201915b505050505081526020016003820180546120669061590d565b80601f01602080910402602001604051908101604052809291908181526020018280546120929061590d565b80156120df5780601f106120b4576101008083540402835291602001916120df565b820191906000526020600020905b8154815290600101906020018083116120c257829003601f168201915b505050505081526020016004820180546120f89061590d565b80601f01602080910402602001604051908101604052809291908181526020018280546121249061590d565b80156121715780601f1061214657610100808354040283529160200191612171565b820191906000526020600020905b81548152906001019060200180831161215457829003601f168201915b50505050508152602001600582015481526020016006820154815260200160078201805461219e9061590d565b80601f01602080910402602001604051908101604052809291908181526020018280546121ca9061590d565b80156122175780601f106121ec57610100808354040283529160200191612217565b820191906000526020600020905b8154815290600101906020018083116121fa57829003601f168201915b505050505081526020016008820180546122309061590d565b80601f016020809104026020016040519081016040528092919081815260200182805461225c9061590d565b80156122a95780601f1061227e576101008083540402835291602001916122a9565b820191906000526020600020905b81548152906001019060200180831161228c57829003601f168201915b5050505050815250508152602001600f8201604051806060016040529081600082015481526020016001820180546122e09061590d565b80601f016020809104026020016040519081016040528092919081815260200182805461230c9061590d565b80156123595780601f1061232e57610100808354040283529160200191612359565b820191906000526020600020905b81548152906001019060200180831161233c57829003601f168201915b505050505081526020016002820180546123729061590d565b80601f016020809104026020016040519081016040528092919081815260200182805461239e9061590d565b80156123eb5780601f106123c0576101008083540402835291602001916123eb565b820191906000526020600020905b8154815290600101906020018083116123ce57829003601f168201915b5050505050815250508152505090806015016040518060c0016040529081600082015481526020016001820180546124229061590d565b80601f016020809104026020016040519081016040528092919081815260200182805461244e9061590d565b801561249b5780601f106124705761010080835404028352916020019161249b565b820191906000526020600020905b81548152906001019060200180831161247e57829003601f168201915b5050505050815260200160028201548152602001600382015481526020016004820180546124c89061590d565b80601f01602080910402602001604051908101604052809291908181526020018280546124f49061590d565b80156125415780601f1061251657610100808354040283529160200191612541565b820191906000526020600020905b81548152906001019060200180831161252457829003601f168201915b505050505081526020016005820180548060200260200160405190810160405280929190818152602001828054801561259957602002820191906000526020600020905b815481526020019060010190808311612585575b505050505081525050905085565b60606001805480602002602001604051908101604052809291908181526020016000905b82821015612ee157838290600052602060002090601b02016040518060a001604052908160008201548152602001600182015481526020016002820180546126129061590d565b80601f016020809104026020016040519081016040528092919081815260200182805461263e9061590d565b801561268b5780601f106126605761010080835404028352916020019161268b565b820191906000526020600020905b81548152906001019060200180831161266e57829003601f168201915b50505050508152602001600382016040518061010001604052908160008201548152602001600182015481526020016002820180546126c99061590d565b80601f01602080910402602001604051908101604052809291908181526020018280546126f59061590d565b80156127425780601f1061271757610100808354040283529160200191612742565b820191906000526020600020905b81548152906001019060200180831161272557829003601f168201915b5050505050815260200160038201805461275b9061590d565b80601f01602080910402602001604051908101604052809291908181526020018280546127879061590d565b80156127d45780601f106127a9576101008083540402835291602001916127d4565b820191906000526020600020905b8154815290600101906020018083116127b757829003601f168201915b50505050508152602001600482015481526020016005820180548060200260200160405190810160405280929190818152602001828054801561283657602002820191906000526020600020905b815481526020019060010190808311612822575b5050505050815260200160068201604051806101200160405290816000820154815260200160018201805461286a9061590d565b80601f01602080910402602001604051908101604052809291908181526020018280546128969061590d565b80156128e35780601f106128b8576101008083540402835291602001916128e3565b820191906000526020600020905b8154815290600101906020018083116128c657829003601f168201915b505050505081526020016002820180546128fc9061590d565b80601f01602080910402602001604051908101604052809291908181526020018280546129289061590d565b80156129755780601f1061294a57610100808354040283529160200191612975565b820191906000526020600020905b81548152906001019060200180831161295857829003601f168201915b5050505050815260200160038201805461298e9061590d565b80601f01602080910402602001604051908101604052809291908181526020018280546129ba9061590d565b8015612a075780601f106129dc57610100808354040283529160200191612a07565b820191906000526020600020905b8154815290600101906020018083116129ea57829003601f168201915b50505050508152602001600482018054612a209061590d565b80601f0160208091040260200160405190810160405280929190818152602001828054612a4c9061590d565b8015612a995780601f10612a6e57610100808354040283529160200191612a99565b820191906000526020600020905b815481529060010190602001808311612a7c57829003601f168201915b505050505081526020016005820154815260200160068201548152602001600782018054612ac69061590d565b80601f0160208091040260200160405190810160405280929190818152602001828054612af29061590d565b8015612b3f5780601f10612b1457610100808354040283529160200191612b3f565b820191906000526020600020905b815481529060010190602001808311612b2257829003601f168201915b50505050508152602001600882018054612b589061590d565b80601f0160208091040260200160405190810160405280929190818152602001828054612b849061590d565b8015612bd15780601f10612ba657610100808354040283529160200191612bd1565b820191906000526020600020905b815481529060010190602001808311612bb457829003601f168201915b5050505050815250508152602001600f820160405180606001604052908160008201548152602001600182018054612c089061590d565b80601f0160208091040260200160405190810160405280929190818152602001828054612c349061590d565b8015612c815780601f10612c5657610100808354040283529160200191612c81565b820191906000526020600020905b815481529060010190602001808311612c6457829003601f168201915b50505050508152602001600282018054612c9a9061590d565b80601f0160208091040260200160405190810160405280929190818152602001828054612cc69061590d565b8015612d135780601f10612ce857610100808354040283529160200191612d13565b820191906000526020600020905b815481529060010190602001808311612cf657829003601f168201915b505050505081525050815250508152602001601582016040518060c001604052908160008201548152602001600182018054612d4e9061590d565b80601f0160208091040260200160405190810160405280929190818152602001828054612d7a9061590d565b8015612dc75780601f10612d9c57610100808354040283529160200191612dc7565b820191906000526020600020905b815481529060010190602001808311612daa57829003601f168201915b505050505081526020016002820154815260200160038201548152602001600482018054612df49061590d565b80601f0160208091040260200160405190810160405280929190818152602001828054612e209061590d565b8015612e6d5780601f10612e4257610100808354040283529160200191612e6d565b820191906000526020600020905b815481529060010190602001808311612e5057829003601f168201915b5050505050815260200160058201805480602002602001604051908101604052809291908181526020018280548015612ec557602002820191906000526020600020905b815481526020019060010190808311612eb1575b50505050508152505081525050815260200190600101906125cb565b50505050905090565b606060026000908060018154018082558091505060019003906000526020600020016000909190919091505560005b828110156131d4576001848281518110612f3657612f356158af565b5b602002602001015190806001815401808255809150506001900390600052602060002090601b020160009091909190915060008201518160000155602082015181600101556040820151816002019080519060200190612f97929190613b54565b5060608201518160030160008201518160000155602082015181600101556040820151816002019080519060200190612fd1929190613b54565b506060820151816003019080519060200190612fee929190613b54565b506080820151816004015560a0820151816005019080519060200190613015929190613bda565b5060c082015181600601600082015181600001556020820151816001019080519060200190613045929190613b54565b506040820151816002019080519060200190613062929190613b54565b50606082015181600301908051906020019061307f929190613b54565b50608082015181600401908051906020019061309c929190613b54565b5060a0820151816005015560c0820151816006015560e08201518160070190805190602001906130cd929190613b54565b506101008201518160080190805190602001906130eb929190613b54565b50505060e082015181600f0160008201518160000155602082015181600101908051906020019061311d929190613b54565b50604082015181600201908051906020019061313a929190613b54565b505050505060808201518160150160008201518160000155602082015181600101908051906020019061316e929190613b54565b506040820151816002015560608201518160030155608082015181600401908051906020019061319f929190613b54565b5060a08201518160050190805190602001906131bc929190613bda565b505050505080806131cc9061596e565b915050612f19565b506001805480602002602001604051908101604052809291908181526020016000905b82821015613b0d57838290600052602060002090601b02016040518060a0016040529081600082015481526020016001820154815260200160028201805461323e9061590d565b80601f016020809104026020016040519081016040528092919081815260200182805461326a9061590d565b80156132b75780601f1061328c576101008083540402835291602001916132b7565b820191906000526020600020905b81548152906001019060200180831161329a57829003601f168201915b50505050508152602001600382016040518061010001604052908160008201548152602001600182015481526020016002820180546132f59061590d565b80601f01602080910402602001604051908101604052809291908181526020018280546133219061590d565b801561336e5780601f106133435761010080835404028352916020019161336e565b820191906000526020600020905b81548152906001019060200180831161335157829003601f168201915b505050505081526020016003820180546133879061590d565b80601f01602080910402602001604051908101604052809291908181526020018280546133b39061590d565b80156134005780601f106133d557610100808354040283529160200191613400565b820191906000526020600020905b8154815290600101906020018083116133e357829003601f168201915b50505050508152602001600482015481526020016005820180548060200260200160405190810160405280929190818152602001828054801561346257602002820191906000526020600020905b81548152602001906001019080831161344e575b505050505081526020016006820160405180610120016040529081600082015481526020016001820180546134969061590d565b80601f01602080910402602001604051908101604052809291908181526020018280546134c29061590d565b801561350f5780601f106134e45761010080835404028352916020019161350f565b820191906000526020600020905b8154815290600101906020018083116134f257829003601f168201915b505050505081526020016002820180546135289061590d565b80601f01602080910402602001604051908101604052809291908181526020018280546135549061590d565b80156135a15780601f10613576576101008083540402835291602001916135a1565b820191906000526020600020905b81548152906001019060200180831161358457829003601f168201915b505050505081526020016003820180546135ba9061590d565b80601f01602080910402602001604051908101604052809291908181526020018280546135e69061590d565b80156136335780601f1061360857610100808354040283529160200191613633565b820191906000526020600020905b81548152906001019060200180831161361657829003601f168201915b5050505050815260200160048201805461364c9061590d565b80601f01602080910402602001604051908101604052809291908181526020018280546136789061590d565b80156136c55780601f1061369a576101008083540402835291602001916136c5565b820191906000526020600020905b8154815290600101906020018083116136a857829003601f168201915b5050505050815260200160058201548152602001600682015481526020016007820180546136f29061590d565b80601f016020809104026020016040519081016040528092919081815260200182805461371e9061590d565b801561376b5780601f106137405761010080835404028352916020019161376b565b820191906000526020600020905b81548152906001019060200180831161374e57829003601f168201915b505050505081526020016008820180546137849061590d565b80601f01602080910402602001604051908101604052809291908181526020018280546137b09061590d565b80156137fd5780601f106137d2576101008083540402835291602001916137fd565b820191906000526020600020905b8154815290600101906020018083116137e057829003601f168201915b5050505050815250508152602001600f8201604051806060016040529081600082015481526020016001820180546138349061590d565b80601f01602080910402602001604051908101604052809291908181526020018280546138609061590d565b80156138ad5780601f10613882576101008083540402835291602001916138ad565b820191906000526020600020905b81548152906001019060200180831161389057829003601f168201915b505050505081526020016002820180546138c69061590d565b80601f01602080910402602001604051908101604052809291908181526020018280546138f29061590d565b801561393f5780601f106139145761010080835404028352916020019161393f565b820191906000526020600020905b81548152906001019060200180831161392257829003601f168201915b505050505081525050815250508152602001601582016040518060c00160405290816000820154815260200160018201805461397a9061590d565b80601f01602080910402602001604051908101604052809291908181526020018280546139a69061590d565b80156139f35780601f106139c8576101008083540402835291602001916139f3565b820191906000526020600020905b8154815290600101906020018083116139d657829003601f168201915b505050505081526020016002820154815260200160038201548152602001600482018054613a209061590d565b80601f0160208091040260200160405190810160405280929190818152602001828054613a4c9061590d565b8015613a995780601f10613a6e57610100808354040283529160200191613a99565b820191906000526020600020905b815481529060010190602001808311613a7c57829003601f168201915b5050505050815260200160058201805480602002602001604051908101604052809291908181526020018280548015613af157602002820191906000526020600020905b815481526020019060010190808311613add575b50505050508152505081525050815260200190600101906131f7565b50505050905092915050565b6040518060a00160405280600081526020016000815260200160608152602001613b41613c27565b8152602001613b4e613c78565b81525090565b828054613b609061590d565b90600052602060002090601f016020900481019282613b825760008555613bc9565b82601f10613b9b57805160ff1916838001178555613bc9565b82800160010185558215613bc9579182015b82811115613bc8578251825591602001919060010190613bad565b5b509050613bd69190613cae565b5090565b828054828255906000526020600020908101928215613c16579160200282015b82811115613c15578251825591602001919060010190613bfa565b5b509050613c239190613cae565b5090565b604051806101000160405280600081526020016000815260200160608152602001606081526020016000815260200160608152602001613c65613ccb565b8152602001613c72613d17565b81525090565b6040518060c001604052806000815260200160608152602001600081526020016000815260200160608152602001606081525090565b5b80821115613cc7576000816000905550600101613caf565b5090565b6040518061012001604052806000815260200160608152602001606081526020016060815260200160608152602001600081526020016000815260200160608152602001606081525090565b60405180606001604052806000815260200160608152602001606081525090565b6000604051905090565b600080fd5b600080fd5b6000819050919050565b613d5f81613d4c565b8114613d6a57600080fd5b50565b600081359050613d7c81613d56565b92915050565b600060208284031215613d9857613d97613d42565b5b6000613da684828501613d6d565b91505092915050565b613db881613d4c565b82525050565b6000819050919050565b613dd181613dbe565b82525050565b600081519050919050565b600082825260208201905092915050565b60005b83811015613e11578082015181840152602081019050613df6565b83811115613e20576000848401525b50505050565b6000601f19601f8301169050919050565b6000613e4282613dd7565b613e4c8185613de2565b9350613e5c818560208601613df3565b613e6581613e26565b840191505092915050565b600081519050919050565b600082825260208201905092915050565b6000819050602082019050919050565b6000613ea88383613daf565b60208301905092915050565b6000602082019050919050565b6000613ecc82613e70565b613ed68185613e7b565b9350613ee183613e8c565b8060005b83811015613f12578151613ef98882613e9c565b9750613f0483613eb4565b925050600181019050613ee5565b5085935050505092915050565b600061012083016000830151613f386000860182613daf565b5060208301518482036020860152613f508282613e37565b91505060408301518482036040860152613f6a8282613e37565b91505060608301518482036060860152613f848282613e37565b91505060808301518482036080860152613f9e8282613e37565b91505060a0830151613fb360a0860182613daf565b5060c0830151613fc660c0860182613daf565b5060e083015184820360e0860152613fde8282613e37565b915050610100830151848203610100860152613ffa8282613e37565b9150508091505092915050565b600060608301600083015161401f6000860182613daf565b50602083015184820360208601526140378282613e37565b915050604083015184820360408601526140518282613e37565b9150508091505092915050565b6000610100830160008301516140776000860182613daf565b50602083015161408a6020860182613daf565b50604083015184820360408601526140a28282613e37565b915050606083015184820360608601526140bc8282613e37565b91505060808301516140d16080860182613daf565b5060a083015184820360a08601526140e98282613ec1565b91505060c083015184820360c08601526141038282613f1f565b91505060e083015184820360e086015261411d8282614007565b9150508091505092915050565b600060c0830160008301516141426000860182613daf565b506020830151848203602086015261415a8282613e37565b915050604083015161416f6040860182613daf565b5060608301516141826060860182613daf565b506080830151848203608086015261419a8282613e37565b91505060a083015184820360a08601526141b48282613ec1565b9150508091505092915050565b600060a0830160008301516141d96000860182613daf565b5060208301516141ec6020860182613dc8565b50604083015184820360408601526142048282613e37565b9150506060830151848203606086015261421e828261405e565b91505060808301518482036080860152614238828261412a565b9150508091505092915050565b6000602082019050818103600083015261425f81846141c1565b905092915050565b600080fd5b7f4e487b7100000000000000000000000000000000000000000000000000000000600052604160045260246000fd5b6142a482613e26565b810181811067ffffffffffffffff821117156142c3576142c261426c565b5b80604052505050565b60006142d6613d38565b90506142e2828261429b565b919050565b600067ffffffffffffffff8211156143025761430161426c565b5b602082029050602081019050919050565b600080fd5b600080fd5b600080fd5b600080fd5b600067ffffffffffffffff8211156143425761434161426c565b5b61434b82613e26565b9050602081019050919050565b82818337600083830152505050565b600061437a61437584614327565b6142cc565b90508281526020810184848401111561439657614395614322565b5b6143a1848285614358565b509392505050565b600082601f8301126143be576143bd614267565b5b81356143ce848260208601614367565b91505092915050565b600060c082840312156143ed576143ec614318565b5b6143f760c06142cc565b9050600061440784828501613d6d565b600083015250602082013567ffffffffffffffff81111561442b5761442a61431d565b5b614437848285016143a9565b602083015250604082013567ffffffffffffffff81111561445b5761445a61431d565b5b614467848285016143a9565b604083015250606082013567ffffffffffffffff81111561448b5761448a61431d565b5b614497848285016143a9565b606083015250608082013567ffffffffffffffff8111156144bb576144ba61431d565b5b6144c7848285016143a9565b60808301525060a082013567ffffffffffffffff8111156144eb576144ea61431d565b5b6144f7848285016143a9565b60a08301525092915050565b600060c0828403121561451957614518614318565b5b61452360c06142cc565b9050600061453384828501613d6d565b600083015250602082013567ffffffffffffffff8111156145575761455661431d565b5b614563848285016143a9565b602083015250604082013567ffffffffffffffff8111156145875761458661431d565b5b614593848285016143a9565b604083015250606082013567ffffffffffffffff8111156145b7576145b661431d565b5b6145c3848285016143a9565b606083015250608082013567ffffffffffffffff8111156145e7576145e661431d565b5b6145f3848285016143a9565b60808301525060a061460784828501613d6d565b60a08301525092915050565b600060e0828403121561462957614628614318565b5b61463360e06142cc565b9050600061464384828501613d6d565b600083015250602061465784828501613d6d565b602083015250604082013567ffffffffffffffff81111561467b5761467a61431d565b5b614687848285016143a9565b604083015250606082013567ffffffffffffffff8111156146ab576146aa61431d565b5b6146b7848285016143a9565b60608301525060806146cb84828501613d6d565b60808301525060a082013567ffffffffffffffff8111156146ef576146ee61431d565b5b6146fb848285016143d7565b60a08301525060c082013567ffffffffffffffff81111561471f5761471e61431d565b5b61472b84828501614503565b60c08301525092915050565b600061474a614745846142e7565b6142cc565b9050808382526020820190506020840283018581111561476d5761476c614313565b5b835b818110156147b457803567ffffffffffffffff81111561479257614791614267565b5b80860161479f8982614613565b8552602085019450505060208101905061476f565b5050509392505050565b600082601f8301126147d3576147d2614267565b5b81356147e3848260208601614737565b91505092915050565b6000806040838503121561480357614802613d42565b5b600061481185828601613d6d565b925050602083013567ffffffffffffffff81111561483257614831613d47565b5b61483e858286016147be565b9150509250929050565b600081519050919050565b600082825260208201905092915050565b6000819050602082019050919050565b600060c08301600083015161488c6000860182613daf565b50602083015184820360208601526148a48282613e37565b915050604083015184820360408601526148be8282613e37565b915050606083015184820360608601526148d88282613e37565b915050608083015184820360808601526148f28282613e37565b91505060a083015184820360a086015261490c8282613e37565b9150508091505092915050565b600060c0830160008301516149316000860182613daf565b50602083015184820360208601526149498282613e37565b915050604083015184820360408601526149638282613e37565b9150506060830151848203606086015261497d8282613e37565b915050608083015184820360808601526149978282613e37565b91505060a08301516149ac60a0860182613daf565b508091505092915050565b600060e0830160008301516149cf6000860182613daf565b5060208301516149e26020860182613daf565b50604083015184820360408601526149fa8282613e37565b91505060608301518482036060860152614a148282613e37565b9150506080830151614a296080860182613daf565b5060a083015184820360a0860152614a418282614874565b91505060c083015184820360c0860152614a5b8282614919565b9150508091505092915050565b6000614a7483836149b7565b905092915050565b6000602082019050919050565b6000614a9482614848565b614a9e8185614853565b935083602082028501614ab085614864565b8060005b85811015614aec5784840389528151614acd8582614a68565b9450614ad883614a7c565b925060208a01995050600181019050614ab4565b50829750879550505050505092915050565b60006020820190508181036000830152614b188184614a89565b905092915050565b614b2981613d4c565b82525050565b6000602082019050614b446000830184614b20565b92915050565b600082825260208201905092915050565b6000614b6682613e70565b614b708185614b4a565b9350614b7b83613e8c565b8060005b83811015614bac578151614b938882613e9c565b9750614b9e83613eb4565b925050600181019050614b7f565b5085935050505092915050565b60006020820190508181036000830152614bd38184614b5b565b905092915050565b600082825260208201905092915050565b6000614bf782613dd7565b614c018185614bdb565b9350614c11818560208601613df3565b614c1a81613e26565b840191505092915050565b600060c083016000830151614c3d6000860182613daf565b5060208301518482036020860152614c558282613e37565b91505060408301518482036040860152614c6f8282613e37565b91505060608301518482036060860152614c898282613e37565b91505060808301518482036080860152614ca38282613e37565b91505060a083015184820360a0860152614cbd8282613e37565b9150508091505092915050565b600060c083016000830151614ce26000860182613daf565b5060208301518482036020860152614cfa8282613e37565b91505060408301518482036040860152614d148282613e37565b91505060608301518482036060860152614d2e8282613e37565b91505060808301518482036080860152614d488282613e37565b91505060a0830151614d5d60a0860182613daf565b508091505092915050565b600060e082019050614d7d600083018a614b20565b614d8a6020830189614b20565b8181036040830152614d9c8188614bec565b90508181036060830152614db08187614bec565b9050614dbf6080830186614b20565b81810360a0830152614dd18185614c25565b905081810360c0830152614de58184614cca565b905098975050505050505050565b614dfc81613dbe565b82525050565b600061010083016000830151614e1b6000860182613daf565b506020830151614e2e6020860182613daf565b5060408301518482036040860152614e468282613e37565b91505060608301518482036060860152614e608282613e37565b9150506080830151614e756080860182613daf565b5060a083015184820360a0860152614e8d8282613ec1565b91505060c083015184820360c0860152614ea78282613f1f565b91505060e083015184820360e0860152614ec18282614007565b9150508091505092915050565b600060c083016000830151614ee66000860182613daf565b5060208301518482036020860152614efe8282613e37565b9150506040830151614f136040860182613daf565b506060830151614f266060860182613daf565b5060808301518482036080860152614f3e8282613e37565b91505060a083015184820360a0860152614f588282613ec1565b9150508091505092915050565b600060a082019050614f7a6000830188614b20565b614f876020830187614df3565b8181036040830152614f998186614bec565b90508181036060830152614fad8185614e02565b90508181036080830152614fc18184614ece565b90509695505050505050565b600081519050919050565b600082825260208201905092915050565b6000819050602082019050919050565b600060a0830160008301516150116000860182613daf565b5060208301516150246020860182613dc8565b506040830151848203604086015261503c8282613e37565b91505060608301518482036060860152615056828261405e565b91505060808301518482036080860152615070828261412a565b9150508091505092915050565b60006150898383614ff9565b905092915050565b6000602082019050919050565b60006150a982614fcd565b6150b38185614fd8565b9350836020820285016150c585614fe9565b8060005b8581101561510157848403895281516150e2858261507d565b94506150ed83615091565b925060208a019950506001810190506150c9565b50829750879550505050505092915050565b6000602082019050818103600083015261512d818461509e565b905092915050565b600067ffffffffffffffff8211156151505761514f61426c565b5b602082029050602081019050919050565b61516a81613dbe565b811461517557600080fd5b50565b60008135905061518781615161565b92915050565b600067ffffffffffffffff8211156151a8576151a761426c565b5b602082029050602081019050919050565b60006151cc6151c78461518d565b6142cc565b905080838252602082019050602084028301858111156151ef576151ee614313565b5b835b8181101561521857806152048882613d6d565b8452602084019350506020810190506151f1565b5050509392505050565b600082601f83011261523757615236614267565b5b81356152478482602086016151b9565b91505092915050565b6000610120828403121561526757615266614318565b5b6152726101206142cc565b9050600061528284828501613d6d565b600083015250602082013567ffffffffffffffff8111156152a6576152a561431d565b5b6152b2848285016143a9565b602083015250604082013567ffffffffffffffff8111156152d6576152d561431d565b5b6152e2848285016143a9565b604083015250606082013567ffffffffffffffff8111156153065761530561431d565b5b615312848285016143a9565b606083015250608082013567ffffffffffffffff8111156153365761533561431d565b5b615342848285016143a9565b60808301525060a061535684828501613d6d565b60a08301525060c061536a84828501613d6d565b60c08301525060e082013567ffffffffffffffff81111561538e5761538d61431d565b5b61539a848285016143a9565b60e08301525061010082013567ffffffffffffffff8111156153bf576153be61431d565b5b6153cb848285016143a9565b6101008301525092915050565b6000606082840312156153ee576153ed614318565b5b6153f860606142cc565b9050600061540884828501613d6d565b600083015250602082013567ffffffffffffffff81111561542c5761542b61431d565b5b615438848285016143a9565b602083015250604082013567ffffffffffffffff81111561545c5761545b61431d565b5b615468848285016143a9565b60408301525092915050565b6000610100828403121561548b5761548a614318565b5b6154966101006142cc565b905060006154a684828501613d6d565b60008301525060206154ba84828501613d6d565b602083015250604082013567ffffffffffffffff8111156154de576154dd61431d565b5b6154ea848285016143a9565b604083015250606082013567ffffffffffffffff81111561550e5761550d61431d565b5b61551a848285016143a9565b606083015250608061552e84828501613d6d565b60808301525060a082013567ffffffffffffffff8111156155525761555161431d565b5b61555e84828501615222565b60a08301525060c082013567ffffffffffffffff8111156155825761558161431d565b5b61558e84828501615250565b60c08301525060e082013567ffffffffffffffff8111156155b2576155b161431d565b5b6155be848285016153d8565b60e08301525092915050565b600060c082840312156155e0576155df614318565b5b6155ea60c06142cc565b905060006155fa84828501613d6d565b600083015250602082013567ffffffffffffffff81111561561e5761561d61431d565b5b61562a848285016143a9565b602083015250604061563e84828501613d6d565b604083015250606061565284828501613d6d565b606083015250608082013567ffffffffffffffff8111156156765761567561431d565b5b615682848285016143a9565b60808301525060a082013567ffffffffffffffff8111156156a6576156a561431d565b5b6156b284828501615222565b60a08301525092915050565b600060a082840312156156d4576156d3614318565b5b6156de60a06142cc565b905060006156ee84828501613d6d565b600083015250602061570284828501615178565b602083015250604082013567ffffffffffffffff8111156157265761572561431d565b5b615732848285016143a9565b604083015250606082013567ffffffffffffffff8111156157565761575561431d565b5b61576284828501615474565b606083015250608082013567ffffffffffffffff8111156157865761578561431d565b5b615792848285016155ca565b60808301525092915050565b60006157b16157ac84615135565b6142cc565b905080838252602082019050602084028301858111156157d4576157d3614313565b5b835b8181101561581b57803567ffffffffffffffff8111156157f9576157f8614267565b5b80860161580689826156be565b855260208501945050506020810190506157d6565b5050509392505050565b600082601f83011261583a57615839614267565b5b813561584a84826020860161579e565b91505092915050565b6000806040838503121561586a57615869613d42565b5b600083013567ffffffffffffffff81111561588857615887613d47565b5b61589485828601615825565b92505060206158a585828601613d6d565b9150509250929050565b7f4e487b7100000000000000000000000000000000000000000000000000000000600052603260045260246000fd5b7f4e487b7100000000000000000000000000000000000000000000000000000000600052602260045260246000fd5b6000600282049050600182168061592557607f821691505b60208210811415615939576159386158de565b5b50919050565b7f4e487b7100000000000000000000000000000000000000000000000000000000600052601160045260246000fd5b600061597982613d4c565b91507fffffffffffffffffffffffffffffffffffffffffffffffffffffffffffffffff8214156159ac576159ab61593f565b5b60018201905091905056fea2646970667358221220f6bee22593c14a28765e5837cbbd099bc7d7577c145ef489efa8834a31b528c264736f6c634300080b0033",
  "immutableReferences": {},
  "source": "// SPDX-License-Identifier: MIT\r\npragma solidity >=0.4.22 <0.9.0;\r\nimport \"./Remplissage.sol\";\r\n\r\ncontract RetraitCol is Remplissage {\r\n    //*********************************************************************************/\r\n    //second app\r\n    //******************************************************************************/\r\n    Operation[] public operationagrs;\r\n    OperationTank0[] public operationTankR;\r\n    uint[] public nbreOP ;\r\n    \r\n    function RetraitOperationTank(\r\n        OperationTank0[] memory operationTank,\r\n        uint256 count\r\n    ) public returns (OperationTank0[] memory tt0) {\r\n        nbreOP.push(0);\r\n        for (uint256 i = 0; i < count; i++) {\r\n            operationTankR.push(operationTank[i]);\r\n        }\r\n        return (operationTankR);\r\n    }\r\n    //get nombre operatuin\r\n    function getOperationNumbers()\r\n        public\r\n        view\r\n        returns (uint[] memory result)\r\n    {\r\n        return nbreOP;\r\n    }\r\n    //get all operations\r\n\r\n    function getOperationTanks()\r\n        public\r\n        view\r\n        returns (OperationTank0[] memory result)\r\n    {\r\n        return operationTankR;\r\n    }\r\n\r\n    function getOperationbycode(uint256 code, Operation[] memory operation2)\r\n        public\r\n        returns (Operation[] memory operationtwo)\r\n    {\r\n        for (uint256 i = 0; i < operationTankR.length; i++) {\r\n            if (operationTankR[i].operation.code == code) {\r\n                for (uint256 j = 0;j < operationTankR[i].tank.codeTank.length;j++)\r\n                   {\r\n                    for (uint256 f = 0; f < operation2.length; f++) {\r\n                        if (\r\n                            operation2[f].code ==\r\n                            operationTankR[i].tank.codeTank[j]\r\n                        ) {\r\n                            operationagrs.push(operation2[f]);\r\n                        }\r\n                    }\r\n                }\r\n            }\r\n        }\r\n        return operationagrs;\r\n    }\r\n\r\n    function getOperationFromAgrsbycode(uint256 code)\r\n        public\r\n        view\r\n        returns (OperationTank0 memory operation)\r\n    {\r\n        for (uint256 i = 0; i < operationTankR.length; i++) {\r\n            if (operationTankR[i].operation.code == code) {\r\n                return operationTankR[i];\r\n            }\r\n        }\r\n    }\r\n}\r\n",
  "sourcePath": "C:\\Users\\ASUS\\Desktop\\pfe\\PFE_Project2022-Collecteur-\\PFE-FrontEnd\\contracts\\RetraitCol.sol",
  "compiler": {
    "name": "solc",
    "version": "0.8.11+commit.d7f03943.Emscripten.clang"
  },
  "schemaVersion": "3.4.5",
  "updatedAt": "2022-05-31T22:50:55.608Z",
  "networkType": "ethereum",
  "devdoc": {
    "kind": "dev",
    "methods": {},
    "version": 1
  },
  "userdoc": {
    "kind": "user",
    "methods": {},
    "version": 1
  }
}