{
  "contractName": "RetraitCol",
  "abi": [
    {
      "inputs": [
        {
          "internalType": "uint256",
          "name": "",
          "type": "uint256"
        }
      ],
      "name": "operationTankR",
      "outputs": [
        {
          "internalType": "uint256",
          "name": "idOpTank",
          "type": "uint256"
        },
        {
          "internalType": "uint256",
          "name": "qteInsereTank",
          "type": "uint256"
        },
        {
          "internalType": "string",
          "name": "date",
          "type": "string"
        },
        {
          "components": [
            {
              "internalType": "uint256",
              "name": "idOperation",
              "type": "uint256"
            },
            {
              "internalType": "uint256",
              "name": "poidsLait",
              "type": "uint256"
            },
            {
              "internalType": "string",
              "name": "dateOperation",
              "type": "string"
            },
            {
              "internalType": "string",
              "name": "typeOp",
              "type": "string"
            },
            {
              "internalType": "uint256",
              "name": "code",
              "type": "uint256"
            },
            {
              "components": [
                {
                  "internalType": "uint256",
                  "name": "idChef",
                  "type": "uint256"
                },
                {
                  "internalType": "string",
                  "name": "nom",
                  "type": "string"
                },
                {
                  "internalType": "string",
                  "name": "prenom",
                  "type": "string"
                },
                {
                  "internalType": "string",
                  "name": "email",
                  "type": "string"
                },
                {
                  "internalType": "string",
                  "name": "adress",
                  "type": "string"
                },
                {
                  "internalType": "uint256",
                  "name": "tel",
                  "type": "uint256"
                },
                {
                  "internalType": "uint256",
                  "name": "cin",
                  "type": "uint256"
                },
                {
                  "internalType": "string",
                  "name": "username",
                  "type": "string"
                },
                {
                  "internalType": "string",
                  "name": "password",
                  "type": "string"
                }
              ],
              "internalType": "struct Remplissage.Chef",
              "name": "chef",
              "type": "tuple"
            },
            {
              "components": [
                {
                  "internalType": "uint256",
                  "name": "idUsine",
                  "type": "uint256"
                },
                {
                  "internalType": "string",
                  "name": "nomUsine",
                  "type": "string"
                },
                {
                  "internalType": "string",
                  "name": "adresse",
                  "type": "string"
                }
              ],
              "internalType": "struct Remplissage.Usine",
              "name": "usine",
              "type": "tuple"
            }
          ],
          "internalType": "struct Remplissage.Operation01",
          "name": "operation",
          "type": "tuple"
        },
        {
          "components": [
            {
              "internalType": "uint256",
              "name": "idTank",
              "type": "uint256"
            },
            {
              "internalType": "string",
              "name": "matricule",
              "type": "string"
            },
            {
              "internalType": "uint256",
              "name": "poidVide",
              "type": "uint256"
            },
            {
              "internalType": "uint256",
              "name": "poidActuel",
              "type": "uint256"
            },
            {
              "internalType": "string",
              "name": "etat",
              "type": "string"
            }
          ],
          "internalType": "struct Remplissage.Tank",
          "name": "tank",
          "type": "tuple"
        }
      ],
      "stateMutability": "view",
      "type": "function",
      "constant": true
    },
    {
      "inputs": [
        {
          "components": [
            {
              "internalType": "uint256",
              "name": "idOpTank",
              "type": "uint256"
            },
            {
              "internalType": "uint256",
              "name": "qteInsereTank",
              "type": "uint256"
            },
            {
              "internalType": "string",
              "name": "date",
              "type": "string"
            },
            {
              "components": [
                {
                  "internalType": "uint256",
                  "name": "idOperation",
                  "type": "uint256"
                },
                {
                  "internalType": "uint256",
                  "name": "poidsLait",
                  "type": "uint256"
                },
                {
                  "internalType": "string",
                  "name": "dateOperation",
                  "type": "string"
                },
                {
                  "internalType": "string",
                  "name": "typeOp",
                  "type": "string"
                },
                {
                  "internalType": "uint256",
                  "name": "code",
                  "type": "uint256"
                },
                {
                  "components": [
                    {
                      "internalType": "uint256",
                      "name": "idChef",
                      "type": "uint256"
                    },
                    {
                      "internalType": "string",
                      "name": "nom",
                      "type": "string"
                    },
                    {
                      "internalType": "string",
                      "name": "prenom",
                      "type": "string"
                    },
                    {
                      "internalType": "string",
                      "name": "email",
                      "type": "string"
                    },
                    {
                      "internalType": "string",
                      "name": "adress",
                      "type": "string"
                    },
                    {
                      "internalType": "uint256",
                      "name": "tel",
                      "type": "uint256"
                    },
                    {
                      "internalType": "uint256",
                      "name": "cin",
                      "type": "uint256"
                    },
                    {
                      "internalType": "string",
                      "name": "username",
                      "type": "string"
                    },
                    {
                      "internalType": "string",
                      "name": "password",
                      "type": "string"
                    }
                  ],
                  "internalType": "struct Remplissage.Chef",
                  "name": "chef",
                  "type": "tuple"
                },
                {
                  "components": [
                    {
                      "internalType": "uint256",
                      "name": "idUsine",
                      "type": "uint256"
                    },
                    {
                      "internalType": "string",
                      "name": "nomUsine",
                      "type": "string"
                    },
                    {
                      "internalType": "string",
                      "name": "adresse",
                      "type": "string"
                    }
                  ],
                  "internalType": "struct Remplissage.Usine",
                  "name": "usine",
                  "type": "tuple"
                }
              ],
              "internalType": "struct Remplissage.Operation01",
              "name": "operation",
              "type": "tuple"
            },
            {
              "components": [
                {
                  "internalType": "uint256",
                  "name": "idTank",
                  "type": "uint256"
                },
                {
                  "internalType": "string",
                  "name": "matricule",
                  "type": "string"
                },
                {
                  "internalType": "uint256",
                  "name": "poidVide",
                  "type": "uint256"
                },
                {
                  "internalType": "uint256",
                  "name": "poidActuel",
                  "type": "uint256"
                },
                {
                  "internalType": "string",
                  "name": "etat",
                  "type": "string"
                }
              ],
              "internalType": "struct Remplissage.Tank",
              "name": "tank",
              "type": "tuple"
            }
          ],
          "internalType": "struct Remplissage.OperationTank0[]",
          "name": "operationTank",
          "type": "tuple[]"
        },
        {
          "internalType": "uint256",
          "name": "count",
          "type": "uint256"
        }
      ],
      "name": "RetraitOperationTank",
      "outputs": [
        {
          "components": [
            {
              "internalType": "uint256",
              "name": "idOpTank",
              "type": "uint256"
            },
            {
              "internalType": "uint256",
              "name": "qteInsereTank",
              "type": "uint256"
            },
            {
              "internalType": "string",
              "name": "date",
              "type": "string"
            },
            {
              "components": [
                {
                  "internalType": "uint256",
                  "name": "idOperation",
                  "type": "uint256"
                },
                {
                  "internalType": "uint256",
                  "name": "poidsLait",
                  "type": "uint256"
                },
                {
                  "internalType": "string",
                  "name": "dateOperation",
                  "type": "string"
                },
                {
                  "internalType": "string",
                  "name": "typeOp",
                  "type": "string"
                },
                {
                  "internalType": "uint256",
                  "name": "code",
                  "type": "uint256"
                },
                {
                  "components": [
                    {
                      "internalType": "uint256",
                      "name": "idChef",
                      "type": "uint256"
                    },
                    {
                      "internalType": "string",
                      "name": "nom",
                      "type": "string"
                    },
                    {
                      "internalType": "string",
                      "name": "prenom",
                      "type": "string"
                    },
                    {
                      "internalType": "string",
                      "name": "email",
                      "type": "string"
                    },
                    {
                      "internalType": "string",
                      "name": "adress",
                      "type": "string"
                    },
                    {
                      "internalType": "uint256",
                      "name": "tel",
                      "type": "uint256"
                    },
                    {
                      "internalType": "uint256",
                      "name": "cin",
                      "type": "uint256"
                    },
                    {
                      "internalType": "string",
                      "name": "username",
                      "type": "string"
                    },
                    {
                      "internalType": "string",
                      "name": "password",
                      "type": "string"
                    }
                  ],
                  "internalType": "struct Remplissage.Chef",
                  "name": "chef",
                  "type": "tuple"
                },
                {
                  "components": [
                    {
                      "internalType": "uint256",
                      "name": "idUsine",
                      "type": "uint256"
                    },
                    {
                      "internalType": "string",
                      "name": "nomUsine",
                      "type": "string"
                    },
                    {
                      "internalType": "string",
                      "name": "adresse",
                      "type": "string"
                    }
                  ],
                  "internalType": "struct Remplissage.Usine",
                  "name": "usine",
                  "type": "tuple"
                }
              ],
              "internalType": "struct Remplissage.Operation01",
              "name": "operation",
              "type": "tuple"
            },
            {
              "components": [
                {
                  "internalType": "uint256",
                  "name": "idTank",
                  "type": "uint256"
                },
                {
                  "internalType": "string",
                  "name": "matricule",
                  "type": "string"
                },
                {
                  "internalType": "uint256",
                  "name": "poidVide",
                  "type": "uint256"
                },
                {
                  "internalType": "uint256",
                  "name": "poidActuel",
                  "type": "uint256"
                },
                {
                  "internalType": "string",
                  "name": "etat",
                  "type": "string"
                }
              ],
              "internalType": "struct Remplissage.Tank",
              "name": "tank",
              "type": "tuple"
            }
          ],
          "internalType": "struct Remplissage.OperationTank0[]",
          "name": "tt0",
          "type": "tuple[]"
        }
      ],
      "stateMutability": "nonpayable",
      "type": "function"
    },
    {
      "inputs": [],
      "name": "getOperationTanks",
      "outputs": [
        {
          "components": [
            {
              "internalType": "uint256",
              "name": "idOpTank",
              "type": "uint256"
            },
            {
              "internalType": "uint256",
              "name": "qteInsereTank",
              "type": "uint256"
            },
            {
              "internalType": "string",
              "name": "date",
              "type": "string"
            },
            {
              "components": [
                {
                  "internalType": "uint256",
                  "name": "idOperation",
                  "type": "uint256"
                },
                {
                  "internalType": "uint256",
                  "name": "poidsLait",
                  "type": "uint256"
                },
                {
                  "internalType": "string",
                  "name": "dateOperation",
                  "type": "string"
                },
                {
                  "internalType": "string",
                  "name": "typeOp",
                  "type": "string"
                },
                {
                  "internalType": "uint256",
                  "name": "code",
                  "type": "uint256"
                },
                {
                  "components": [
                    {
                      "internalType": "uint256",
                      "name": "idChef",
                      "type": "uint256"
                    },
                    {
                      "internalType": "string",
                      "name": "nom",
                      "type": "string"
                    },
                    {
                      "internalType": "string",
                      "name": "prenom",
                      "type": "string"
                    },
                    {
                      "internalType": "string",
                      "name": "email",
                      "type": "string"
                    },
                    {
                      "internalType": "string",
                      "name": "adress",
                      "type": "string"
                    },
                    {
                      "internalType": "uint256",
                      "name": "tel",
                      "type": "uint256"
                    },
                    {
                      "internalType": "uint256",
                      "name": "cin",
                      "type": "uint256"
                    },
                    {
                      "internalType": "string",
                      "name": "username",
                      "type": "string"
                    },
                    {
                      "internalType": "string",
                      "name": "password",
                      "type": "string"
                    }
                  ],
                  "internalType": "struct Remplissage.Chef",
                  "name": "chef",
                  "type": "tuple"
                },
                {
                  "components": [
                    {
                      "internalType": "uint256",
                      "name": "idUsine",
                      "type": "uint256"
                    },
                    {
                      "internalType": "string",
                      "name": "nomUsine",
                      "type": "string"
                    },
                    {
                      "internalType": "string",
                      "name": "adresse",
                      "type": "string"
                    }
                  ],
                  "internalType": "struct Remplissage.Usine",
                  "name": "usine",
                  "type": "tuple"
                }
              ],
              "internalType": "struct Remplissage.Operation01",
              "name": "operation",
              "type": "tuple"
            },
            {
              "components": [
                {
                  "internalType": "uint256",
                  "name": "idTank",
                  "type": "uint256"
                },
                {
                  "internalType": "string",
                  "name": "matricule",
                  "type": "string"
                },
                {
                  "internalType": "uint256",
                  "name": "poidVide",
                  "type": "uint256"
                },
                {
                  "internalType": "uint256",
                  "name": "poidActuel",
                  "type": "uint256"
                },
                {
                  "internalType": "string",
                  "name": "etat",
                  "type": "string"
                }
              ],
              "internalType": "struct Remplissage.Tank",
              "name": "tank",
              "type": "tuple"
            }
          ],
          "internalType": "struct Remplissage.OperationTank0[]",
          "name": "result",
          "type": "tuple[]"
        }
      ],
      "stateMutability": "view",
      "type": "function",
      "constant": true
    }
  ],
  "bytecode": "0x608060405234801561001057600080fd5b50612cec806100206000396000f3fe608060405234801561001057600080fd5b50600436106100415760003560e01c8063a96fe5f014610046578063c9c28e0f1461007a578063f099330514610098575b600080fd5b610060600480360381019061005b9190611da8565b6100c8565b604051610071959493929190612143565b60405180910390f35b61008261090f565b60405161008f919061241f565b60405180910390f35b6100b260048036038101906100ad9190612b52565b6111a1565b6040516100bf919061241f565b60405180910390f35b600081815481106100d857600080fd5b906000526020600020906019020160009150905080600001549080600101549080600201805461010790612bdd565b80601f016020809104026020016040519081016040528092919081815260200182805461013390612bdd565b80156101805780601f1061015557610100808354040283529160200191610180565b820191906000526020600020905b81548152906001019060200180831161016357829003601f168201915b505050505090806003016040518060e001604052908160008201548152602001600182015481526020016002820180546101b990612bdd565b80601f01602080910402602001604051908101604052809291908181526020018280546101e590612bdd565b80156102325780601f1061020757610100808354040283529160200191610232565b820191906000526020600020905b81548152906001019060200180831161021557829003601f168201915b5050505050815260200160038201805461024b90612bdd565b80601f016020809104026020016040519081016040528092919081815260200182805461027790612bdd565b80156102c45780601f10610299576101008083540402835291602001916102c4565b820191906000526020600020905b8154815290600101906020018083116102a757829003601f168201915b505050505081526020016004820154815260200160058201604051806101200160405290816000820154815260200160018201805461030290612bdd565b80601f016020809104026020016040519081016040528092919081815260200182805461032e90612bdd565b801561037b5780601f106103505761010080835404028352916020019161037b565b820191906000526020600020905b81548152906001019060200180831161035e57829003601f168201915b5050505050815260200160028201805461039490612bdd565b80601f01602080910402602001604051908101604052809291908181526020018280546103c090612bdd565b801561040d5780601f106103e25761010080835404028352916020019161040d565b820191906000526020600020905b8154815290600101906020018083116103f057829003601f168201915b5050505050815260200160038201805461042690612bdd565b80601f016020809104026020016040519081016040528092919081815260200182805461045290612bdd565b801561049f5780601f106104745761010080835404028352916020019161049f565b820191906000526020600020905b81548152906001019060200180831161048257829003601f168201915b505050505081526020016004820180546104b890612bdd565b80601f01602080910402602001604051908101604052809291908181526020018280546104e490612bdd565b80156105315780601f1061050657610100808354040283529160200191610531565b820191906000526020600020905b81548152906001019060200180831161051457829003601f168201915b50505050508152602001600582015481526020016006820154815260200160078201805461055e90612bdd565b80601f016020809104026020016040519081016040528092919081815260200182805461058a90612bdd565b80156105d75780601f106105ac576101008083540402835291602001916105d7565b820191906000526020600020905b8154815290600101906020018083116105ba57829003601f168201915b505050505081526020016008820180546105f090612bdd565b80601f016020809104026020016040519081016040528092919081815260200182805461061c90612bdd565b80156106695780601f1061063e57610100808354040283529160200191610669565b820191906000526020600020905b81548152906001019060200180831161064c57829003601f168201915b5050505050815250508152602001600e8201604051806060016040529081600082015481526020016001820180546106a090612bdd565b80601f01602080910402602001604051908101604052809291908181526020018280546106cc90612bdd565b80156107195780601f106106ee57610100808354040283529160200191610719565b820191906000526020600020905b8154815290600101906020018083116106fc57829003601f168201915b5050505050815260200160028201805461073290612bdd565b80601f016020809104026020016040519081016040528092919081815260200182805461075e90612bdd565b80156107ab5780601f10610780576101008083540402835291602001916107ab565b820191906000526020600020905b81548152906001019060200180831161078e57829003601f168201915b5050505050815250508152505090806014016040518060a0016040529081600082015481526020016001820180546107e290612bdd565b80601f016020809104026020016040519081016040528092919081815260200182805461080e90612bdd565b801561085b5780601f106108305761010080835404028352916020019161085b565b820191906000526020600020905b81548152906001019060200180831161083e57829003601f168201915b50505050508152602001600282015481526020016003820154815260200160048201805461088890612bdd565b80601f01602080910402602001604051908101604052809291908181526020018280546108b490612bdd565b80156109015780601f106108d657610100808354040283529160200191610901565b820191906000526020600020905b8154815290600101906020018083116108e457829003601f168201915b505050505081525050905085565b60606000805480602002602001604051908101604052809291908181526020016000905b8282101561119857838290600052602060002090601902016040518060a0016040529081600082015481526020016001820154815260200160028201805461097a90612bdd565b80601f01602080910402602001604051908101604052809291908181526020018280546109a690612bdd565b80156109f35780601f106109c8576101008083540402835291602001916109f3565b820191906000526020600020905b8154815290600101906020018083116109d657829003601f168201915b50505050508152602001600382016040518060e00160405290816000820154815260200160018201548152602001600282018054610a3090612bdd565b80601f0160208091040260200160405190810160405280929190818152602001828054610a5c90612bdd565b8015610aa95780601f10610a7e57610100808354040283529160200191610aa9565b820191906000526020600020905b815481529060010190602001808311610a8c57829003601f168201915b50505050508152602001600382018054610ac290612bdd565b80601f0160208091040260200160405190810160405280929190818152602001828054610aee90612bdd565b8015610b3b5780601f10610b1057610100808354040283529160200191610b3b565b820191906000526020600020905b815481529060010190602001808311610b1e57829003601f168201915b5050505050815260200160048201548152602001600582016040518061012001604052908160008201548152602001600182018054610b7990612bdd565b80601f0160208091040260200160405190810160405280929190818152602001828054610ba590612bdd565b8015610bf25780601f10610bc757610100808354040283529160200191610bf2565b820191906000526020600020905b815481529060010190602001808311610bd557829003601f168201915b50505050508152602001600282018054610c0b90612bdd565b80601f0160208091040260200160405190810160405280929190818152602001828054610c3790612bdd565b8015610c845780601f10610c5957610100808354040283529160200191610c84565b820191906000526020600020905b815481529060010190602001808311610c6757829003601f168201915b50505050508152602001600382018054610c9d90612bdd565b80601f0160208091040260200160405190810160405280929190818152602001828054610cc990612bdd565b8015610d165780601f10610ceb57610100808354040283529160200191610d16565b820191906000526020600020905b815481529060010190602001808311610cf957829003601f168201915b50505050508152602001600482018054610d2f90612bdd565b80601f0160208091040260200160405190810160405280929190818152602001828054610d5b90612bdd565b8015610da85780601f10610d7d57610100808354040283529160200191610da8565b820191906000526020600020905b815481529060010190602001808311610d8b57829003601f168201915b505050505081526020016005820154815260200160068201548152602001600782018054610dd590612bdd565b80601f0160208091040260200160405190810160405280929190818152602001828054610e0190612bdd565b8015610e4e5780601f10610e2357610100808354040283529160200191610e4e565b820191906000526020600020905b815481529060010190602001808311610e3157829003601f168201915b50505050508152602001600882018054610e6790612bdd565b80601f0160208091040260200160405190810160405280929190818152602001828054610e9390612bdd565b8015610ee05780601f10610eb557610100808354040283529160200191610ee0565b820191906000526020600020905b815481529060010190602001808311610ec357829003601f168201915b5050505050815250508152602001600e820160405180606001604052908160008201548152602001600182018054610f1790612bdd565b80601f0160208091040260200160405190810160405280929190818152602001828054610f4390612bdd565b8015610f905780601f10610f6557610100808354040283529160200191610f90565b820191906000526020600020905b815481529060010190602001808311610f7357829003601f168201915b50505050508152602001600282018054610fa990612bdd565b80601f0160208091040260200160405190810160405280929190818152602001828054610fd590612bdd565b80156110225780601f10610ff757610100808354040283529160200191611022565b820191906000526020600020905b81548152906001019060200180831161100557829003601f168201915b505050505081525050815250508152602001601482016040518060a00160405290816000820154815260200160018201805461105d90612bdd565b80601f016020809104026020016040519081016040528092919081815260200182805461108990612bdd565b80156110d65780601f106110ab576101008083540402835291602001916110d6565b820191906000526020600020905b8154815290600101906020018083116110b957829003601f168201915b50505050508152602001600282015481526020016003820154815260200160048201805461110390612bdd565b80601f016020809104026020016040519081016040528092919081815260200182805461112f90612bdd565b801561117c5780601f106111515761010080835404028352916020019161117c565b820191906000526020600020905b81548152906001019060200180831161115f57829003601f168201915b5050505050815250508152505081526020019060010190610933565b50505050905090565b606060005b828110156114275760008482815181106111c3576111c2612c0f565b5b6020026020010151908060018154018082558091505060019003906000526020600020906019020160009091909190915060008201518160000155602082015181600101556040820151816002019080519060200190611224929190611cbb565b506060820151816003016000820151816000015560208201518160010155604082015181600201908051906020019061125e929190611cbb565b50606082015181600301908051906020019061127b929190611cbb565b506080820151816004015560a0820151816005016000820151816000015560208201518160010190805190602001906112b5929190611cbb565b5060408201518160020190805190602001906112d2929190611cbb565b5060608201518160030190805190602001906112ef929190611cbb565b50608082015181600401908051906020019061130c929190611cbb565b5060a0820151816005015560c0820151816006015560e082015181600701908051906020019061133d929190611cbb565b5061010082015181600801908051906020019061135b929190611cbb565b50505060c082015181600e0160008201518160000155602082015181600101908051906020019061138d929190611cbb565b5060408201518160020190805190602001906113aa929190611cbb565b50505050506080820151816014016000820151816000015560208201518160010190805190602001906113de929190611cbb565b506040820151816002015560608201518160030155608082015181600401908051906020019061140f929190611cbb565b5050505050808061141f90612c6d565b9150506111a6565b506000805480602002602001604051908101604052809291908181526020016000905b82821015611caf57838290600052602060002090601902016040518060a0016040529081600082015481526020016001820154815260200160028201805461149190612bdd565b80601f01602080910402602001604051908101604052809291908181526020018280546114bd90612bdd565b801561150a5780601f106114df5761010080835404028352916020019161150a565b820191906000526020600020905b8154815290600101906020018083116114ed57829003601f168201915b50505050508152602001600382016040518060e0016040529081600082015481526020016001820154815260200160028201805461154790612bdd565b80601f016020809104026020016040519081016040528092919081815260200182805461157390612bdd565b80156115c05780601f10611595576101008083540402835291602001916115c0565b820191906000526020600020905b8154815290600101906020018083116115a357829003601f168201915b505050505081526020016003820180546115d990612bdd565b80601f016020809104026020016040519081016040528092919081815260200182805461160590612bdd565b80156116525780601f1061162757610100808354040283529160200191611652565b820191906000526020600020905b81548152906001019060200180831161163557829003601f168201915b505050505081526020016004820154815260200160058201604051806101200160405290816000820154815260200160018201805461169090612bdd565b80601f01602080910402602001604051908101604052809291908181526020018280546116bc90612bdd565b80156117095780601f106116de57610100808354040283529160200191611709565b820191906000526020600020905b8154815290600101906020018083116116ec57829003601f168201915b5050505050815260200160028201805461172290612bdd565b80601f016020809104026020016040519081016040528092919081815260200182805461174e90612bdd565b801561179b5780601f106117705761010080835404028352916020019161179b565b820191906000526020600020905b81548152906001019060200180831161177e57829003601f168201915b505050505081526020016003820180546117b490612bdd565b80601f01602080910402602001604051908101604052809291908181526020018280546117e090612bdd565b801561182d5780601f106118025761010080835404028352916020019161182d565b820191906000526020600020905b81548152906001019060200180831161181057829003601f168201915b5050505050815260200160048201805461184690612bdd565b80601f016020809104026020016040519081016040528092919081815260200182805461187290612bdd565b80156118bf5780601f10611894576101008083540402835291602001916118bf565b820191906000526020600020905b8154815290600101906020018083116118a257829003601f168201915b5050505050815260200160058201548152602001600682015481526020016007820180546118ec90612bdd565b80601f016020809104026020016040519081016040528092919081815260200182805461191890612bdd565b80156119655780601f1061193a57610100808354040283529160200191611965565b820191906000526020600020905b81548152906001019060200180831161194857829003601f168201915b5050505050815260200160088201805461197e90612bdd565b80601f01602080910402602001604051908101604052809291908181526020018280546119aa90612bdd565b80156119f75780601f106119cc576101008083540402835291602001916119f7565b820191906000526020600020905b8154815290600101906020018083116119da57829003601f168201915b5050505050815250508152602001600e820160405180606001604052908160008201548152602001600182018054611a2e90612bdd565b80601f0160208091040260200160405190810160405280929190818152602001828054611a5a90612bdd565b8015611aa75780601f10611a7c57610100808354040283529160200191611aa7565b820191906000526020600020905b815481529060010190602001808311611a8a57829003601f168201915b50505050508152602001600282018054611ac090612bdd565b80601f0160208091040260200160405190810160405280929190818152602001828054611aec90612bdd565b8015611b395780601f10611b0e57610100808354040283529160200191611b39565b820191906000526020600020905b815481529060010190602001808311611b1c57829003601f168201915b505050505081525050815250508152602001601482016040518060a001604052908160008201548152602001600182018054611b7490612bdd565b80601f0160208091040260200160405190810160405280929190818152602001828054611ba090612bdd565b8015611bed5780601f10611bc257610100808354040283529160200191611bed565b820191906000526020600020905b815481529060010190602001808311611bd057829003601f168201915b505050505081526020016002820154815260200160038201548152602001600482018054611c1a90612bdd565b80601f0160208091040260200160405190810160405280929190818152602001828054611c4690612bdd565b8015611c935780601f10611c6857610100808354040283529160200191611c93565b820191906000526020600020905b815481529060010190602001808311611c7657829003601f168201915b505050505081525050815250508152602001906001019061144a565b50505050905092915050565b828054611cc790612bdd565b90600052602060002090601f016020900481019282611ce95760008555611d30565b82601f10611d0257805160ff1916838001178555611d30565b82800160010185558215611d30579182015b82811115611d2f578251825591602001919060010190611d14565b5b509050611d3d9190611d41565b5090565b5b80821115611d5a576000816000905550600101611d42565b5090565b6000604051905090565b600080fd5b600080fd5b6000819050919050565b611d8581611d72565b8114611d9057600080fd5b50565b600081359050611da281611d7c565b92915050565b600060208284031215611dbe57611dbd611d68565b5b6000611dcc84828501611d93565b91505092915050565b611dde81611d72565b82525050565b600081519050919050565b600082825260208201905092915050565b60005b83811015611e1e578082015181840152602081019050611e03565b83811115611e2d576000848401525b50505050565b6000601f19601f8301169050919050565b6000611e4f82611de4565b611e598185611def565b9350611e69818560208601611e00565b611e7281611e33565b840191505092915050565b611e8681611d72565b82525050565b600082825260208201905092915050565b6000611ea882611de4565b611eb28185611e8c565b9350611ec2818560208601611e00565b611ecb81611e33565b840191505092915050565b600061012083016000830151611eef6000860182611e7d565b5060208301518482036020860152611f078282611e9d565b91505060408301518482036040860152611f218282611e9d565b91505060608301518482036060860152611f3b8282611e9d565b91505060808301518482036080860152611f558282611e9d565b91505060a0830151611f6a60a0860182611e7d565b5060c0830151611f7d60c0860182611e7d565b5060e083015184820360e0860152611f958282611e9d565b915050610100830151848203610100860152611fb18282611e9d565b9150508091505092915050565b6000606083016000830151611fd66000860182611e7d565b5060208301518482036020860152611fee8282611e9d565b915050604083015184820360408601526120088282611e9d565b9150508091505092915050565b600060e08301600083015161202d6000860182611e7d565b5060208301516120406020860182611e7d565b50604083015184820360408601526120588282611e9d565b915050606083015184820360608601526120728282611e9d565b91505060808301516120876080860182611e7d565b5060a083015184820360a086015261209f8282611ed6565b91505060c083015184820360c08601526120b98282611fbe565b9150508091505092915050565b600060a0830160008301516120de6000860182611e7d565b50602083015184820360208601526120f68282611e9d565b915050604083015161210b6040860182611e7d565b50606083015161211e6060860182611e7d565b50608083015184820360808601526121368282611e9d565b9150508091505092915050565b600060a0820190506121586000830188611dd5565b6121656020830187611dd5565b81810360408301526121778186611e44565b9050818103606083015261218b8185612015565b9050818103608083015261219f81846120c6565b90509695505050505050565b600081519050919050565b600082825260208201905092915050565b6000819050602082019050919050565b600060e0830160008301516121ef6000860182611e7d565b5060208301516122026020860182611e7d565b506040830151848203604086015261221a8282611e9d565b915050606083015184820360608601526122348282611e9d565b91505060808301516122496080860182611e7d565b5060a083015184820360a08601526122618282611ed6565b91505060c083015184820360c086015261227b8282611fbe565b9150508091505092915050565b600060a0830160008301516122a06000860182611e7d565b50602083015184820360208601526122b88282611e9d565b91505060408301516122cd6040860182611e7d565b5060608301516122e06060860182611e7d565b50608083015184820360808601526122f88282611e9d565b9150508091505092915050565b600060a08301600083015161231d6000860182611e7d565b5060208301516123306020860182611e7d565b50604083015184820360408601526123488282611e9d565b9150506060830151848203606086015261236282826121d7565b9150506080830151848203608086015261237c8282612288565b9150508091505092915050565b60006123958383612305565b905092915050565b6000602082019050919050565b60006123b5826121ab565b6123bf81856121b6565b9350836020820285016123d1856121c7565b8060005b8581101561240d57848403895281516123ee8582612389565b94506123f98361239d565b925060208a019950506001810190506123d5565b50829750879550505050505092915050565b6000602082019050818103600083015261243981846123aa565b905092915050565b600080fd5b7f4e487b7100000000000000000000000000000000000000000000000000000000600052604160045260246000fd5b61247e82611e33565b810181811067ffffffffffffffff8211171561249d5761249c612446565b5b80604052505050565b60006124b0611d5e565b90506124bc8282612475565b919050565b600067ffffffffffffffff8211156124dc576124db612446565b5b602082029050602081019050919050565b600080fd5b600080fd5b600080fd5b600080fd5b600067ffffffffffffffff82111561251c5761251b612446565b5b61252582611e33565b9050602081019050919050565b82818337600083830152505050565b600061255461254f84612501565b6124a6565b9050828152602081018484840111156125705761256f6124fc565b5b61257b848285612532565b509392505050565b600082601f83011261259857612597612441565b5b81356125a8848260208601612541565b91505092915050565b600061012082840312156125c8576125c76124f2565b5b6125d36101206124a6565b905060006125e384828501611d93565b600083015250602082013567ffffffffffffffff811115612607576126066124f7565b5b61261384828501612583565b602083015250604082013567ffffffffffffffff811115612637576126366124f7565b5b61264384828501612583565b604083015250606082013567ffffffffffffffff811115612667576126666124f7565b5b61267384828501612583565b606083015250608082013567ffffffffffffffff811115612697576126966124f7565b5b6126a384828501612583565b60808301525060a06126b784828501611d93565b60a08301525060c06126cb84828501611d93565b60c08301525060e082013567ffffffffffffffff8111156126ef576126ee6124f7565b5b6126fb84828501612583565b60e08301525061010082013567ffffffffffffffff8111156127205761271f6124f7565b5b61272c84828501612583565b6101008301525092915050565b60006060828403121561274f5761274e6124f2565b5b61275960606124a6565b9050600061276984828501611d93565b600083015250602082013567ffffffffffffffff81111561278d5761278c6124f7565b5b61279984828501612583565b602083015250604082013567ffffffffffffffff8111156127bd576127bc6124f7565b5b6127c984828501612583565b60408301525092915050565b600060e082840312156127eb576127ea6124f2565b5b6127f560e06124a6565b9050600061280584828501611d93565b600083015250602061281984828501611d93565b602083015250604082013567ffffffffffffffff81111561283d5761283c6124f7565b5b61284984828501612583565b604083015250606082013567ffffffffffffffff81111561286d5761286c6124f7565b5b61287984828501612583565b606083015250608061288d84828501611d93565b60808301525060a082013567ffffffffffffffff8111156128b1576128b06124f7565b5b6128bd848285016125b1565b60a08301525060c082013567ffffffffffffffff8111156128e1576128e06124f7565b5b6128ed84828501612739565b60c08301525092915050565b600060a0828403121561290f5761290e6124f2565b5b61291960a06124a6565b9050600061292984828501611d93565b600083015250602082013567ffffffffffffffff81111561294d5761294c6124f7565b5b61295984828501612583565b602083015250604061296d84828501611d93565b604083015250606061298184828501611d93565b606083015250608082013567ffffffffffffffff8111156129a5576129a46124f7565b5b6129b184828501612583565b60808301525092915050565b600060a082840312156129d3576129d26124f2565b5b6129dd60a06124a6565b905060006129ed84828501611d93565b6000830152506020612a0184828501611d93565b602083015250604082013567ffffffffffffffff811115612a2557612a246124f7565b5b612a3184828501612583565b604083015250606082013567ffffffffffffffff811115612a5557612a546124f7565b5b612a61848285016127d5565b606083015250608082013567ffffffffffffffff811115612a8557612a846124f7565b5b612a91848285016128f9565b60808301525092915050565b6000612ab0612aab846124c1565b6124a6565b90508083825260208201905060208402830185811115612ad357612ad26124ed565b5b835b81811015612b1a57803567ffffffffffffffff811115612af857612af7612441565b5b808601612b0589826129bd565b85526020850194505050602081019050612ad5565b5050509392505050565b600082601f830112612b3957612b38612441565b5b8135612b49848260208601612a9d565b91505092915050565b60008060408385031215612b6957612b68611d68565b5b600083013567ffffffffffffffff811115612b8757612b86611d6d565b5b612b9385828601612b24565b9250506020612ba485828601611d93565b9150509250929050565b7f4e487b7100000000000000000000000000000000000000000000000000000000600052602260045260246000fd5b60006002820490506001821680612bf557607f821691505b60208210811415612c0957612c08612bae565b5b50919050565b7f4e487b7100000000000000000000000000000000000000000000000000000000600052603260045260246000fd5b7f4e487b7100000000000000000000000000000000000000000000000000000000600052601160045260246000fd5b6000612c7882611d72565b91507fffffffffffffffffffffffffffffffffffffffffffffffffffffffffffffffff821415612cab57612caa612c3e565b5b60018201905091905056fea2646970667358221220fffc973b066d7cf08cb4d96ea26a240ec88dec12b5135948b49383f8a732ba2464736f6c634300080b0033",
  "immutableReferences": {},
  "source": "// SPDX-License-Identifier: MIT\r\npragma solidity >=0.4.22 <0.9.0;\r\nimport \"./Remplissage.sol\";\r\ncontract RetraitCol is Remplissage{\r\n//*********************************************************************************/\r\n//second app \r\n//******************************************************************************/\r\n\r\nOperationTank0[] public operationTankR;\r\n  function RetraitOperationTank(OperationTank0[] memory operationTank,uint count) \r\n   public returns (OperationTank0[] memory tt0) {\r\n\r\n   for (uint256 i = 0; i < count ; i++) {\r\n   operationTankR.push(operationTank[i]);\r\n}\r\n    return (operationTankR);\r\n  }\r\n\r\n    //get all operations \r\n  \r\n  function getOperationTanks() public view returns (OperationTank0[] memory result ) {\r\n    return operationTankR;\r\n  }\r\n}\r\n",
  "sourcePath": "C:\\Users\\ASUS\\Desktop\\pfe\\PFE_Project2022(usine)\\PFE-FrontEnd\\contracts\\RetraitCol.sol",
  "compiler": {
    "name": "solc",
    "version": "0.8.11+commit.d7f03943.Emscripten.clang"
  },
  "schemaVersion": "3.4.5",
  "updatedAt": "2022-04-22T02:13:59.503Z",
  "networkType": "ethereum",
  "devdoc": {
    "kind": "dev",
    "methods": {},
    "version": 1
  },
  "userdoc": {
    "kind": "user",
    "methods": {},
    "version": 1
  }
}