{
  "contractName": "Transformation",
  "abi": [
    {
      "inputs": [
        {
          "internalType": "uint256",
          "name": "",
          "type": "uint256"
        }
      ],
      "name": "operationTankR",
      "outputs": [
        {
          "internalType": "uint256",
          "name": "idOperation",
          "type": "uint256"
        },
        {
          "internalType": "uint256",
          "name": "poidsLait",
          "type": "uint256"
        },
        {
          "internalType": "string",
          "name": "dateOperation",
          "type": "string"
        },
        {
          "internalType": "string",
          "name": "typeOp",
          "type": "string"
        },
        {
          "internalType": "uint256",
          "name": "code",
          "type": "uint256"
        },
        {
          "internalType": "uint256",
          "name": "qtePrise",
          "type": "uint256"
        },
        {
          "components": [
            {
              "internalType": "uint256",
              "name": "idTank",
              "type": "uint256"
            },
            {
              "internalType": "string",
              "name": "matricule",
              "type": "string"
            },
            {
              "internalType": "uint256",
              "name": "poidVide",
              "type": "uint256"
            },
            {
              "internalType": "uint256",
              "name": "poidActuel",
              "type": "uint256"
            },
            {
              "internalType": "string",
              "name": "etat",
              "type": "string"
            },
            {
              "internalType": "uint256[]",
              "name": "codeTank",
              "type": "uint256[]"
            }
          ],
          "internalType": "struct Remplissage.Tank",
          "name": "tank",
          "type": "tuple"
        },
        {
          "components": [
            {
              "internalType": "uint256",
              "name": "idProduit",
              "type": "uint256"
            },
            {
              "internalType": "string",
              "name": "intitule",
              "type": "string"
            },
            {
              "internalType": "string",
              "name": "libelle",
              "type": "string"
            },
            {
              "internalType": "uint256",
              "name": "qte",
              "type": "uint256"
            }
          ],
          "internalType": "struct Remplissage.Produit",
          "name": "produit",
          "type": "tuple"
        }
      ],
      "stateMutability": "view",
      "type": "function",
      "constant": true
    },
    {
      "inputs": [
        {
          "components": [
            {
              "internalType": "uint256",
              "name": "idOperation",
              "type": "uint256"
            },
            {
              "internalType": "uint256",
              "name": "poidsLait",
              "type": "uint256"
            },
            {
              "internalType": "string",
              "name": "dateOperation",
              "type": "string"
            },
            {
              "internalType": "string",
              "name": "typeOp",
              "type": "string"
            },
            {
              "internalType": "uint256",
              "name": "code",
              "type": "uint256"
            },
            {
              "internalType": "uint256",
              "name": "qtePrise",
              "type": "uint256"
            },
            {
              "components": [
                {
                  "internalType": "uint256",
                  "name": "idTank",
                  "type": "uint256"
                },
                {
                  "internalType": "string",
                  "name": "matricule",
                  "type": "string"
                },
                {
                  "internalType": "uint256",
                  "name": "poidVide",
                  "type": "uint256"
                },
                {
                  "internalType": "uint256",
                  "name": "poidActuel",
                  "type": "uint256"
                },
                {
                  "internalType": "string",
                  "name": "etat",
                  "type": "string"
                },
                {
                  "internalType": "uint256[]",
                  "name": "codeTank",
                  "type": "uint256[]"
                }
              ],
              "internalType": "struct Remplissage.Tank",
              "name": "tank",
              "type": "tuple"
            },
            {
              "components": [
                {
                  "internalType": "uint256",
                  "name": "idProduit",
                  "type": "uint256"
                },
                {
                  "internalType": "string",
                  "name": "intitule",
                  "type": "string"
                },
                {
                  "internalType": "string",
                  "name": "libelle",
                  "type": "string"
                },
                {
                  "internalType": "uint256",
                  "name": "qte",
                  "type": "uint256"
                }
              ],
              "internalType": "struct Remplissage.Produit",
              "name": "produit",
              "type": "tuple"
            }
          ],
          "internalType": "struct Remplissage.Operation04",
          "name": "operationTank",
          "type": "tuple"
        }
      ],
      "name": "RetraitOperationTank",
      "outputs": [
        {
          "components": [
            {
              "internalType": "uint256",
              "name": "idOperation",
              "type": "uint256"
            },
            {
              "internalType": "uint256",
              "name": "poidsLait",
              "type": "uint256"
            },
            {
              "internalType": "string",
              "name": "dateOperation",
              "type": "string"
            },
            {
              "internalType": "string",
              "name": "typeOp",
              "type": "string"
            },
            {
              "internalType": "uint256",
              "name": "code",
              "type": "uint256"
            },
            {
              "internalType": "uint256",
              "name": "qtePrise",
              "type": "uint256"
            },
            {
              "components": [
                {
                  "internalType": "uint256",
                  "name": "idTank",
                  "type": "uint256"
                },
                {
                  "internalType": "string",
                  "name": "matricule",
                  "type": "string"
                },
                {
                  "internalType": "uint256",
                  "name": "poidVide",
                  "type": "uint256"
                },
                {
                  "internalType": "uint256",
                  "name": "poidActuel",
                  "type": "uint256"
                },
                {
                  "internalType": "string",
                  "name": "etat",
                  "type": "string"
                },
                {
                  "internalType": "uint256[]",
                  "name": "codeTank",
                  "type": "uint256[]"
                }
              ],
              "internalType": "struct Remplissage.Tank",
              "name": "tank",
              "type": "tuple"
            },
            {
              "components": [
                {
                  "internalType": "uint256",
                  "name": "idProduit",
                  "type": "uint256"
                },
                {
                  "internalType": "string",
                  "name": "intitule",
                  "type": "string"
                },
                {
                  "internalType": "string",
                  "name": "libelle",
                  "type": "string"
                },
                {
                  "internalType": "uint256",
                  "name": "qte",
                  "type": "uint256"
                }
              ],
              "internalType": "struct Remplissage.Produit",
              "name": "produit",
              "type": "tuple"
            }
          ],
          "internalType": "struct Remplissage.Operation04[]",
          "name": "tt0",
          "type": "tuple[]"
        }
      ],
      "stateMutability": "nonpayable",
      "type": "function"
    },
    {
      "inputs": [],
      "name": "getOperationTanks",
      "outputs": [
        {
          "components": [
            {
              "internalType": "uint256",
              "name": "idOperation",
              "type": "uint256"
            },
            {
              "internalType": "uint256",
              "name": "poidsLait",
              "type": "uint256"
            },
            {
              "internalType": "string",
              "name": "dateOperation",
              "type": "string"
            },
            {
              "internalType": "string",
              "name": "typeOp",
              "type": "string"
            },
            {
              "internalType": "uint256",
              "name": "code",
              "type": "uint256"
            },
            {
              "internalType": "uint256",
              "name": "qtePrise",
              "type": "uint256"
            },
            {
              "components": [
                {
                  "internalType": "uint256",
                  "name": "idTank",
                  "type": "uint256"
                },
                {
                  "internalType": "string",
                  "name": "matricule",
                  "type": "string"
                },
                {
                  "internalType": "uint256",
                  "name": "poidVide",
                  "type": "uint256"
                },
                {
                  "internalType": "uint256",
                  "name": "poidActuel",
                  "type": "uint256"
                },
                {
                  "internalType": "string",
                  "name": "etat",
                  "type": "string"
                },
                {
                  "internalType": "uint256[]",
                  "name": "codeTank",
                  "type": "uint256[]"
                }
              ],
              "internalType": "struct Remplissage.Tank",
              "name": "tank",
              "type": "tuple"
            },
            {
              "components": [
                {
                  "internalType": "uint256",
                  "name": "idProduit",
                  "type": "uint256"
                },
                {
                  "internalType": "string",
                  "name": "intitule",
                  "type": "string"
                },
                {
                  "internalType": "string",
                  "name": "libelle",
                  "type": "string"
                },
                {
                  "internalType": "uint256",
                  "name": "qte",
                  "type": "uint256"
                }
              ],
              "internalType": "struct Remplissage.Produit",
              "name": "produit",
              "type": "tuple"
            }
          ],
          "internalType": "struct Remplissage.Operation04[]",
          "name": "result",
          "type": "tuple[]"
        }
      ],
      "stateMutability": "view",
      "type": "function",
      "constant": true
    }
  ],
  "bytecode": "0x608060405234801561001057600080fd5b50611cf1806100206000396000f3fe608060405234801561001057600080fd5b50600436106100415760003560e01c80631e61a9c214610046578063a96fe5f014610076578063c9c28e0f146100ad575b600080fd5b610060600480360381019061005b9190611600565b6100cb565b60405161006d9190611a17565b60405180910390f35b610090600480360381019061008b9190611a39565b6106dc565b6040516100a4989796959493929190611bc0565b60405180910390f35b6100b5610b2a565b6040516100c29190611a17565b60405180910390f35b6060600082908060018154018082558091505060019003906000526020600020906010020160009091909190915060008201518160000155602082015181600101556040820151816002019080519060200190610129929190610fd0565b506060820151816003019080519060200190610146929190610fd0565b506080820151816004015560a0820151816005015560c08201518160060160008201518160000155602082015181600101908051906020019061018a929190610fd0565b50604082015181600201556060820151816003015560808201518160040190805190602001906101bb929190610fd0565b5060a08201518160050190805190602001906101d8929190611056565b50505060e082015181600c0160008201518160000155602082015181600101908051906020019061020a929190610fd0565b506040820151816002019080519060200190610227929190610fd0565b5060608201518160030155505050506000805480602002602001604051908101604052809291908181526020016000905b828210156106d157838290600052602060002090601002016040518061010001604052908160008201548152602001600182015481526020016002820180546102a090611c89565b80601f01602080910402602001604051908101604052809291908181526020018280546102cc90611c89565b80156103195780601f106102ee57610100808354040283529160200191610319565b820191906000526020600020905b8154815290600101906020018083116102fc57829003601f168201915b5050505050815260200160038201805461033290611c89565b80601f016020809104026020016040519081016040528092919081815260200182805461035e90611c89565b80156103ab5780601f10610380576101008083540402835291602001916103ab565b820191906000526020600020905b81548152906001019060200180831161038e57829003601f168201915b505050505081526020016004820154815260200160058201548152602001600682016040518060c0016040529081600082015481526020016001820180546103f290611c89565b80601f016020809104026020016040519081016040528092919081815260200182805461041e90611c89565b801561046b5780601f106104405761010080835404028352916020019161046b565b820191906000526020600020905b81548152906001019060200180831161044e57829003601f168201915b50505050508152602001600282015481526020016003820154815260200160048201805461049890611c89565b80601f01602080910402602001604051908101604052809291908181526020018280546104c490611c89565b80156105115780601f106104e657610100808354040283529160200191610511565b820191906000526020600020905b8154815290600101906020018083116104f457829003601f168201915b505050505081526020016005820180548060200260200160405190810160405280929190818152602001828054801561056957602002820191906000526020600020905b815481526020019060010190808311610555575b5050505050815250508152602001600c8201604051806080016040529081600082015481526020016001820180546105a090611c89565b80601f01602080910402602001604051908101604052809291908181526020018280546105cc90611c89565b80156106195780601f106105ee57610100808354040283529160200191610619565b820191906000526020600020905b8154815290600101906020018083116105fc57829003601f168201915b5050505050815260200160028201805461063290611c89565b80601f016020809104026020016040519081016040528092919081815260200182805461065e90611c89565b80156106ab5780601f10610680576101008083540402835291602001916106ab565b820191906000526020600020905b81548152906001019060200180831161068e57829003601f168201915b505050505081526020016003820154815250508152505081526020019060010190610258565b505050509050919050565b600081815481106106ec57600080fd5b906000526020600020906010020160009150905080600001549080600101549080600201805461071b90611c89565b80601f016020809104026020016040519081016040528092919081815260200182805461074790611c89565b80156107945780601f1061076957610100808354040283529160200191610794565b820191906000526020600020905b81548152906001019060200180831161077757829003601f168201915b5050505050908060030180546107a990611c89565b80601f01602080910402602001604051908101604052809291908181526020018280546107d590611c89565b80156108225780601f106107f757610100808354040283529160200191610822565b820191906000526020600020905b81548152906001019060200180831161080557829003601f168201915b505050505090806004015490806005015490806006016040518060c00160405290816000820154815260200160018201805461085d90611c89565b80601f016020809104026020016040519081016040528092919081815260200182805461088990611c89565b80156108d65780601f106108ab576101008083540402835291602001916108d6565b820191906000526020600020905b8154815290600101906020018083116108b957829003601f168201915b50505050508152602001600282015481526020016003820154815260200160048201805461090390611c89565b80601f016020809104026020016040519081016040528092919081815260200182805461092f90611c89565b801561097c5780601f106109515761010080835404028352916020019161097c565b820191906000526020600020905b81548152906001019060200180831161095f57829003601f168201915b50505050508152602001600582018054806020026020016040519081016040528092919081815260200182805480156109d457602002820191906000526020600020905b8154815260200190600101908083116109c0575b5050505050815250509080600c0160405180608001604052908160008201548152602001600182018054610a0790611c89565b80601f0160208091040260200160405190810160405280929190818152602001828054610a3390611c89565b8015610a805780601f10610a5557610100808354040283529160200191610a80565b820191906000526020600020905b815481529060010190602001808311610a6357829003601f168201915b50505050508152602001600282018054610a9990611c89565b80601f0160208091040260200160405190810160405280929190818152602001828054610ac590611c89565b8015610b125780601f10610ae757610100808354040283529160200191610b12565b820191906000526020600020905b815481529060010190602001808311610af557829003601f168201915b50505050508152602001600382015481525050905088565b60606000805480602002602001604051908101604052809291908181526020016000905b82821015610fc75783829060005260206000209060100201604051806101000160405290816000820154815260200160018201548152602001600282018054610b9690611c89565b80601f0160208091040260200160405190810160405280929190818152602001828054610bc290611c89565b8015610c0f5780601f10610be457610100808354040283529160200191610c0f565b820191906000526020600020905b815481529060010190602001808311610bf257829003601f168201915b50505050508152602001600382018054610c2890611c89565b80601f0160208091040260200160405190810160405280929190818152602001828054610c5490611c89565b8015610ca15780601f10610c7657610100808354040283529160200191610ca1565b820191906000526020600020905b815481529060010190602001808311610c8457829003601f168201915b505050505081526020016004820154815260200160058201548152602001600682016040518060c001604052908160008201548152602001600182018054610ce890611c89565b80601f0160208091040260200160405190810160405280929190818152602001828054610d1490611c89565b8015610d615780601f10610d3657610100808354040283529160200191610d61565b820191906000526020600020905b815481529060010190602001808311610d4457829003601f168201915b505050505081526020016002820154815260200160038201548152602001600482018054610d8e90611c89565b80601f0160208091040260200160405190810160405280929190818152602001828054610dba90611c89565b8015610e075780601f10610ddc57610100808354040283529160200191610e07565b820191906000526020600020905b815481529060010190602001808311610dea57829003601f168201915b5050505050815260200160058201805480602002602001604051908101604052809291908181526020018280548015610e5f57602002820191906000526020600020905b815481526020019060010190808311610e4b575b5050505050815250508152602001600c820160405180608001604052908160008201548152602001600182018054610e9690611c89565b80601f0160208091040260200160405190810160405280929190818152602001828054610ec290611c89565b8015610f0f5780601f10610ee457610100808354040283529160200191610f0f565b820191906000526020600020905b815481529060010190602001808311610ef257829003601f168201915b50505050508152602001600282018054610f2890611c89565b80601f0160208091040260200160405190810160405280929190818152602001828054610f5490611c89565b8015610fa15780601f10610f7657610100808354040283529160200191610fa1565b820191906000526020600020905b815481529060010190602001808311610f8457829003601f168201915b505050505081526020016003820154815250508152505081526020019060010190610b4e565b50505050905090565b828054610fdc90611c89565b90600052602060002090601f016020900481019282610ffe5760008555611045565b82601f1061101757805160ff1916838001178555611045565b82800160010185558215611045579182015b82811115611044578251825591602001919060010190611029565b5b50905061105291906110a3565b5090565b828054828255906000526020600020908101928215611092579160200282015b82811115611091578251825591602001919060010190611076565b5b50905061109f91906110a3565b5090565b5b808211156110bc5760008160009055506001016110a4565b5090565b6000604051905090565b600080fd5b600080fd5b600080fd5b6000601f19601f8301169050919050565b7f4e487b7100000000000000000000000000000000000000000000000000000000600052604160045260246000fd5b611122826110d9565b810181811067ffffffffffffffff82111715611141576111406110ea565b5b80604052505050565b60006111546110c0565b90506111608282611119565b919050565b600080fd5b6000819050919050565b61117d8161116a565b811461118857600080fd5b50565b60008135905061119a81611174565b92915050565b600080fd5b600080fd5b600067ffffffffffffffff8211156111c5576111c46110ea565b5b6111ce826110d9565b9050602081019050919050565b82818337600083830152505050565b60006111fd6111f8846111aa565b61114a565b905082815260208101848484011115611219576112186111a5565b5b6112248482856111db565b509392505050565b600082601f830112611241576112406111a0565b5b81356112518482602086016111ea565b91505092915050565b600067ffffffffffffffff821115611275576112746110ea565b5b602082029050602081019050919050565b600080fd5b600061129e6112998461125a565b61114a565b905080838252602082019050602084028301858111156112c1576112c0611286565b5b835b818110156112ea57806112d6888261118b565b8452602084019350506020810190506112c3565b5050509392505050565b600082601f830112611309576113086111a0565b5b813561131984826020860161128b565b91505092915050565b600060c08284031215611338576113376110d4565b5b61134260c061114a565b905060006113528482850161118b565b600083015250602082013567ffffffffffffffff81111561137657611375611165565b5b6113828482850161122c565b60208301525060406113968482850161118b565b60408301525060606113aa8482850161118b565b606083015250608082013567ffffffffffffffff8111156113ce576113cd611165565b5b6113da8482850161122c565b60808301525060a082013567ffffffffffffffff8111156113fe576113fd611165565b5b61140a848285016112f4565b60a08301525092915050565b60006080828403121561142c5761142b6110d4565b5b611436608061114a565b905060006114468482850161118b565b600083015250602082013567ffffffffffffffff81111561146a57611469611165565b5b6114768482850161122c565b602083015250604082013567ffffffffffffffff81111561149a57611499611165565b5b6114a68482850161122c565b60408301525060606114ba8482850161118b565b60608301525092915050565b600061010082840312156114dd576114dc6110d4565b5b6114e861010061114a565b905060006114f88482850161118b565b600083015250602061150c8482850161118b565b602083015250604082013567ffffffffffffffff8111156115305761152f611165565b5b61153c8482850161122c565b604083015250606082013567ffffffffffffffff8111156115605761155f611165565b5b61156c8482850161122c565b60608301525060806115808482850161118b565b60808301525060a06115948482850161118b565b60a08301525060c082013567ffffffffffffffff8111156115b8576115b7611165565b5b6115c484828501611322565b60c08301525060e082013567ffffffffffffffff8111156115e8576115e7611165565b5b6115f484828501611416565b60e08301525092915050565b600060208284031215611616576116156110ca565b5b600082013567ffffffffffffffff811115611634576116336110cf565b5b611640848285016114c6565b91505092915050565b600081519050919050565b600082825260208201905092915050565b6000819050602082019050919050565b61167e8161116a565b82525050565b600081519050919050565b600082825260208201905092915050565b60005b838110156116be5780820151818401526020810190506116a3565b838111156116cd576000848401525b50505050565b60006116de82611684565b6116e8818561168f565b93506116f88185602086016116a0565b611701816110d9565b840191505092915050565b600081519050919050565b600082825260208201905092915050565b6000819050602082019050919050565b60006117448383611675565b60208301905092915050565b6000602082019050919050565b60006117688261170c565b6117728185611717565b935061177d83611728565b8060005b838110156117ae5781516117958882611738565b97506117a083611750565b925050600181019050611781565b5085935050505092915050565b600060c0830160008301516117d36000860182611675565b50602083015184820360208601526117eb82826116d3565b91505060408301516118006040860182611675565b5060608301516118136060860182611675565b506080830151848203608086015261182b82826116d3565b91505060a083015184820360a0860152611845828261175d565b9150508091505092915050565b600060808301600083015161186a6000860182611675565b506020830151848203602086015261188282826116d3565b9150506040830151848203604086015261189c82826116d3565b91505060608301516118b16060860182611675565b508091505092915050565b6000610100830160008301516118d56000860182611675565b5060208301516118e86020860182611675565b506040830151848203604086015261190082826116d3565b9150506060830151848203606086015261191a82826116d3565b915050608083015161192f6080860182611675565b5060a083015161194260a0860182611675565b5060c083015184820360c086015261195a82826117bb565b91505060e083015184820360e08601526119748282611852565b9150508091505092915050565b600061198d83836118bc565b905092915050565b6000602082019050919050565b60006119ad82611649565b6119b78185611654565b9350836020820285016119c985611665565b8060005b85811015611a0557848403895281516119e68582611981565b94506119f183611995565b925060208a019950506001810190506119cd565b50829750879550505050505092915050565b60006020820190508181036000830152611a3181846119a2565b905092915050565b600060208284031215611a4f57611a4e6110ca565b5b6000611a5d8482850161118b565b91505092915050565b611a6f8161116a565b82525050565b600082825260208201905092915050565b6000611a9182611684565b611a9b8185611a75565b9350611aab8185602086016116a0565b611ab4816110d9565b840191505092915050565b600060c083016000830151611ad76000860182611675565b5060208301518482036020860152611aef82826116d3565b9150506040830151611b046040860182611675565b506060830151611b176060860182611675565b5060808301518482036080860152611b2f82826116d3565b91505060a083015184820360a0860152611b49828261175d565b9150508091505092915050565b6000608083016000830151611b6e6000860182611675565b5060208301518482036020860152611b8682826116d3565b91505060408301518482036040860152611ba082826116d3565b9150506060830151611bb56060860182611675565b508091505092915050565b600061010082019050611bd6600083018b611a66565b611be3602083018a611a66565b8181036040830152611bf58189611a86565b90508181036060830152611c098188611a86565b9050611c186080830187611a66565b611c2560a0830186611a66565b81810360c0830152611c378185611abf565b905081810360e0830152611c4b8184611b56565b90509998505050505050505050565b7f4e487b7100000000000000000000000000000000000000000000000000000000600052602260045260246000fd5b60006002820490506001821680611ca157607f821691505b60208210811415611cb557611cb4611c5a565b5b5091905056fea26469706673582212200c7c892798e1336046bfe9af9fad74e9e41fbbca67ab28f1b5478da7c63f764a64736f6c634300080b0033",
  "immutableReferences": {},
  "source": "// SPDX-License-Identifier: MIT\r\npragma solidity >=0.4.22 <0.9.0;\r\nimport \"./Remplissage.sol\";\r\n\r\ncontract Transformation is Remplissage {\r\n\r\n    Operation04[] public operationTankR;\r\n\r\n    function RetraitOperationTank(Operation04 memory operationTank)\r\n        public\r\n        returns (Operation04[] memory tt0)\r\n    {\r\n        operationTankR.push(operationTank);\r\n\r\n        return (operationTankR);\r\n    }\r\n\r\n    //get all operations\r\n\r\n    function getOperationTanks()\r\n        public\r\n        view\r\n        returns (Operation04[] memory result)\r\n    {\r\n        return operationTankR;\r\n    }\r\n\r\n\r\n\r\n\r\n}\r\n",
  "sourcePath": "C:\\Users\\ASUS\\Desktop\\pfe\\PFE_Project2022(usine)\\PFE-FrontEnd\\contracts\\Transformation.sol",
  "compiler": {
    "name": "solc",
    "version": "0.8.11+commit.d7f03943.Emscripten.clang"
  },
  "schemaVersion": "3.4.5",
  "updatedAt": "2022-04-30T00:29:41.785Z",
  "networkType": "ethereum",
  "devdoc": {
    "kind": "dev",
    "methods": {},
    "version": 1
  },
  "userdoc": {
    "kind": "user",
    "methods": {},
    "version": 1
  }
}